S0100000434152445F4D43552E73726563B6
S11300000C942A000C9447000C9447000C9447006D
S11300100C9447000C9447000C9447000C94470040
S11300200C9447000C9447000C9447000C94470030
S11300300C94C6030C9447000C9447000C9447009E
S11300400C9447000C9447000C9447000C94470010
S11300500C94470011241FBECFE5D8E0DEBFCDBF0E
S113006011E0A0E6B0E0EEEBF8E002C005900D92DE
S1130070AC3EB107D9F722E0ACEEB1E001C01D926D
S1130080A630B207E1F70E94D4020C945D040C94EC
S113009000000E94BA020E9478020E94ED01789446
S11300A008958091EC01823009F44AC028F4882331
S11300B051F08130C1F10895833009F453C0843084
S11300C009F46BC0089580E091E00E940A028093D5
S11300D000028F3F21F481E08093EC01089589E8C8
S11300E090E00E94CE0281E092E00E94C40281115D
S11300F0FACF809101020E94BF028DE00E94BF02EC
S113010080910102813321F483E08093EC0108950E
S1130110823321F481E08093EC0108958DEC90E02A
S11301200E94CE02089580E690E00E94140180931C
S11301300202813009F04DC082E08093EC01089501
S11301400E949C01813051F464E770E080E690E005
S11301500E943E0183E08093EC01089582E0809345
S1130160EC0108958EED90E00E94CE0265E084E7F4
S113017090E00E94A60264E770E080E690E00E94AE
S1130180760180E690E00E94CE0284E790E00E942F
S1130190CE0284E08093EC010895809103028035BF
S11301A041F41092030265E084E790E00E94B102FA
S11301B00895873441F41092030264E180E690E0EC
S11301C00E94B1020895853421F410920302109222
S11301D0EC0108950F931F93CF938C0165E00E9467
S11301E0D102C0E00CC080538A3010F4CF5F07C046
S11301F087E091E00E94CE0291E080E008C0F8011F
S1130200EC0FF11D80818111EECF90E081E0C430CC
S113021038F4911105C085E191E00E94CE0280E09E
S1130220CF911F910F910895CF93DF93EC0183E257
S113023091E00E94CE0264E1CE010E94D10290E0DE
S11302400BC080538A3010F49F5F06C087E391E0AF
S11302500E94CE0280E00FC0FE01E90FF11D8081F3
S11302608111EFCF903130F488E691E00E94CE0204
S113027080E001C081E0DF91CF910895CF93DF93B7
S1130280009771F16115710569F1EB01BC018FE40F
S113029093EC0197F1F700C0000080E690E00E9423
S11302A027028FE493EC0197F1F700C00000BE0130
S11302B080E090E00E9427028FE493EC0197F1F72D
S11302C000C0000060EA71E080E291E00E94270231
S11302D08FE493EC0197F1F700C0000080E003C0C5
S11302E081E001C081E0DF91CF910895CF93DF9346
S11302F00097E1F061157105D9F0EB01BC0180E6CE
S113030090E00E9452028FE493EC0197F1F700C051
S11303100000BE0180E090E00E9452028FE493EC62
S11303200197F1F700C0000082E003C083E001C040
S113033083E0DF91CF9108951F93CF93DF93CDB7DF
S1130340DEB72A970FB6F894DEBF0FBECDBF82EAA0
S113035091E00E94CE0284E790E00E94EA00182F08
S1130360882371F186EB91E00E94CE02CE010196C2
S11303700E94EA00113031F58130C9F080E023C0D9
S1130380822F90E0FC01EC58FF4F3081E1E0F0E077
S1130390EC0FFD1FE80FF91F8081381731F08CEC4A
S11303A091E00E94CE0280E00EC02F5F01C020E0E9
S11303B0253030F38EED91E00E94CE0281E003C03F
S11303C080E001C080E02A960FB6F894DEBF0FBE2D
S11303D0CDBFDF91CF911F9108950E9459030895D5
S11303E01F93CF93DF93D82F192FC62F0E94670333
S11303F080E50E947B03812F0E9499038D2F0E9428
S113040099038C2F0E9499030E94A803DF91CF9136
S11304101F910895CF93DF93C82FD92F0E946703AC
S113042080E50E947B038D2F0E9499038C2F0E94EC
S113043099030E94710380E50E948A030E94AB0322
S1130440C82F0E94A8038C2FDF91CF910895EF92BB
S1130450FF920F931F93CF937B01C0E00EC0A3EDD7
S1130460B0E31197F1F700C00000CF5F8C010F5F7C
S11304701F4F60810E94F001C801F701EC0FF11DCC
S113048020812111ECCFE3EDF0E33197F1F700C0C7
S1130490000060E00E94F001CF911F910F91FF9046
S11304A0EF900895CF92DF92EF92FF920F931F93F4
S11304B0CF936B01C0E0E3EDF0E33197F1F700C0B7
S11304C000007601EC0EF11C8C010F5F1F4F0E949F
S11304D00A02282FF7018083CF5FC8012111EBCFD7
S11304E0CF911F910F91FF90EF90DF90CF900895DF
S11304F060E08DE00E94D90260E08FE00E94D902A2
S113050060E08CE00E94D90261E08CE00E94190353
S113051061E08EE00E94D90261E088E00E94D90285
S11305200E94B60361E08CE00E941903089561E023
S113053088E00E94190383EC99E00197F1F700C069
S1130540000060E088E00E94190308951092FF0102
S11305509093FD018093FC01609305020E94970231
S113056008951092FF019093FD018093FC01609324
S1130570050208950E941104811181E008950E94EA
S11305801D04811181E00895CF93DF93EC010E9453
S11305902204888380E0DF91CF9108950E9426048D
S11305A008950E94390408950E9449000E94510050
S11305B0FDCF8032C0F56230C0F5E82FE695E695B0
S11305C0E6958770611117C0F0E0EE0FFF1FE75842
S11305D0FF4F0190F081E02D408121E030E0B9012E
S11305E002C0660F771F8A95E2F7CB0180958423BA
S11305F0808380E008956130D1F4F0E0EE0FFF1FB6
S1130600E758FF4F0190F081E02D408121E030E078
S1130610B90102C0660F771F8A95E2F7CB01842BDC
S1130620808380E008958FEF08958FEF089580E030
S113063008958032C0F56230C0F5E82FE695E6955E
S1130640E6958770611117C0F0E0EE0FFF1FEF57BA
S1130650FF4F0190F081E02D408121E030E0B901AD
S113066002C0660F771F8A95E2F7CB018095842339
S1130670808380E008956130D1F4F0E0EE0FFF1F35
S1130680EF57FF4F0190F081E02D408121E030E0F1
S1130690B90102C0660F771F8A95E2F7CB01842B5C
S11306A0808380E008958FEF08958FEF089580E0B0
S11306B0089581B18E7F81B981B18D7F81B982E046
S11306C080B980EA82B986B7846086BF089584EAD7
S11306D086BF06B607FEFDCF81B1887F8830E1F77B
S11306E0089584EA86BF06B607FEFDCF81B1887FF0
S11306F08031E1F70895880F83B983B18E7F83B980
S113070084E886BF06B607FEFDCF81B1887F8831B5
S1130710E1F70895880F83B983B1816083B984E8D0
S113072086BF06B607FEFDCF81B1887F8034E1F72E
S1130730089583B986B7806886BF86B7846086BF0C
S113074006B607FEFDCF81B1887F8832E1F70895B0
S113075084E986BF089586B7806886BF86B78460BB
S113076086BF06B607FEFDCF83B108958DB18F7E97
S11307708DB98DB1877F8DB98DB18B7F8DB98DB1D9
S113078080688DB98DB180648DB908951F920F92E0
S11307900FB60F9211242F933F938F939F93EF9350
S11307A0FF938FB1809303029091FE019F3011F467
S11307B01092FE01833259F09091FE01E92FF0E08E
S11307C0E351FE4F80839F5F9093FE0104C08091AC
S11307D0FE01809304028091FF0190910502891724
S11307E088F42091FC013091FD012115310551F06F
S11307F091E0980F9093FF01F901E80FF11D8081BA
S11308008FB904C0891710F083E28FB9FF91EF917B
S11308109F918F913F912F910F900FBE0F901F903A
S113082018958AB18B7F9BB19D7F9BB988618AB9EA
S113083083E389B910BC80E008955D9BFECF8CB939
S113084080E008955F9BFECF8CB108950F931F93B2
S1130850CF938C01C0E003C00E941D04CF5FF80158
S1130860EC0FF11D80818111F7CFCF911F910F9172
S113087008950F931F93CF93DF938C01D62FC0E07D
S11308800BC00E942204F801EC0FF11D80838D300F
S113089059F00E941D04CF5F2C2F30E08D2F90E083
S11308A00197281739076CF3F801EC0FF11D10823A
S11108B0DF91CF911F910F910895F894FFCF1F
S11308BE30313031333537383839380000000000E4
S11308CE0000000035353535003A0037003400316C
S11308DE003B003800350032000A0D506C65617320
S11308EE65207072657373203120666F7220656E99
S11308FE746572696E672075736572206D6F6465B9
S113090E20616E64203220666F722070726F67727F
S113091E616D6D696E67206D6F64653A00496E7620
S113092E616C69642043686F6963652C20000A0D4D
S113093E2D2D2D2D2D2D2D2D2D2D2D2D2D20557374
S113094E6572204D6F6465202D2D2D2D2D2D2D2D91
S113095E2D2D2D2D2D0A000D4E6F74206E756D6587
S113096E72696320000D62656C6F772034206469B0
S113097E6720000A0D456E7465722043617264200F
S113098E50616E203A20000A0D496E76616C6964DE
S113099E2050616E204E756D626572202D206D752E
S11309AE737420636F6E7461696E204E756D62652B
S11309BE7273206F6E6C79000A0D496E76616C69E4
S11309CE642050616E204E756D626572202D206D0F
S11309DE75737420636F6E7461696E206174206C1C
S11309EE65617374203136206E756D6265727300A5
S11309FE31000A0D456E74657220796F7572205040
S1130A0E494E203A20000A0D436F6E6669726D20BE
S1130A1E596F75722050494E203A20000A0D5069C4
S1130A2E6E204E6F74204D617463686564000A0D08
S10F0A3E50696E204D61746368656400AB
S9030000FC
