:100000000C942A000C9447000C9447000C94470071
:100010000C9447000C9447000C9447000C94470044
:100020000C9447000C9447000C9447000C94470034
:100030000C944A000C9447000C9447000C94470021
:100040000C9447000C9447000C9447000C94470014
:100050000C94470011241FBECFE5D8E0DEBFCDBF12
:1000600010E0A0E6B0E0ECE2F1E002C005900D92F5
:10007000A036B107D9F720E0A0E6B0E001C01D929C
:10008000A637B207E1F70E9449000C9494000C9443
:100090000000FFCF1F920F920FB60F9211242F93E3
:1000A0003F938F939F93EF93FF938FB18093730050
:1000B000909171009F3011F410927100833259F0C9
:1000C00090917100E92FF0E0E05AFF4F80839F5F2D
:1000D0009093710004C080917100809374008091AE
:1000E000720090917500891790F420916F00309103
:1000F00070002115310559F0F901E80FF11D8081DB
:100100008FB9809172008F5F8093720002C083E28A
:100110008FB9FF91EF919F918F913F912F910F9008
:0C0120000FBE0F901F901895F894FFCFB1
:00000001FF
