:100000000C942A000C9447000C9447000C94470071
:100010000C9447000C9447000C9447000C94470044
:100020000C9447000C9447000C9447000C94470034
:100030000C9451030C9447000C9447000C94470017
:100040000C9447000C9447000C9447000C94470014
:100050000C94470011241FBECFE5D8E0DEBFCDBF12
:1000600011E0A0E6B0E0E4EDF7E002C005900D92EB
:10007000A235B107D9F721E0A2E5B1E001C01D9298
:10008000A339B207E1F70E944C020C94E8030C94E8
:1000900000000E9441020E94160278940895809107
:1000A00052018130B1F028F08230F9F0833079F1DB
:1000B000089580E590E00E94AB01809366018F3F38
:1000C00021F481E080935201089583E080935201EE
:1000D00008958CE791E00E94C90080936701813008
:1000E00069F582E08093520108950E9445018130B4
:1000F00051F468E671E08CE791E00E94F30083E040
:1001000080935201089582E08093520108952FE375
:1001100082E49FE0215080409040E1F700C0000061
:1001200068E671E08CE791E00E942B0165E088E6CB
:1001300091E00E94350284E08093520108950F936C
:100140001F93CF938C0165E00E944902C0E00CC070
:1001500080538A3010F4CF5F07C080E790E00E94A0
:10016000460291E080E008C0F801EC0FF11D8081AB
:100170008111EECF90E081E0C43038F4911105C0D8
:100180008EE790E00E94460280E0CF911F910F9190
:100190000895CF93DF93EC018CE890E00E94460233
:1001A00064E1CE010E94490290E00BC080538A3086
:1001B00010F49F5F06C081EA90E00E94460280E052
:1001C0000FC0FE01E90FF11D80818111EFCF903149
:1001D00030F482ED90E00E94460280E001C081E0B0
:1001E000DF91CF910895CF93DF93009771F161155F
:1001F000710569F1EB01BC018FE493EC0197F1F714
:1002000000C0000080E090E00E94C7018FE493EC02
:100210000197F1F700C00000BE0180E290E00E946B
:10022000C7018FE493EC0197F1F700C000006AE08A
:1002300071E080E590E00E94C7018FE493EC0197A4
:10024000F1F700C0000080E003C081E001C081E060
:10025000DF91CF910895CF93DF93009781F06115DF
:10026000710579F0EB01BC0180E090E00E94EF01A4
:10027000BE0180E290E00E94EF0182E003C083E0D3
:1002800001C083E0DF91CF9108951F93CF93DF9357
:10029000CDB7DEB72A970FB6F894DEBF0FBECDBF3D
:1002A0008CE091E00E94460288E691E00E949F0067
:1002B000182F8FE191E00E944602CE0101960E9424
:1002C0009F00113021F58130C9F080E021C0822FDC
:1002D00090E0FC01E859FE4F3081E1E0F0E0EC0FE6
:1002E000FD1FE80FF91F8081381731F084E391E09A
:1002F0000E94460280E00CC02F5F01C020E0253044
:1003000030F385E491E00E94460281E001C080E084
:100310002A960FB6F894DEBF0FBECDBFDF91CF9106
:100320001F9108951F93CF93DF93182FD62F9370AB
:10033000C92FC0650E94F0028C2F0E940403812FF8
:100340000E941E038D2F0E941E030E943403DF9122
:10035000CF911F910895CF93DF93D82F9370C92F1A
:10036000C0650E94F0028C2F0E9404038D2F0E9412
:100370001E030E94FA028C2F0E9413030E942D0379
:10038000C82F0E9434038C2FDF91CF910895CF9214
:10039000DF92EF92FF920F931F93CF936B01C0E018
:1003A00086010C0F111D7C012FEFE21AF20AF801F1
:1003B00060810E9492018FE493EC0197F1F700C0F5
:1003C0000000CF5FF8012081C7012111E9CFCF9153
:1003D0001F910F91FF90EF90DF90CF900895CF92F3
:1003E000DF92EF92FF920F931F93CF936B01C0E0C8
:1003F00086010C0F111D7C012FEFE21AF20A0E94F8
:10040000AB01F80180838FE493EC0197F1F700C012
:100410000000CF5F2081C7012111EACFCF911F914A
:100420000F91FF90EF90DF90CF90089560E08DE006
:100430000E94510260E08FE00E94510260E08CE077
:100440000E94510261E08CE00E94910261E08EE026
:100450000E94510261E088E00E9451020E94410323
:1004600061E08CE00E9491020895109265019093E2
:100470006301809362016093920188E00E94D1023F
:1004800008950E949C03811181E008950E94B103A8
:1004900008950E94C40308950E9449000E944F00DD
:1004A000FDCF8032C0F56230C0F5E82FE695E695C5
:1004B000E6958770611117C0F0E0EE0FFF1FE05A5C
:1004C000FF4F0190F081E02D408121E030E0B90143
:1004D00002C0660F771F8A95E2F7CB0180958423CF
:1004E000808380E008956130D1F4F0E0EE0FFF1FCB
:1004F000E05AFF4F0190F081E02D408121E030E093
:10050000B90102C0660F771F8A95E2F7CB01842BF1
:10051000808380E008958FEF08958FEF089580E045
:1005200008958032C0F56230C0F5E82FE695E69573
:10053000E6958770611117C0F0E0EE0FFF1FE859D4
:10054000FF4F0190F081E02D408121E030E0B901C2
:1005500002C0660F771F8A95E2F7CB01809584234E
:10056000808380E008956130D1F4F0E0EE0FFF1F4A
:10057000E859FF4F0190F081E02D408121E030E00B
:10058000B90102C0660F771F8A95E2F7CB01842B71
:10059000808380E008958FEF08958FEF089580E0C5
:1005A00008958032D8F4E82FE695E695E6958770B1
:1005B000F0E0EE0FFF1FE859FF4F0190F081E02DB2
:1005C000408121E030E0B90102C0660F771F8A95B3
:1005D000E2F7CB018427808380E008958FEF0895B0
:1005E00084EA86BF06B607FEFDCF81B1887F8830DA
:1005F000E1F7089584EA86BF06B607FEFDCF81B114
:10060000887F8031E1F70895880F83B983B18E7FA9
:1006100083B984E886BF06B607FEFDCF81B1887F27
:100620008831E1F70895880F83B983B1816083B978
:1006300084E886BF06B607FEFDCF089583B986B766
:10064000806886BF86B7846086BF06B607FEFDCF8A
:1006500081B1887F8832E1F7089584E886BF06B6C5
:1006600007FEFDCF83B1089586B7806886BF86B741
:10067000806186BF86B7846086BF06B604FCFDCF66
:1006800008958DB18F7E8DB98DB1877F8DB98DB174
:100690008B7F8DB98DB180688DB98DB180648DB936
:1006A00008951F920F920FB60F9211242F933F932C
:1006B0008F939F93EF93FF938FB1809390019091CD
:1006C00064019F3011F410926401833259F09091CB
:1006D0006401E92FF0E0ED5AFE4F80839F5F909315
:1006E000640104C08091640180939101809165014F
:1006F00090919201891788F42091620130916301F1
:100700002115310551F091E0980F90936501F901A1
:10071000E80FF11D80818FB904C0891710F083E2C2
:100720008FB9FF91EF919F918F913F912F910F90F2
:100730000FBE0F901F9018958AB18B7F9BB19D7F44
:100740009BB988618AB983E389B910BC80E00895B8
:100750005D9BFECF8CB980E008955F9BFECF8CB18E
:1007600008950F931F93CF938C01C0E003C00E94A4
:10077000A803CF5FF801EC0FF11D80818111F7CF45
:10078000CF911F910F9108950F931F93CF93DF93F4
:100790008C01D62FC0E00BC00E94AD03F801EC0F16
:1007A000F11D80838D3059F00E94A803CF5F2C2F5C
:1007B00030E08D2F90E00197281739076CF3F8018E
:1007C000EC0FF11D1082DF91CF911F910F910895D1
:0407D000F894FFCFCB
:1007D4003A003700340031003B0038003500320065
:1007E4000D4E6F74206E756D6572696320000D6225
:1007F400656C6F7720342064696720000D0A456EAC
:1008040074657220436172642050616E203A200D39
:10081400000D0A496E76616C69642050616E204E49
:10082400756D626572202D206D75737420636F6E13
:100834007461696E204E756D62657273206F6E6CA3
:1008440079000D0A496E76616C69642050616E20EE
:100854004E756D626572202D206D75737420636F03
:100864006E7461696E206174206C656173742031EB
:1008740036206E756D626572730031000D456E74BD
:10088400657220796F75722050494E203A20000D10
:10089400436F6E6669726D20596F75722050494EB0
:1008A400203A20000D50696E204E6F74204D617403
:1008B40063686564000D50696E204D6174636865FA
:0208C4006400CE
:00000001FF
