S0100000434152445F4D43552E73726563B6
S11300000C942A000C9447000C9447000C9447006D
S11300100C9447000C9447000C9447000C94470040
S11300200C9447000C9447000C9447000C94470030
S11300300C94D0030C9447000C9447000C94470094
S11300400C9447000C9447000C9447000C94470010
S11300500C94470011241FBECFE5D8E0DEBFCDBF0E
S113006011E0A0E6B0E0E2EDF8E002C005900D92E8
S1130070A43DB107D9F722E0A4EDB1E001C01D927F
S1130080A631B207E1F70E94BC020C9467040C94F9
S113009000000E94A2020E946E020E94E501789470
S11300A008958091D401823009F44AC028F4882349
S11300B051F08130C1F10895833009F453C0843084
S11300C009F463C0089580E590E00E9402028093E1
S11300D0E8018F3F21F481E08093D401089580E703
S11300E090E00E94B60289EE91E00E94AC02811178
S11300F0FACF8091E9010E94A7028DE00E94A70235
S11301008091E901813321F483E08093D40108953F
S1130110823321F481E08093D401089584EB90E04C
S11301200E94B60208958FEF91E00E940C01809323
S1130130EA01813009F045C082E08093D40108953A
S11301400E949401813051F46BEE71E08FEF91E0E5
S11301500E94360183E08093D401089582E0809365
S1130160D401089585EC90E00E94B60265E08BEE20
S113017091E00E948D026BEE71E08FEF91E00E949E
S11301806E0184E08093D401089580911302803538
S113019041F41092130265E08BEE91E00E94990203
S11301A00895873441F41092130264E18FEF91E0D3
S11301B00E9499020895853421F41092130210923A
S11301C0D40108950F931F93CF938C0165E00E948F
S11301D0B902C0E00CC080538A3010F4CF5F07C06E
S11301E08EEE90E00E94B60291E080E008C0F80133
S11301F0EC0FF11D80818111EECF90E081E0C430DD
S113020038F4911105C08CEF90E00E94B60280E0B2
S1130210CF911F910F910895CF93DF93EC018AE062
S113022091E00E94B60264E1CE010E94B90290E01E
S11302300BC080538A3010F49F5F06C08EE191E0BA
S11302400E94B60280E00FC0FE01E90FF11D80811B
S11302508111EFCF903130F48FE491E00E94B60227
S113026080E001C081E0DF91CF910895CF93DF93C7
S1130270009771F16115710569F1EB01BC018FE41F
S113028093EC0197F1F700C0000080E090E00E9439
S11302901F028FE493EC0197F1F700C00000BE0148
S11302A080E290E00E941F028FE493EC0197F1F743
S11302B000C0000067E871E080E590E00E941F0242
S11302C08FE493EC0197F1F700C0000080E003C0D5
S11302D081E001C081E0DF91CF910895CF93DF9356
S11302E00097E1F061157105D9F0EB01BC0180E0E4
S11302F090E00E9447028FE493EC0197F1F700C06D
S11303000000BE0180E290E00E9447028FE493EC7B
S11303100197F1F700C0000082E003C083E001C050
S113032083E0DF91CF9108951F93CF93DF93CDB7EF
S1130330DEB72A970FB6F894DEBF0FBECDBF89E8AB
S113034091E00E94B6028BEE91E00E94E200182F29
S1130350882371F18DE991E00E94B602CE010196E5
S11303600E94E200113031F58130C9F080E023C0F1
S1130370822F90E0FC01E551FE4F3081E1E0F0E096
S1130380EC0FFD1FE80FF91F8081381731F083EB64
S113039091E00E94B60280E00EC02F5F01C020E011
S11303A0253030F385EC91E00E94B60281E003C071
S11303B080E001C080E02A960FB6F894DEBF0FBE3D
S11303C0CDBFDF91CF911F9108950E9460030895DE
S11303D01F93CF93DF93D82F192FC62F0E946E033C
S11303E080E50E948203812F0E94A0038D2F0E942A
S11303F0A0038C2F0E94A0030E94B603DF91CF912B
S11304001F910895CF93DF93C82FD92F0E946E03B5
S113041080E50E9482038D2F0E94A0038C2F0E94EE
S1130420A0030E94780380E50E9491030E94AF0319
S1130430C82F0E94B6038C2FDF91CF910895CF92DD
S1130440DF92EF92FF920F931F93CF936B01C0E063
S113045086010C0F111D7C012FEFE21AF20AF8013C
S113046060810E94E8018FE493EC0197F1F700C0EA
S11304700000CF5FF8012081C7012111E9CFCF919E
S11304801F910F91FF90EF90DF90CF900895CF923E
S1130490DF92EF92FF920F931F93CF936B01C0E013
S11304A086010C0F111D7C012FEFE21AF20A0E9443
S11304B00202F80180838FE493EC0197F1F700C006
S11304C00000CF5F2081C7012111EACFCF911F9196
S11304D00F91FF90EF90DF90CF90089560E08DE052
S11304E00E94C10260E08FE00E94C10260E08CE0E3
S11304F00E94C10261E08CE00E94010361E08EE091
S11305000E94C10261E088E00E94C1020E94C0030F
S113051061E08CE00E94010308951092E70190933A
S1130520E5018093E4016093150288E00E94410391
S113053008951092E7019093E5018093E40160939C
S1130540150208950E941B04811181E008950E9400
S11305502704811181E00895CF93DF93EC010E9479
S11305602C04888380E0DF91CF9108950E943004A9
S113057008950E94430408950E9449000E94510076
S1130580FDCF8032C0F56230C0F5E82FE695E695E0
S1130590E6958770611117C0F0E0EE0FFF1FE05A77
S11305A0FF4F0190F081E02D408121E030E0B9015E
S11305B002C0660F771F8A95E2F7CB0180958423EA
S11305C0808380E008956130D1F4F0E0EE0FFF1FE6
S11305D0E05AFF4F0190F081E02D408121E030E0AE
S11305E0B90102C0660F771F8A95E2F7CB01842B0D
S11305F0808380E008958FEF08958FEF089580E061
S113060008958032C0F56230C0F5E82FE695E6958E
S1130610E6958770611117C0F0E0EE0FFF1FE859EF
S1130620FF4F0190F081E02D408121E030E0B901DD
S113063002C0660F771F8A95E2F7CB018095842369
S1130640808380E008956130D1F4F0E0EE0FFF1F65
S1130650E859FF4F0190F081E02D408121E030E026
S1130660B90102C0660F771F8A95E2F7CB01842B8C
S1130670808380E008958FEF08958FEF089580E0E0
S113068008958032D8F4E82FE695E695E6958770CC
S1130690F0E0EE0FFF1FE859FF4F0190F081E02DCD
S11306A0408121E030E0B90102C0660F771F8A95CE
S11306B0E2F7CB018427808380E008958FEF0895CB
S11306C081B18E7F81B981B18D7F81B982E080B99A
S11306D080EA82B986B7846086BF089584EA86BFBB
S11306E006B607FEFDCF81B1887F8830E1F7089513
S11306F084EA86BF06B607FEFDCF81B1887F8031CC
S1130700E1F70895880F83B983B18E7F83B984E8B4
S113071086BF06B607FEFDCF81B1887F8831E1F739
S11307200895880F83B983B1816083B984E886BF53
S113073006B607FEFDCF81B1887F8034E1F70895C6
S113074083B986B7806886BF86B7846086BF06B6DD
S113075007FEFDCF81B1887F8832E1F7089584E8F0
S113076086BF06B607FEFDCF83B1089586B78068BD
S113077086BF86B7806186BF86B7846086BF0895CA
S11307808DB18F7E8DB98DB1877F8DB98DB18B7F02
S11307908DB98DB180688DB98DB180648DB908959E
S11307A01F920F920FB60F9211242F933F938F93A2
S11307B09F93EF93FF938FB1809313029091E6017F
S11307C09F3011F41092E601833259F09091E601C2
S11307D0E92FF0E0EB52FE4F80839F5F9093E60198
S11307E004C08091E601809314028091E701909106
S11307F01502891788F42091E4013091E50121154F
S1130800310551F091E0980F9093E701F901E80F59
S1130810F11D80818FB904C0891710F083E28FB96C
S1130820FF91EF919F918F913F912F910F900FBE68
S11308300F901F9018958AB18B7F9BB19D7F9BB9B8
S113084088618AB983E389B910BC80E008955D9B0F
S1130850FECF8CB980E008955F9BFECF8CB10895E4
S11308600F931F93CF938C01C0E003C00E94270411
S1130870CF5FF801EC0FF11D80818111F7CFCF918B
S11308801F910F9108950F931F93CF93DF938C01C2
S1130890D62FC0E00BC00E942C04F801EC0FF11D10
S11308A080838D3059F00E942704CF5F2C2F30E0D5
S11308B08D2F90E00197281739076CF3F801EC0F9E
S11308C0F11D1082DF91CF911F910F910895F8943B
S10508D0FFCF54
S11308D23A003700340031003B0038003500320062
S11308E20A0D506C656173652070726573732031F3
S11308F220666F7220656E746572696E6720757307
S11309026572206D6F646520616E64203220666FAB
S1130912722070726F6772616D6D696E67206D6FA0
S113092264653A00496E76616C69642043686F6954
S113093263652C20000A0D2D2D2D2D2D2D2D2D2DF1
S11309422D2D2D2D2055736572204D6F6465202D3C
S11309522D2D2D2D2D2D2D2D2D2D2D2D0A000D4E10
S11309626F74206E756D6572696320000D62656C2B
S11309726F7720342064696720000A0D456E746520
S11309827220436172642050616E203A20000A0D85
S1130992496E76616C69642050616E204E756D6299
S11309A26572202D206D75737420636F6E74616996
S11309B26E204E756D62657273206F6E6C79000ADB
S11309C20D496E76616C69642050616E204E756DBE
S11309D2626572202D206D75737420636F6E74616D
S11309E2696E206174206C65617374203136206EE7
S11309F2756D626572730031000A0D456E7465721D
S1130A0220796F75722050494E203A20000A0D4316
S1130A126F6E6669726D20596F75722050494E204F
S1130A223A20000A0D50696E204E6F74204D617495
S1130A3263686564000A0D50696E204D61746368D1
S1070A4265640000E3
S9030000FC
