:100000000C942A000C9447000C9447000C94470071
:100010000C9447000C9447000C9447000C94470044
:100020000C9447000C9447000C9447000C94470034
:100030000C9457000C9447000C9447000C94470014
:100040000C9447000C9447000C9447000C94470014
:100050000C94470011241FBECFE5D8E0DEBFCDBF12
:1000600010E0A0E6B0E0E0E6F1E002C005900D92FD
:10007000A036B107D9F720E0A0E6B0E001C01D929C
:10008000A637B207E1F70E9452000C94AE000C9420
:1000900000000E944D00089508950E94A200811161
:1000A00081E008950E9449000E944C00FDCF1F92FC
:1000B0000F920FB60F9211242F933F938F939F931C
:1000C000EF93FF938FB180937300909171009F30F5
:1000D00011F410927100833259F090917100E92F60
:1000E000F0E0E05AFF4F80839F5F9093710004C05F
:1000F00080917100809374008091720090917500DE
:10010000891788F420916F00309170002115310516
:1001100051F091E0980F90937200F901E80FF11DF2
:1001200080818FB904C0891710F083E28FB9FF91E5
:10013000EF919F918F913F912F910F900FBE0F9054
:100140001F9018958AB18B7F9BB19D7F9BB9886169
:100150008AB983E389B910BC80E00895F894FFCF91
:00000001FF
