S0100000434152445F4D43552E73726563B6
S11300000C942A000C9447000C9447000C9447006D
S11300100C9447000C9447000C9447000C94470040
S11300200C9447000C9447000C9447000C94470030
S11300300C94BC030C9447000C9447000C944700A8
S11300400C9447000C9447000C9447000C94470010
S11300500C94470011241FBECFE5D8E0DEBFCDBF0E
S113006011E0A0E6B0E0EAEAF8E002C005900D92E3
S1130070AE3CB107D9F722E0AEECB1E001C01D926D
S1130080A031B207E1F70E94B7020C9453040C9418
S113009000000E949D020E94690278940895809154
S11300A0CE01823009F44AC028F4882351F081300B
S11300B0C1F10895833009F453C0843009F463C056
S11300C0089580E590E00E94FD018093E2018F3F56
S11300D021F481E08093CE01089580E790E00E94AE
S11300E0B10283EE91E00E94A7028111FACF8091C0
S11300F0E3010E94A2028DE00E94A2028091E3012A
S1130100813321F483E08093CE010895823321F476
S113011081E08093CE01089583EB90E00E94B102C8
S1130120089589EF91E00E940A018093E4018130EF
S113013009F045C082E08093CE0108950E949201A7
S1130140813051F465EE71E089EF91E00E94340151
S113015083E08093CE01089582E08093CE010895D8
S113016084EC90E00E94B10265E085EE91E00E948B
S1130170880265EE71E089EF91E00E946C0184E0F1
S11301808093CE01089580910D02803541F4109240
S11301900D0265E085EE91E00E9494020895873493
S11301A041F410920D0264E189EF91E00E949402FF
S11301B00895853421F410920D021092CE01089511
S11301C00F931F93CF938C0165E00E94B402C0E0AB
S11301D00CC080538A3010F4CF5F07C08CEE90E0DF
S11301E00E94B10291E080E008C0F801EC0FF11D1B
S11301F080818111EECF90E081E0C43038F4911118
S113020005C08AEF90E00E94B10280E0CF911F9177
S11302100F910895CF93DF93EC0188E091E00E9461
S1130220B10264E1CE010E94B40290E00BC080539D
S11302308A3010F49F5F06C08DE191E00E94B10204
S113024080E00FC0FE01E90FF11D80818111EFCF25
S1130250903130F48EE491E00E94B10280E001C05C
S113026081E0DF91CF910895CF93DF93009771F1EF
S11302706115710569F1EB01BC018FE493EC019701
S1130280F1F700C0000080E090E00E941A028FE4C1
S113029093EC0197F1F700C00000BE0180E290E00A
S11302A00E941A028FE493EC0197F1F700C000005A
S11302B066E871E080E590E00E941A028FE493EC16
S11302C00197F1F700C0000080E003C081E001C0A5
S11302D081E0DF91CF910895CF93DF930097E1F010
S11302E061157105D9F0EB01BC0180E090E00E943A
S11302F042028FE493EC0197F1F700C00000BE01C5
S113030080E290E00E9442028FE493EC0197F1F7BF
S113031000C0000082E003C083E001C083E0DF91FD
S1130320CF9108951F93CF93DF93CDB7DEB72A976C
S11303300FB6F894DEBF0FBECDBF88E891E00E94EF
S1130340B10285EE91E00E94E000182F882371F13C
S11303508BE991E00E94B102CE0101960E94E00077
S1130360113031F58130C9F080E023C0822F90E054
S1130370FC01EB51FE4F3081E1E0F0E0EC0FFD1F9A
S1130380E80FF91F8081381731F080EB91E00E946B
S1130390B10280E00EC02F5F01C020E0253030F3B1
S11303A081EC91E00E94B10281E003C080E001C0D1
S11303B080E02A960FB6F894DEBF0FBECDBFDF9162
S11303C0CF911F9108951F93CF93DF93D82F192FA7
S11303D0C62F0E945B0380E50E946F03812F0E9459
S11303E089038D2F0E9489038C2F0E9489030E9408
S11303F09F03DF91CF911F910895CF93DF93C82F6F
S1130400D92F0E945B0380E50E946F038D2F0E9409
S113041089038C2F0E9489030E94650380E50E9452
S11304207E030E949803C82F0E949F038C2FDF91A4
S1130430CF910895CF92DF92EF92FF920F931F9383
S1130440CF936B01C0E086010C0F111D7C012FEFCF
S1130450E21AF20AF80160810E94E3018FE493EC4E
S11304600197F1F700C00000CF5FF8012081C701B8
S11304702111E9CFCF911F910F91FF90EF90DF9061
S1130480CF900895CF92DF92EF92FF920F931F9334
S1130490CF936B01C0E086010C0F111D7C012FEF7F
S11304A0E21AF20A0E94FD01F80180838FE493ECC2
S11304B00197F1F700C00000CF5F2081C70121112F
S11304C0EACFCF911F910F91FF90EF90DF90CF90E3
S11304D0089560E08DE00E94BC0260E08FE00E941D
S11304E0BC0260E08CE00E94BC0261E08CE00E94EF
S11304F0FC0261E08EE00E94BC0261E088E00E94A0
S1130500BC020E94AC0361E08CE00E94FC020895EE
S11305101092E1019093DF018093DE0160930F025A
S113052088E00E943C0308951092E1019093DF015A
S11305308093DE0160930F0208950E9407048111E5
S113054081E008950E941304811181E00895CF93FE
S1130550DF93EC010E941804888380E0DF91CF913F
S113056008950E941C0408950E942F0408950E9477
S113057049000E944F00FDCF8032C0F56230C0F5C3
S1130580E82FE695E695E6958770611117C0F0E0CF
S1130590EE0FFF1FE05AFF4F0190F081E02D4081E4
S11305A021E030E0B90102C0660F771F8A95E2F7B7
S11305B0CB0180958423808380E008956130D1F459
S11305C0F0E0EE0FFF1FE05AFF4F0190F081E02DA5
S11305D0408121E030E0B90102C0660F771F8A959F
S11305E0E2F7CB01842B808380E008958FEF089598
S11305F08FEF089580E008958032C0F56230C0F531
S1130600E82FE695E695E6958770611117C0F0E04E
S1130610EE0FFF1FE859FF4F0190F081E02D40815C
S113062021E030E0B90102C0660F771F8A95E2F736
S1130630CB0180958423808380E008956130D1F4D8
S1130640F0E0EE0FFF1FE859FF4F0190F081E02D1D
S1130650408121E030E0B90102C0660F771F8A951E
S1130660E2F7CB01842B808380E008958FEF089517
S11306708FEF089580E008958032D8F4E82FE6954E
S1130680E695E6958770F0E0EE0FFF1FE859FF4FFF
S11306900190F081E02D408121E030E0B90102C0F9
S11306A0660F771F8A95E2F7CB018427808380E069
S11306B008958FEF089584EA86BF06B607FEFDCF3E
S11306C081B1887F8830E1F7089584EA86BF06B651
S11306D007FEFDCF81B1887F8031E1F70895880F4F
S11306E083B983B18E7F83B984E886BF06B607FEDB
S11306F0FDCF81B1887F8831E1F70895880F83B9F0
S113070083B1816083B984E886BF06B607FEFDCF56
S1130710089583B986B7806886BF86B7846086BF2C
S113072006B607FEFDCF81B1887F8832E1F70895D0
S113073084E886BF06B607FEFDCF83B1089586B769
S1130740806886BF86B7806186BF86B7846086BFAF
S113075006B604FCFDCF08958DB18F7E8DB98DB1A1
S1130760877F8DB98DB18B7F8DB98DB180688DB93F
S11307708DB180648DB908951F920F920FB60F92B8
S113078011242F933F938F939F93EF93FF938FB1F4
S113079080930D029091E0019F3011F41092E001DA
S11307A0833259F09091E001E92FF0E0E153FE4FDC
S11307B080839F5F9093E00104C08091E001809367
S11307C00E028091E10190910F02891788F4209123
S11307D0DE013091DF012115310551F091E0980FD0
S11307E09093E101F901E80FF11D80818FB904C0F4
S11307F0891710F083E28FB9FF91EF919F918F9148
S11308003F912F910F900FBE0F901F9018958AB1B2
S11308108B7F9BB19D7F9BB988618AB983E389B93A
S113082010BC80E008955D9BFECF8CB980E00895F4
S11308305F9BFECF8CB108950F931F93CF938C01D0
S1130840C0E003C00E941304CF5FF801EC0FF11D58
S113085080818111F7CFCF911F910F9108950F934C
S11308601F93CF93DF938C01D62FC0E00BC00E945F
S11308701804F801EC0FF11D80838D3059F00E94AB
S11308801304CF5F2C2F30E08D2F90E001972817B1
S113089039076CF3F801EC0FF11D1082DF91CF9151
S10D08A01F910F910895F894FFCF03
S11308AA3A003700340031003B003800350032008A
S11308BA506C6561736520707265737320312066AC
S11308CA6F7220656E746572696E672075736572DE
S11308DA206D6F64650D616E64203220666F72202C
S11308EA70726F6772616D6D696E67206D6F646592
S11308FA3A0D00496E76616C69642043686F6963D6
S113090A652C20000D2D2D2D2D2D2D2D2D2D2D2D2C
S113091A2D2D2055736572204D6F6465202D2D2D64
S113092A2D2D2D2D2D2D2D2D2D2D0D000D4E6F74AC
S113093A206E756D6572696320000D62656C6F7750
S113094A20342064696720000D0A456E746572209C
S113095A436172642050616E203A200D000D0A49E9
S113096A6E76616C69642050616E204E756D6265A5
S113097A72202D206D75737420636F6E7461696EB5
S113098A204E756D62657273206F6E6C79000D0A64
S113099A496E76616C69642050616E204E756D6291
S11309AA6572202D206D75737420636F6E7461698E
S11309BA6E206174206C65617374203136206E7503
S11309CA6D626572730031000D456E74657220792B
S11309DA6F75722050494E203A20000D436F6E669F
S11309EA69726D20596F75722050494E203A200061
S11309FA0D50696E204E6F74204D6174636865648E
S1110A0A000D50696E204D61746368656400D0
S9030000FC
