S0100000434152445F4D43552E73726563B6
S11300000C942A000C9447000C9447000C9447006D
S11300100C9447000C9447000C9447000C94470040
S11300200C9447000C9447000C9447000C94470030
S11300300C9493000C9447000C9447000C944700D4
S11300400C9447000C9447000C9447000C94470010
S11300500C94470011241FBECFE5D8E0DEBFCDBF0E
S113006011E0A0E6B0E0E6E5F2E002C005900D92F2
S1130070A032B107D9F721E0A0E2B1E001C01D929E
S1130080AE35B207E1F70E948E000C9429010C945E
S11300900000CF93DF93EC0184E990E00E94880094
S11300A064E1CE010E948B0090E00BC080538A3043
S11300B010F49F5F06C088EA90E00E94880080E008
S11300C013C0FE01E90FF11D80818111EFCF903142
S11300D030F489ED90E00E94880080E005C081E161
S11300E091E00E94880081E0DF91CF9108950E9401
S11300F08300089587E491E00E94490087E491E039
S11301000E94880008950E94DD00811181E0089515
S11301100E94F20008950E94050108950E9477004C
S11301200E947A00FDCF1F920F920FB60F921124F6
S11301302F933F938F939F93EF93FF938FB180936C
S11301405B01909131019F3011F41092310183329F
S113015059F090913101E92FF0E0E05EFE4F808389
S11301609F5F9093310104C08091310180935C01C1
S11301708091320190915D01891790F420912F01B3
S1130180309130012115310559F0F901E80FF11DC5
S113019080818FB9809132018F5F8093320102C0D8
S11301A083E28FB9FF91EF919F918F913F912F91AE
S11301B00F900FBE0F901F9018958AB18B7F9BB143
S11301C09D7F9BB988618AB983E389B910BC80E0BB
S11301D008955D9BFECF8CB980E008955F9BFECFB0
S11301E08CB108950F931F93CF938C01C0E003C08B
S11301F00E94E900CF5FF801EC0FF11D80818111AD
S1130200F7CFCF911F910F9108950F931F93CF9321
S1130210DF938C01D62FC0E00BC00E94EE00F801E2
S1130220EC0FF11D80838D3059F00E94E900CF5FFF
S11302302C2F30E08D2F90E00197281739076CF3AD
S1130240F801EC0FF11D1082DF91CF911F910F91F6
S10902500895F894FFCFAD
S1130256456E74657220796F75722050494E3A2046
S1130266004E6F74206E756D657269632000626559
S11302766C6F772034206469672000537563636567
S1130286656420000D0A456E7465722043617264CC
S11302962050616E203A20000D0A496E76616C6921
S11302A6642050616E204E756D626572202D206D3E
S11302B675737420636F6E7461696E204E756D621A
S11302C6657273206F6E6C79000D0A496E76616CE7
S11302D669642050616E204E756D626572202D2012
S11302E66D75737420636F6E7461696E206174201A
S11302F66C65617374203136206E756D6265727338
S1130306000D0A434F52524543542050414E0000BB
S9030000FC
