S0100000434152445F4D43552E73726563B6
S11300000C942A000C9447000C9447000C9447006D
S11300100C9447000C9447000C9447000C94470040
S11300200C9447000C9447000C9447000C94470030
S11300300C9477010C9447000C9447000C944700EF
S11300400C9447000C9447000C9447000C94470010
S11300500C94470011241FBECFE5D8E0DEBFCDBF0E
S113006010E0A0E6B0E0EAEBF3E002C005900D92E8
S1130070A037B107D9F720E0A0E7B0E001C01D9296
S1130080A638B207E1F70E947D000C94DB010C94C2
S1130090000060E08DE00E94CC0060E08FE00E94F0
S11300A0CC0060E08CE00E94CC0061E08CE00E9417
S11300B00C0161E08EE00E94CC0061E088E00E94C7
S11300C0CC000E946B0161E08CE00E940C01089559
S11300D010928200609385009093800080937F004B
S11300E0FC0180810E947501809182008F5F809362
S11300F0820088E00E944C010895CF93DF9300D0E2
S113010000D0CDB7DEB761E080E00E94950080E1C9
S113011089838A838B838C830E944900789464E06A
S1130120CE0101960E946800FFCF8430F8F462305B
S1130130F8F461110CC0E82FF0E0EE0FFF1FE05A55
S1130140FF4F0190F081E02D108280E0089561302E
S113015089F4E82FF0E0EE0FFF1FE05AFF4F019003
S1130160F081E02D8FEF808380E008958FEF089574
S11301708FEF089580E00895843060F4E82FF0E074
S1130180EE0FFF1FE859FF4F0190F081E02D6083CF
S113019080E008958FEF08958032C0F56230C0F595
S11301A0E82FE695E695E6958770611117C0F0E0B3
S11301B0EE0FFF1FE05AFF4F0190F081E02D4081C8
S11301C021E030E0B90102C0660F771F8A95E2F79B
S11301D0CB0180958423808380E008956130D1F43D
S11301E0F0E0EE0FFF1FE05AFF4F0190F081E02D89
S11301F0408121E030E0B90102C0660F771F8A9583
S1130200E2F7CB01842B808380E008958FEF08957B
S11302108FEF089580E008958032C0F56230C0F514
S1130220E82FE695E695E6958770611117C0F0E032
S1130230EE0FFF1FE859FF4F0190F081E02D408140
S113024021E030E0B90102C0660F771F8A95E2F71A
S1130250CB0180958423808380E008956130D1F4BC
S1130260F0E0EE0FFF1FE859FF4F0190F081E02D01
S1130270408121E030E0B90102C0660F771F8A9502
S1130280E2F7CB01842B808380E008958FEF0895FB
S11302908FEF089580E008958032D8F4E82FE69532
S11302A0E695E6958770F0E0EE0FFF1FE859FF4FE3
S11302B00190F081E02D408121E030E0B90102C0DD
S11302C0660F771F8A95E2F7CB018427808380E04D
S11302D008958FEF08958DB18F7E8DB98DB18068AB
S11302E08DB98DB180648DB908958FB908951F9229
S11302F00F920FB60F9211242F933F934F935F9356
S11303006F937F938F939F93AF93BF93EF93FF93D9
S11303108FB180938300909181009F3011F41092EB
S11303208100833259F090918100E92FF0E0E05987
S1130330FF4F80839F5F9093810004C08091810070
S113034080938400E0918200F0E0319780917F00F7
S113035090918000E80FF91F608180E00E94BC004A
S11303608091820090918500891790F420917F00FC
S1130370309180002115310559F0F901E80FF11D84
S113038080818FB9809182008F5F8093820002C048
S113039083E28FB9FF91EF91BF91AF919F918F91BC
S11303A07F916F915F914F913F912F910F900FBE6D
S10D03B00F901F901895F894FFCFEA
S11303BA3A003700340031003B003800350032007F
S9030000FC
