S0100000434152445F4D43552E73726563B6
S11300000C942A000C9447000C9447000C9447006D
S11300100C9447000C9447000C9447000C94470040
S11300200C9447000C9447000C9447000C94470030
S11300300C94CA030C9447000C9447000C9447009A
S11300400C9447000C9447000C9447000C94470010
S11300500C94470011241FBECFE5D8E0DEBFCDBF0E
S113006011E0A0E6B0E0E6ECF8E002C005900D92E5
S1130070A23DB107D9F722E0A2EDB1E001C01D9283
S1130080A431B207E1F70E94D8020C9461040C94E5
S113009000000E94BE020E947C020E94F10178943A
S11300A008958091D201823009F44EC028F4882347
S11300B051F08130E1F10895833009F457C0843060
S11300C009F46FC0089580E091E00E940E028093CD
S11300D0E6010E94C3028091E6018F3F21F481E092
S11300E08093D201089580E790E00E94D20287EEC7
S11300F091E00E94C8028111FACF8091E7010E9429
S1130100C3028DE00E94C3028091E701813321F490
S113011083E08093D2010895823321F481E08093B7
S1130120D201089582EB90E00E94D20208958DEFEF
S113013091E00E9418018093E801813009F04DC0DC
S113014082E08093D20108950E94A001813051F48D
S113015069EE71E08DEF91E00E94420183E08093AB
S1130160D201089582E08093D201089583EC90E057
S11301700E94D20265E089EE91E00E94AA0269EE33
S113018071E08DEF91E00E947A018DEF91E00E9481
S1130190D20289EE91E00E94D20284E08093D201DF
S11301A0089580911102803541F41092110265E0A6
S11301B089EE91E00E94B5020895873441F41092CB
S11301C0110264E18DEF91E00E94B5020895853437
S11301D021F4109211021092D20108950F931F93EB
S11301E0CF938C0165E00E94D502C0E00CC080531F
S11301F08A3010F4CF5F07C08CEE90E00E94D202E8
S113020091E080E008C0F801EC0FF11D80818111BC
S1130210EECF90E081E0C43038F4911105C08AEF4C
S113022090E00E94D20280E0CF911F910F91089537
S1130230CF93DF93EC0188E091E00E94D20264E165
S1130240CE010E94D50290E00BC080538A3010F496
S11302509F5F06C08CE191E00E94D20280E00FC053
S1130260FE01E90FF11D80818111EFCF903130F44F
S11302708DE491E00E94D20280E001C081E0DF9130
S1130280CF910895CF93DF93009771F161157105B4
S113029069F1EB01BC018FE493EC0197F1F700C025
S11302A0000080E490E00E942B028FE493EC01971D
S11302B0F1F700C00000BE0180E090E00E942B0234
S11302C08FE493EC0197F1F700C0000065E871E05A
S11302D080E091E00E942B028FE493EC0197F1F708
S11302E000C0000080E003C081E001C081E0DF9134
S11302F0CF910895CF93DF930097E1F061157105D5
S1130300D9F0EB01BC0180E090E00E9456028FE43A
S113031093EC0197F1F700C00000BE0180E290E089
S11303200E9456028FE493EC0197F1F700C000009D
S113033082E003C083E001C083E0DF91CF910895A0
S11303401F93CF93DF93CDB7DEB72A970FB6F894F8
S1130350DEBF0FBECDBF87E891E00E94D20289EED6
S113036091E00E94EE00182F882371F18BE991E04F
S11303700E94D202CE0101960E94EE00113031F5A6
S11303808130C9F080E023C0822F90E0FC01E75166
S1130390FE4F3081E1E0F0E0EC0FFD1FE80FF91FA4
S11303A08081381731F081EB91E00E94D20280E025
S11303B00EC02F5F01C020E0253030F383EC91E0C4
S11303C00E94D20281E003C080E001C080E02A964E
S11303D00FB6F894DEBF0FBECDBFDF91CF911F9152
S11303E008950E945D0308951F93CF93DF93D82F40
S11303F0192FC62F0E946B0380E50E947F03812F73
S11304000E949D038D2F0E949D038C2F0E949D03AB
S11304100E94AC03DF91CF911F910895CF93DF9396
S1130420C82FD92F0E946B0380E50E947F038D2F74
S11304300E949D038C2F0E949D030E94750380E5FA
S11304400E948E030E94AF03C82F0E94AC038C2F1E
S1130450DF91CF910895EF92FF920F931F93CF9363
S11304607B01C0E00EC0A3EDB0E31197F1F700C02B
S11304700000CF5F8C010F5F1F4F60810E94F40169
S1130480C801F701EC0FF11D20812111ECCFE3ED40
S1130490F0E33197F1F700C0000060E00E94F4013E
S11304A0CF911F910F91FF90EF900895CF92DF921B
S11304B0EF92FF920F931F93CF936B01C0E0E3ED94
S11304C0F0E33197F1F700C000007601EC0EF11C67
S11304D08C010F5F1F4F0E940E02282FF7018083AB
S11304E0CF5FC8012111EBCFCF911F910F91FF90E6
S11304F0EF90DF90CF90089560E08DE00E94DD02E0
S113050060E08FE00E94DD0260E08CE00E94DD028A
S113051061E08CE00E941D0361E08EE00E94DD0238
S113052061E088E00E94DD020E94BA0361E08CE091
S11305300E941D03089561E088E00E941D0383EC7E
S113054099E00197F1F700C0000060E088E00E94A4
S11305501D0308951092E5019093E3018093E20155
S1130560609313020E949B0208951092E5019093F8
S1130570E3018093E2016093130208950E9415043D
S1130580811181E008950E942104811181E0089580
S1130590CF93DF93EC010E942604888380E0DF91EF
S11305A0CF9108950E942A0408950E943D0408955D
S11305B00E9449000E945100FDCF8032C0F5623094
S11305C0C0F5E82FE695E695E6958770611117C0AA
S11305D0F0E0EE0FFF1FE05AFF4F0190F081E02D95
S11305E0408121E030E0B90102C0660F771F8A958F
S11305F0E2F7CB0180958423808380E00895613005
S1130600D1F4F0E0EE0FFF1FE05AFF4F0190F081AC
S1130610E02D408121E030E0B90102C0660F771F70
S11306208A95E2F7CB01842B808380E008958FEFD5
S113063008958FEF089580E008958032C0F5623008
S1130640C0F5E82FE695E695E6958770611117C029
S1130650F0E0EE0FFF1FE859FF4F0190F081E02D0D
S1130660408121E030E0B90102C0660F771F8A950E
S1130670E2F7CB0180958423808380E00895613084
S1130680D1F4F0E0EE0FFF1FE859FF4F0190F08125
S1130690E02D408121E030E0B90102C0660F771FF0
S11306A08A95E2F7CB01842B808380E008958FEF55
S11306B008958FEF089580E0089581B18E7F81B908
S11306C081B18D7F81B982E080B980EA82B986B731
S11306D0846086BF089584EA86BF06B607FEFDCF10
S11306E081B1887F8830E1F7089584EA86BF06B631
S11306F007FEFDCF81B1887F8031E1F70895880F2F
S113070083B983B18E7F83B984E886BF06B607FEBA
S1130710FDCF81B1887F8831E1F70895880F83B9CF
S113072083B1816083B984E886BF06B607FEFDCF36
S113073081B1887F8034E1F7089583B986B78068F2
S113074086BF86B7846086BF06B607FEFDCF81B13B
S1130750887F8832E1F7089584E986BF089586B7D3
S1130760806886BF86B7846086BF06B607FEFDCF65
S113077083B108958DB18F7E8DB98DB1877F8DB989
S11307808DB18B7F8DB98DB180688DB98DB1806449
S11307908DB908951F920F920FB60F9211242F93C3
S11307A03F938F939F93EF93FF938FB180931102A5
S11307B09091E4019F3011F41092E401833259F0D6
S11307C09091E401E92FF0E0ED52FE4F80839F5FAA
S11307D09093E40104C08091E4018093120280911B
S11307E0E50190911302891788F42091E201309178
S11307F0E3012115310551F091E0980F9093E50143
S1130800F901E80FF11D80818FB904C0891710F038
S113081083E28FB9FF91EF919F918F913F912F9137
S11308200F900FBE0F901F9018958AB18B7F9BB1CC
S11308309D7F9BB988618AB983E389B910BC80E044
S113084008955D9BFECF8CB980E008955F9BFECF39
S11308508CB108950F931F93CF938C01C0E003C014
S11308600E942104CF5FF801EC0FF11D80818111FA
S1130870F7CFCF911F910F9108950F931F93CF93AB
S1130880DF938C01D62FC0E00BC00E942604F80130
S1130890EC0FF11D80838D3059F00E942104CF5F4D
S11308A02C2F30E08D2F90E00197281739076CF337
S11308B0F801EC0FF11D1082DF91CF911F910F9180
S10908C00895F894FFCF37
S11308C63A003700340031003B003800350032006E
S11308D6506C656173652070726573732031206690
S11308E66F7220656E746572696E672075736572C2
S11308F6206D6F646520616E64203220666F7220FD
S113090670726F6772616D6D696E67206D6F646575
S11309163A00496E76616C69642043686F69636561
S11309262C20000A0D2D2D2D2D2D2D2D2D2D2D2D6B
S11309362D2D2055736572204D6F6465202D2D2D48
S11309462D2D2D2D2D2D2D2D2D2D0A000D4E6F7493
S1130956206E756D6572696320000D62656C6F7734
S113096620342064696720000A0D456E7465722080
S1130976436172642050616E203A20000A0D496E6C
S113098676616C69642050616E204E756D62657285
S1130996202D206D75737420636F6E7461696E20EB
S11309A64E756D62657273206F6E6C79000A0D491F
S11309B66E76616C69642050616E204E756D626559
S11309C672202D206D75737420636F6E7461696E69
S11309D6206174206C65617374203136206E756DE8
S11309E6626572730031000A0D456E746572207972
S11309F66F75722050494E203A20000A0D436F6EDF
S1130A066669726D20596F75722050494E203A20DE
S1130A16000A0D50696E204E6F74204D6174636830
S1130A266564000A0D50696E204D617463686564DF
S1050A360000BA
S9030000FC
