S00F000041544D5F4D43552E73726563EF
S11300000C942A000C9472020C949B020C94C4026B
S11300100C9447000C9447000C9447000C94470040
S11300200C9447000C9447000C9447000C94470030
S11300300C9425030C9447000C9447000C9447003F
S11300400C9447000C9447000C9447000C94470010
S11300500C94470011241FBECFE5D8E0DEBFCDBF0E
S113006010E0A0E6B0E0E0EAF6E002C005900D92F0
S1130070A037B107D9F720E0A0E7B0E001C01D9296
S1130080A838B207E1F70E94A5000C944E030C9423
S1130090000061E08DE00E94280161E08FE00E9491
S11300A0280161E08CE00E94280161E08CE00E945C
S11300B0680160E08EE00E94280163E08AE00E940B
S11300C0D2010E94ED020895CF93DF93009739F493
S11300D081E01DC04F5F5F4F6F4F7F4F03C040E013
S11300E050E0BA01403A26E8520721E06207710560
S11300F088F3EC0160E08CE00E946801BE0183E2B9
S11301000E94FF0261E08CE00E94680180E0DF91C0
S1130110CF9108950F931F93CF93C82F8A010E9404
S1130120D201811107C0B8018C2F0E94590281119C
S113013003C003C081E001C081E0CF911F910F9102
S1130140089581E080937F000895CF93DF931F92F9
S1130150CDB7DEB761E08CE10E94280161E08DE15A
S11301600E94280161E080E00E94F10041EA50E031
S113017063E080E00E948A000E94490078948091A4
S11301807F008823E1F310927F008CE10E94A80194
S1130190CE0101960E946400698180E00E941801EA
S11301A0CE0101960E946400698180E00E941801DA
S11301B0CE0101960E946400698180E00E941801CA
S11301C080917000813621F461E08CE10E94680125
S11301D080917100823699F661E08DE10E94680198
S11301E0CECF8430F8F46230F8F461110CC0E82FFB
S11301F0F0E0EE0FFF1FE05AFF4F0190F081E02D79
S1130200108280E00895613089F4E82FF0E0EE0F69
S1130210FF1FE05AFF4F0190F081E02D8FEF8083A4
S113022080E008958FEF08958FEF089580E008959A
S1130230843060F4E82FF0E0EE0FFF1FE859FF4F21
S11302400190F081E02D608380E008958FEF0895A0
S11302508032C0F56230C0F5E82FE695E695E69564
S11302608770611117C0F0E0EE0FFF1FE05AFF4FD7
S11302700190F081E02D408121E030E0B90102C01D
S1130280660F771F8A95E2F7CB01809584238083DC
S113029080E008956130D1F4F0E0EE0FFF1FE05AE2
S11302A0FF4F0190F081E02D408121E030E0B90161
S11302B002C0660F771F8A95E2F7CB01842B8083F7
S11302C080E008958FEF08958FEF089580E00895FA
S11302D08032C0F56230C0F5E82FE695E695E695E4
S11302E08770611117C0F0E0EE0FFF1FE859FF4F50
S11302F00190F081E02D408121E030E0B90102C09D
S1130300660F771F8A95E2F7CB018095842380835B
S113031080E008956130D1F4F0E0EE0FFF1FE8595A
S1130320FF4F0190F081E02D408121E030E0B901E0
S113033002C0660F771F8A95E2F7CB01842B808376
S113034080E008958FEF08958FEF089580E0089579
S11303508032D8F4E82FE695E695E6958770F0E0CC
S1130360EE0FFF1FE859FF4F0190F081E02D40810F
S113037021E030E0B90102C0660F771F8A95E2F7E9
S1130380CB018427808380E008958FEF0895813026
S113039019F4789480E00895811102C0F8940895C6
S11303A081E00895CF93DF93C82FD62F81E00E9478
S11303B0C701C13099F120F0C23009F45DC072C0A8
S11303C0D11107C085B78E7F85BF85B78D7F85BF67
S11303D020C0D13039F485B78E7F85BF85B7826060
S11303E085BF17C0D23039F485B7816085BF85B722
S11303F0826085BF0EC0D33039F485B7816085BF74
S113040085B78D7F85BF05C080E00E94C70181E06C
S11304104DC08BB780648BBF80E048C0D11107C04A
S113042085B78B7F85BF85B7877F85BF20C0D130D7
S113043039F485B78B7F85BF85B7886085BF17C0C2
S1130440D23039F485B7846085BF85B7886085BFAD
S11304500EC0D33039F485B7846085BF85B7877FF4
S113046085BF05C080E00E94C70181E01FC08BB733
S113047080688BBF80E01AC0D13021F484B78F7BB1
S113048084BF0BC0D23021F484B7806484BF05C01C
S113049080E00E94C70181E009C08BB780628BBFF6
S11304A080E004C080E00E94C70181E0DF91CF9129
S11304B00895811105C070938500609384000895A8
S11304C0813031F4709383006093820080E008955A
S11304D0823031F4709381006093800080E008954D
S11304E081E008951F920F920FB60F9211242F935B
S11304F03F934F935F936F937F938F939F93AF93A8
S1130500BF93EF93FF93E0918400F09185003097BF
S113051009F00995FF91EF91BF91AF919F918F9150
S11305207F916F915F914F913F912F910F900FBEEB
S11305300F901F9018951F920F920FB60F921124CF
S11305402F933F934F935F936F937F938F939F93D7
S1130550AF93BF93EF93FF93E0918200F0918300F8
S1130560309709F00995FF91EF91BF91AF919F9159
S11305708F917F916F915F914F913F912F910F9048
S11305800FBE0F901F9018951F920F920FB60F92E7
S113059011242F933F934F935F936F937F938F9384
S11305A09F93AF93BF93EF93FF93E0918000F091FB
S11305B08100309709F00995FF91EF91BF91AF91B8
S11305C09F918F917F916F915F914F913F912F9167
S11305D00F900FBE0F901F9018958DB180618DB94B
S11305E08DB19EB18E7F9C7F9EB98DB98DB19EB128
S11305F081609EB98DB98DB180648DB908956115FE
S1130600710509F18FB980E090E0DC0103C0019627
S1130610A11DB11D779907C0803A26E8920721E011
S1130620A207B105A0F3803A9648A140B10531F480
S113063061E08CE10E94680181E008958FB1FB01C3
S1130640808380E0089581E008951F920F920FB691
S11306500F9211242F933F934F935F936F937F9344
S11306608F939F93AF93BF93EF93FF93E091860093
S1130670F0918700309709F00995FF91EF91BF91B0
S1130680AF919F918F917F916F915F914F913F9126
S11306902F910F900FBE0F901F901895F894FFCFD5
S11306A03A003700340031003B0038003500320096
S9030000FC
