S00F000041544D5F4D43552E73726563EF
S11300000C942A000C94B7050C94E0050C94090692
S11300100C9447000C945D070C9447000C94470023
S11300200C9447000C9447000C9447000C94CE06A3
S11300300C9432060C9447000C9447000C9447002F
S11300400C9447000C9447000C9447000C94470010
S11300500C94470011241FBECFE5D8E0DEBFCDBF0E
S113006010E0A0E6B0E0EEEDF1E102C005900D92E3
S1130070A23DB107D9F721E0A2EDB0E001C01D9285
S1130080A130B207E1F70E9468040C94ED080C94C7
S113009000001092600008958091D3008F5F8093D8
S11300A0D30008958AE00E94DF000E94BC010E94F0
S11300B093018CE490E00E949D010E94760349E440
S11300C050E063E080E00E94A50108958091600003
S11300D0882319F0813041F0089584ED90E00E9466
S11300E09A001092D20008958091D200811105C027
S11300F00E947E0081E08093D20008950E9429042A
S113010060E080E00E943C0486E890E00E94500495
S113011042E061E070E080E090E00E94ED000E9427
S1130120290460E080E00E943C0485E990E00E949C
S113013050040895EF92FF920F931F93CF93DF9390
S11301407C010E94290460E080E00E943C0486EA6D
S113015090E00E945004D0E010E019C00E94070310
S1130160C82F8823A1F099F001E0010F612F81E0ED
S11301700E943C04D701AD0FB11DEC2FF0E0E05A12
S1130180FF4F80818C930E94C503DF5F102FD43012
S113019028F3D43060F40E94290460E081E00E94D6
S11301A03C0485EB90E00E94500484E001C083E0AD
S11301B0DF91CF911F910F91FF90EF900895CF930E
S11301C0803240F4C82F60E00E946D0461E08C2FFF
S11301D00E94AD0481E0CF9108958F929F92AF92D7
S11301E0BF92CF92DF92EF92FF920F931F93CF9320
S11301F0DF9300D0CDB7DEB76B017C01423059F4F8
S11302009B01AC0160E472E48FE090E00E94C308BB
S11302106B017C010DC0413049F4A8EEB3E09B01B1
S1130220AC010E94D3086B017C0102C041116BC078
S113023088E8C81683E1D806E104F104C8F088EA26
S1130240C81681E6D806E104F104A0F088E4C816D3
S113025088EED80681E0E806F10470F080E2C81662
S113026081EAD80687E0E806F10440F414E007C008
S113027011E005C012E003C013E001C015E0E12F56
S1130280F0E03197EE0FFF1FE853FF4F608171815B
S113029076956795769567957695679580E090E075
S11302A00E9435084B015C01C701B6010E94350864
S11302B0A50194010E9494070E940608F62E072FB8
S11302C080E00E947D068F2D81950E94AE06812FCD
S11302D00E94960610E011C0CE0101960E94B0065D
S11302E0CE0102960E94BE068981811103C08A81D3
S11302F08111F2CF0E94BA061F5F011768F70E94AE
S1130300A40680E001C081E00F900F90DF91CF91AF
S11303101F910F91FF90EF90DF90CF90BF90AF901F
S11303209F908F90089580E00E940C0784E00E94C3
S11303303A070E944E0780E00895009721F00E943A
S1130340560780E0089581E008950F931F93CF939B
S1130350C82F8A010E941705811107C0B8018C2F8C
S11303600E949E05811103C003C081E001C081E0A9
S1130370CF911F910F91089561E082E10E946D0475
S113038061E083E10E946D0461E084E10E946D04F8
S113039060E085E10E946D0460E086E10E946D04E6
S11303A060E087E10E946D040895CF93DF931F926C
S11303B0CDB7DEB761E085E10E94AD0461E086E17E
S11303C00E94AD0461E087E10E94AD0461E083E135
S11303D00E94AD0461E084E10E94AD0460E082E12A
S11303E00E94AD0481E08983BE016F5F7F4F85E188
S11303F00E94ED048981882339F00BC0BE016F5F30
S11304007F4F85E10E94ED0489818823B9F381E05F
S11304102EC081E08983BE016F5F7F4F86E10E9419
S1130420ED048981882339F00BC0BE016F5F7F4FD3
S113043086E10E94ED0489818823B9F382E017C024
S113044081E08983BE016F5F7F4F87E10E94ED04E5
S11304508981882341F080E00AC0BE016F5F7F4F2D
S113046087E10E94ED0489818823B9F383E00F902A
S1130470DF91CF910895CF93DF931F92CDB7DEB76D
S113048061E085E10E94AD0461E086E10E94AD0473
S113049061E087E10E94AD0461E082E10E94AD0465
S11304A061E084E10E94AD0460E083E10E94AD0458
S11304B081E08983BE016F5F7F4F85E10E94ED0477
S11304C08981882339F00BC0BE016F5F7F4F85E1BE
S11304D00E94ED0489818823B9F384E02EC081E071
S11304E08983BE016F5F7F4F86E10E94ED0489819D
S11304F0882339F00BC0BE016F5F7F4F86E10E94F5
S1130500ED0489818823B9F385E017C081E08983EC
S1130510BE016F5F7F4F87E10E94ED0489818823CC
S113052041F080E00AC0BE016F5F7F4F87E10E9407
S1130530ED0489818823B9F386E00F90DF91CF9190
S11305400895CF93DF931F92CDB7DEB761E085E1C5
S11305500E94AD0461E086E10E94AD0461E087E1A0
S11305600E94AD0461E082E10E94AD0461E083E198
S11305700E94AD0460E084E10E94AD0481E08983BF
S1130580BE016F5F7F4F85E10E94ED04898188235E
S113059039F00BC0BE016F5F7F4F85E10E94ED040F
S11305A089818823B9F387E02EC081E08983BE0165
S11305B06F5F7F4F86E10E94ED048981882339F0C3
S11305C00BC0BE016F5F7F4F86E10E94ED048981FD
S11305D08823B9F388E017C081E08983BE016F5F87
S11305E07F4F87E10E94ED048981882341F080E0F8
S11305F00AC0BE016F5F7F4F87E10E94ED048981CD
S11306008823B9F389E00F90DF91CF9108950E9478
S1130610D501811106C00E943B02811102C00E94D3
S1130620A10208951F93CF93DF93D82F60E082E057
S11306300E94AD0460E081E00E94AD041D2F12957C
S11306401F70C0E011C0EC2FF0E0612F70E00C2EA1
S113065002C0759567950A94E2F76170E659FF4FF9
S113066080810E94AD04CF5FC43068F361E083E011
S11306700E94AD0489EF90E00197F1F700C00000FB
S113068060E083E00E94AD0492E49A95F1F700C023
S1130690DF70C0E011C0EC2FF0E06D2F70E00C2E85
S11306A002C0759567950A94E2F76170E659FF4FA9
S11306B080810E94AD04CF5FC43068F361E083E0C1
S11306C00E94AD0489EF90E00197F1F700C00000AB
S11306D060E083E00E94AD0483EF91E00197F1F7BD
S11306E000C00000DF91CF911F910895CF93C0E027
S11306F009C0EC2FF0E0E659FF4F61E080810E94D1
S11307006D04CF5FC430A8F361E081E00E946D0402
S113071061E082E00E946D0461E083E00E946D0468
S11307208FE097E20197F1F700C0000082E00E9499
S1130730120389EF90E00197F1F700C0000088E20E
S11307400E94120389EF90E00197F1F700C00000C6
S113075081E00E94120387EE93E00197F1F700C055
S1130760000086E00E94120389EF90E00197F1F700
S113077000C000008EE00E94120389EF90E0019710
S1130780F1F700C00000CF9108951F93CF93DF933A
S1130790D82F60E082E00E94AD0461E081E00E9415
S11307A0AD041D2F12951F70C0E011C0EC2FF0E0B6
S11307B0612F70E00C2E02C0759567950A94E2F7DC
S11307C06170E659FF4F80810E94AD04CF5FC43051
S11307D068F361E083E00E94AD0489EF90E0019743
S11307E0F1F700C0000060E083E00E94AD0492E4F1
S11307F09A95F1F700C0DF70C0E011C0EC2FF0E073
S11308006D2F70E00C2E02C0759567950A94E2F77F
S11308106170E659FF4F80810E94AD04CF5FC43000
S113082068F361E083E00E94AD0489EF90E00197F2
S1130830F1F700C0000060E083E00E94AD0483EFA4
S113084091E00197F1F700C00000DF91CF911F9173
S1130850089581E00E94120387EE93E00197F1F777
S113086000C0000082E00E94120387EE93E001972B
S1130870F1F700C000000895811108C0603130F420
S1130880862F8F7080680E9412030895813039F496
S1130890603128F4862F8F70806C0E9412030895B3
S11308A00F931F93CF93DF938C01FC018081C0E0F1
S11308B0D0E007C00E94C5032196F801EC0FFD1F8C
S11308C080818111F7CFDF91CF911F910F9108950E
S11308D00E9452000E946600FDCF8032C0F5623053
S11308E0C0F5E82FE695E695E6958770611117C087
S11308F0F0E0EE0FFF1FEA58FF4F0190F081E02D6A
S1130900408121E030E0B90102C0660F771F8A956B
S1130910E2F7CB0180958423808380E008956130E1
S1130920D1F4F0E0EE0FFF1FEA58FF4F0190F08181
S1130930E02D408121E030E0B90102C0660F771F4D
S11309408A95E2F7CB01842B808380E008958FEFB2
S113095008958FEF089580E008958032C0F56230E5
S1130960C0F5E82FE695E695E6958770611117C006
S1130970F0E0EE0FFF1FE258FF4F0190F081E02DF1
S1130980408121E030E0B90102C0660F771F8A95EB
S1130990E2F7CB0180958423808380E00895613061
S11309A0D1F4F0E0EE0FFF1FE258FF4F0190F08109
S11309B0E02D408121E030E0B90102C0660F771FCD
S11309C08A95E2F7CB01842B808380E008958FEF32
S11309D008958FEF089580E008958032D8F4E82FC9
S11309E0E695E695E6958770F0E0EE0FFF1FE25975
S11309F0FF4F0190F081E02D208130E0A90102C079
S1130A00559547958A95E2F7CA018170FB01808369
S1130A1080E008958FEF0895813019F4789480E090
S1130A200895811102C0F894089581E00895CF9348
S1130A30DF93C82FD62F81E00E940C05C13099F1B5
S1130A4020F0C23009F45DC072C0D11107C085B76F
S1130A508E7F85BF85B78D7F85BF20C0D13039F4A7
S1130A6085B78E7F85BF85B7826085BF17C0D230BA
S1130A7039F485B7816085BF85B7826085BF0EC0B4
S1130A80D33039F485B7816085BF85B78D7F85BF45
S1130A9005C080E00E940C0581E04DC08BB78064E6
S1130AA08BBF80E048C0D11107C085B78B7F85BF5D
S1130AB085B7877F85BF20C0D13039F485B78B7F58
S1130AC085BF85B7886085BF17C0D23039F485B734
S1130AD0846085BF85B7886085BF0EC0D33039F484
S1130AE085B7846085BF85B7877F85BF05C080E0F3
S1130AF00E940C0581E01FC08BB780688BBF80E02B
S1130B001AC0D13021F484B78F7B84BF0BC0D2309C
S1130B1021F484B7806484BF05C080E00E940C0582
S1130B2081E009C08BB780628BBF80E004C080E0A5
S1130B300E940C0581E0DF91CF910895811105C0D9
S1130B407093DE006093DD000895813031F470937A
S1130B50DC006093DB0080E00895823031F4709310
S1130B60DA006093D90080E0089581E008951F922F
S1130B700F920FB60F9211242F933F934F935F93CD
S1130B806F937F938F939F93AF93BF93EF93FF9351
S1130B90E091DD00F091DE00309709F00995FF91B6
S1130BA0EF91BF91AF919F918F917F916F915F91E1
S1130BB04F913F912F910F900FBE0F901F9018955A
S1130BC01F920F920FB60F9211242F933F934F93BE
S1130BD05F936F937F938F939F93AF93BF93EF93A1
S1130BE0FF93E091DB00F091DC00309709F0099568
S1130BF0FF91EF91BF91AF919F918F917F916F91F1
S1130C005F914F913F912F910F900FBE0F901F90C6
S1130C1018951F920F920FB60F9211242F933F93A2
S1130C204F935F936F937F938F939F93AF93BF93F0
S1130C30EF93FF93E091D900F091DA00309709F037
S1130C400995FF91EF91BF91AF919F918F917F9102
S1130C506F915F914F913F912F910F900FBE0F9025
S1130C601F9018951F920F920FB60F9211242F9375
S1130C703F938F939F93EF93FF938FB18093FE00E5
S1130C809091F0009F3011F41092F000833259F0EB
S1130C909091F000E92FF0E0E152FF4F80839F5FD5
S1130CA09093F00004C08091F0008093FF00809145
S1130CB0F10090910001891788F42091EE003091A1
S1130CC0EF002115310551F091E0980F9093F10058
S1130CD0F901E80FF11D80818FB904C0891710F064
S1130CE083E28FB9FF91EF919F918F913F912F9163
S1130CF00F900FBE0F901F901895813061F028F06F
S1130D00823029F0833029F00FC020E005C028E0AC
S1130D1003C028E401C020E493B7977B93BF83B753
S1130D20822B83BF80E0089581E008959FEF980FA0
S1130D30973040F493B7987F93BF93B7892B83BFC1
S1130D4080E0089581E0089583B7887F83BF12BE51
S1130D5088B78E7F88BF1092F400089582BF0895EB
S1130D60FC01892B29F098B79170908380E0089555
S1130D7081E0089588B7816088BF0895009761F085
S1130D8003B600FE05C021E0FC01208380E0089545
S1130D90FC01108280E0089581E008951F920F9273
S1130DA00FB60F9211242F933F934F935F936F933A
S1130DB07F938F939F93AF93BF93EF93FF93809110
S1130DC0F2009091F300892BB1F08091F40090919E
S1130DD0F50089130DC00E94A4061092F40089B78F
S1130DE08E7F89BFE091F200F091F300099503C072
S1130DF08F5F8093F400FF91EF91BF91AF919F912A
S1130E008F917F916F915F914F913F912F910F90AF
S1130E100FBE0F901F901895843040F5813071F00B
S1130E2028F0823099F08330C9F022C085B5877FDD
S1130E3085BD85B58F7B85BD80E0089585B5877FA9
S1130E4085BD85B5806485BD80E0089585B58860DD
S1130E5085BD85B58F7B85BD80E0089585B58860A7
S1130E6085BD85B5806485BD80E0089581E00895E1
S1130E7081E00895883070F48093FD009091FC0027
S1130E80913051F495B5987F892B95B5892B85BD03
S1130E9080E0089581E0089580E0089589B7806432
S1130EA089BF8FB780688FBF80E00895009721F0D5
S1130EB09093F8008093F70008951F920F920FB655
S1130EC00F9211242F933F934F935F936F937F93CC
S1130ED08F939F93AF93BF93EF93FF938091F6000B
S1130EE08F5F8093F6009091FB0089130CC0E09112
S1130EF0F700F091F800309731F01092F600099560
S1130F008091F90084BDFF91EF91BF91AF919F91C2
S1130F108F917F916F915F914F913F912F910F909E
S1130F200FBE0F901F9018950E94A8070C94890873
S1130F300E94820858F00E947B0840F029F45F3F29
S1130F4029F00C94720851110C94BD080C94780883
S1130F500E949A0868F39923B1F3552391F3951BE2
S1130F60550BBB27AA2762177307840738F09F5FC6
S1130F705F4F220F331F441FAA1FA9F335D00E2E33
S1130F803AF0E0E832D091505040E695001CCAF7A0
S1130F902BD0FE2F29D0660F771F881FBB1F261763
S1130FA037074807AB07B0E809F0BB0B802DBF013A
S1130FB0FF2793585F4F3AF09E3F510578F00C9409
S1130FC072080C94BD085F3FE4F3983ED4F3869511
S1130FD077956795B795F7959F5FC9F7880F911D2A
S1130FE09695879597F90895E1E0660F771F881F16
S1130FF0BB1F621773078407BA0720F0621B730BC9
S1131000840BBA0BEE1F88F7E09508950E94A2089E
S113101088F09F5798F0B92F9927B751B0F0E1F0B5
S1131020660F771F881F991F1AF0BA95C9F714C065
S1131030B13091F00E94BC08B1E008950C94BC0852
S1131040672F782F8827B85F39F0B93FCCF386959E
S113105077956795B395D9F73EF4909580957095FB
S113106061957F4F8F4F9F4F0895E89409C097FB78
S11310703EF490958095709561957F4F8F4F9F4F6B
S11310809923A9F0F92F96E9BB279395F6958795AF
S113109077956795B795F111F8CFFAF4BB0F11F472
S11310A060FF1BC06F5F7F4F8F4F9F4F16C0882319
S11310B011F096E911C0772321F09EE8872F762F4F
S11310C005C0662371F096E8862F70E060E02AF090
S11310D09A95660F771F881FDAF7880F969587957C
S11310E097F9089597F99F6780E870E060E00895A4
S11310F09FEF80EC089500240A941616170618062C
S11311000906089500240A94121613061406050607
S11311100895092E0394000C11F4882352F0BB0F98
S113112040F4BF2B11F460FF04C06F5F7F4F8F4FFB
S11311309F4F089557FD9058440F551F59F05F3F36
S113114071F04795880F97FB991F61F09F3F79F0E5
S113115087950895121613061406551FF2CF469567
S1131160F1DF08C0161617061806991FF1CF8695E9
S11311707105610508940895E894BB2766277727CD
S1131180CB0197F90895DB018F939F930E94D308B5
S1131190BF91AF91A29F800D911DA39F900DB29F0F
S11311A0900D112408950E94DE08A59F900DB49F10
S11311B0900DA49F800D911D11240895A29FB0014C
S11311C0B39FC001A39F700D811D1124911DB29F77
S11111D0700D811D1124911D0895F894FFCF18
S11311DE01313233343536373839040506073900D0
S11311EE3600330030003A003700340031003B0043
S11311FE38003500320057656C636F6D6520546F8F
S113120E2041746D00496E7365727420596F757246
S113121E204361726400456E74657220596F757255
S113122E2070696E004552524F5200454E5445523D
S113123E20616D6F756E7400010008004000090195
S105124E000496
S9030000FC
