S00F000041544D5F4D43552E73726563EF
S11300000C942A000C9487070C94B0070C94D9071D
S11300100C9447000C9481090C9447000C944700FD
S11300200C9447000C9447000C9447000C94DC0893
S11300300C9440080C9447000C9447000C9447001F
S11300400C9447000C9447000C9447000C94470010
S11300500C94470011241FBECFE5D8E0DEBFCDBF0E
S113006010E0A0E6B0E0E2E1F7E102C005900D92F5
S1130070AE3FB107D9F721E0AEEFB0E001C01D9269
S1130080AC36B207E1F70E9438060C94870B0C9447
S11300900000109260000895809100018F5F8093AA
S11300A0000108950E948C030E9400038CE490E0F8
S11300B00E940A030E9446050E94F10149E450E0AF
S11300C063E080E00E9412030E94360389E690E018
S11300D00E94D901089580916000882319F081302D
S11300E059F108951092FF0081E091E00E94C2004E
S11300F0843059F10E94B601811105C081E690E077
S11301000E94550108958091FE008F5F8093FE0048
S11301108330D9F40E94F90564E080E00E940C0663
S11301208FE890E00E94200689E690E00E94B201E8
S113013082E08093600008958091FF00811105C0E2
S11301400E94A60081E08093FF0008950E94F905B3
S113015060E080E00E940C0686E990E00E942006A0
S113016042E061E070E080E090E00E945A020E9468
S1130170F90560E080E00E940C0685EA90E00E94A8
S1130180200608950F931F93CF938C010E94F905C5
S113019060E080E00E940C0686EB90E00E9420065E
S11301A060E081E00E940C06C0E02CC00E94D704ED
S11301B081110FC080916801813021F5109268018E
S11301C0F801EC0FF11D80E380830E949505CF5F59
S11301D019C08823B9F090916301911111C0209145
S11301E0680121110DC0D801AC0FB11DE82FF0E05A
S11301F0E759FF4F80818C930E949505CF5F02C021
S1130200913031F0C43020F480916301882371F27D
S113021010926301C430A8F40E94F90560E081E003
S11302200E940C0685EC90E00E9420062FE38DE0EE
S113023093E0215080409040E1F700C0000084E04A
S113024001C083E0CF911F910F910895009749F168
S11302506115710541F10E947E0B892B89F40E947E
S1130260F9058BEC90E00E9420062FE382E49FE0E6
S1130270215080409040E1F700C0000080E00895E4
S11302800E94F90587ED90E00E9420062FE382E4A6
S11302909FE0215080409040E1F700C0000081E0E1
S11302A0089582E0089582E00895DF92EF92FF922C
S11302B00F931F93CF93DF937C0160E080E00E9453
S11302C00C0687EE90E00E94200660E081E00E9428
S11302D00C06C7010E942006D12C39C00E94D70405
S11302E0D82F8823A1F1C0E020C0C33079F487015E
S11302F00C0F111DF801828180836C2F81E00E9414
S11303000C06F80180810E949505C5E087010C0F59
S1130310111DF801818180836C2F81E00E940C06FD
S1130320F80180810E949505CF5FC630F0F2ED2F71
S1130330F0E0E759FF4F8081F701868366E081E0B2
S11303400E940C06F70186810E949505D394F5E07E
S1130350FD1520F6DF91CF911F910F91FF90EF9043
S1130360DF90089561E00E94E701089580E50E940E
S11303700C0281EE94E00197F1F700C0000065E003
S113038081E391E00E94260287E40E940C0281EE40
S113039094E00197F1F700C0000064E18FE491E07C
S11303A00E94260261E071E081E391E00E9426014F
S11303B00895CF93DF93EC0161E088810E943D06AC
S11303C060E088810E947D06DF91CF9108950097B7
S11303D031F0FC0180810E947D0680E0089581E077
S11303E0089561E08DE00E943D0661E08FE00E9487
S11303F03D0661E08CE00E943D0661E08CE00E94D5
S11304007D0660E08EE00E943D0663E08AE00E9483
S1130410E7060E94020808951F93CF93DF931F926B
S1130420CDB7DEB7182F60E08CE00E947D06BE01D8
S11304306F5F7F4F812F0E941A0861E08CE00E9459
S11304407D060F90DF91CF911F910895CF92DF9297
S1130450EF92FF920F931F93CF93DF931F92CDB729
S1130460DEB76C01062F60E08CE00E947D06BE01C1
S11304706F5F7F4F83E20E941A0810E07601E10E5D
S1130480F11CB70183E20E941A081F5FF701808103
S1130490833211F0101790F361E08CE00E947D0626
S11304A00F90DF91CF911F910F91FF90EF90DF900C
S11304B0CF9008958F929F92AF92BF92CF92DF9286
S11304C0EF92FF920F931F93CF93DF9300D0CDB79A
S11304D0DEB76B017C01423059F49B01AC0160E44E
S11304E072E48FE090E00E94540B6B017C010DC01C
S11304F0413049F4A8EEB3E09B01AC010E94640BC7
S11305006B017C0102C041116BC088E8C81683E10D
S1130510D806E104F104C8F088EAC81681E6D806D2
S1130520E104F104A0F088E4C81688EED80681E05E
S1130530E806F10470F080E2C81681EAD80687E084
S1130540E806F10440F414E007C011E005C012E02D
S113055003C013E001C015E0E12FF0E03197EE0F86
S1130560FF1FEC50FF4F60817181769567957695FA
S113057067957695679580E090E00E94590A4B0153
S11305805C01C701B6010E94590AA50194010E94A9
S1130590B8090E942A0AF62E072F80E00E948B08D1
S11305A08F2D81950E94BC08812F0E94A40810E021
S11305B011C0CE0101960E94BE08CE0102960E948F
S11305C0CC088981811103C08A818111F2CF0E94F4
S11305D0C8081F5F011768F70E94B20880E001C0D5
S11305E081E00F900F90DF91CF911F910F91FF90B9
S11305F0EF90DF90CF90BF90AF909F908F90089531
S113060080E00E94300984E00E945E090E94720921
S113061080E00895009721F00E947A0980E008950F
S113062081E008950F931F93CF93C82F8A010E94EE
S1130630E706811107C0B8018C2F0E946E07811153
S113064003C003C081E001C081E0CF911F910F91ED
S1130650089585E00E941A0961E082E00E94E7069D
S113066062E673E082E00E946E07089560E08AE02B
S11306700E943D0662E082E00E94E70669E273E0C0
S113068082E00E946E070895CF92DF92EF92FF926C
S1130690CF93DF93EC010E942B096B017C01BE0117
S11306A080E090E00E94590AA70196010E94E70A9F
S11306B00E942A0ACB01DF91CF91FF90EF90DF9047
S11306C0CF9008950E942809909367018093660152
S11306D00E94220980916601909167010E9444035F
S11306E0909365018093640162E082E00E94E706D2
S11306F069E273E082E00E946E0780916401909148
S11307006501803D974020F081E080936301089566
S113071081E080936801089561E082E10E943D06D2
S113072061E083E10E943D0661E084E10E943D06B0
S113073060E085E10E943D0660E086E10E943D069E
S113074060E087E10E943D060895CF93DF931F92F6
S1130750CDB7DEB761E085E10E947D0661E086E108
S11307600E947D0661E087E10E947D0661E083E1ED
S11307700E947D0661E084E10E947D0660E082E1E2
S11307800E947D0681E08983BE016F5F7F4F85E112
S11307900E94BD068981882339F00BC0BE016F5FBA
S11307A07F4F85E10E94BD0689818823B9F381E0EA
S11307B02EC081E08983BE016F5F7F4F86E10E9476
S11307C0BD068981882339F00BC0BE016F5F7F4F5E
S11307D086E10E94BD0689818823B9F382E017C0AF
S11307E081E08983BE016F5F7F4F87E10E94BD0670
S11307F08981882341F080E00AC0BE016F5F7F4F8A
S113080087E10E94BD0689818823B9F383E00F90B4
S1130810DF91CF910895CF93DF931F92CDB7DEB7C9
S113082061E085E10E947D0661E086E10E947D062B
S113083061E087E10E947D0661E082E10E947D061D
S113084061E084E10E947D0660E083E10E947D0610
S113085081E08983BE016F5F7F4F85E10E94BD0601
S11308608981882339F00BC0BE016F5F7F4F85E11A
S11308700E94BD0689818823B9F384E02EC081E0FB
S11308808983BE016F5F7F4F86E10E94BD06898127
S1130890882339F00BC0BE016F5F7F4F86E10E9451
S11308A0BD0689818823B9F385E017C081E0898377
S11308B0BE016F5F7F4F87E10E94BD068981882357
S11308C041F080E00AC0BE016F5F7F4F87E10E9464
S11308D0BD0689818823B9F386E00F90DF91CF911B
S11308E00895CF93DF931F92CDB7DEB761E085E122
S11308F00E947D0661E086E10E947D0661E087E159
S11309000E947D0661E082E10E947D0661E083E150
S11309100E947D0660E084E10E947D0681E0898377
S1130920BE016F5F7F4F85E10E94BD0689818823E8
S113093039F00BC0BE016F5F7F4F85E10E94BD0699
S113094089818823B9F387E02EC081E08983BE01C1
S11309506F5F7F4F86E10E94BD068981882339F04D
S11309600BC0BE016F5F7F4F86E10E94BD06898187
S11309708823B9F388E017C081E08983BE016F5FE3
S11309807F4F87E10E94BD068981882341F080E082
S11309900AC0BE016F5F7F4F87E10E94BD06898157
S11309A08823B9F389E00F90DF91CF9108950E94D5
S11309B0A503811106C00E940B04811102C00E948C
S11309C0710408951F93CF93DF93D82F60E082E0E2
S11309D00E947D0660E081E00E947D061D2F129535
S11309E01F70C0E011C0EC2FF0E0612F70E00C2EFE
S11309F002C0759567950A94E2F76170ED58FF4F50
S1130A0080810E947D06CF5FC43068F361E083E09B
S1130A100E947D0689EF90E00197F1F700C0000085
S1130A2060E083E00E947D0692E49A95F1F700C0AD
S1130A30DF70C0E011C0EC2FF0E06D2F70E00C2EE1
S1130A4002C0759567950A94E2F76170ED58FF4FFF
S1130A5080810E947D06CF5FC43068F361E083E04B
S1130A600E947D0689EF90E00197F1F700C0000035
S1130A7060E083E00E947D0683EF91E00197F1F747
S1130A8000C00000DF91CF911F910895CF93C0E083
S1130A9009C0EC2FF0E0ED58FF4F61E080810E9427
S1130AA03D06CF5FC430A8F361E081E00E943D06BB
S1130AB061E082E00E943D0661E083E00E943D0621
S1130AC08FE097E20197F1F700C0000082E00E94F6
S1130AD0E20489EF90E00197F1F700C0000088E29A
S1130AE00E94E20489EF90E00197F1F700C0000052
S1130AF081E00E94E20487EE93E00197F1F700C0E1
S1130B00000086E00E94E20489EF90E00197F1F78B
S1130B1000C000008EE00E94E20489EF90E001979B
S1130B20F1F700C00000CF9108951F93CF93DF9396
S1130B30D82F60E082E00E947D0661E081E00E949F
S1130B407D061D2F12951F70C0E011C0EC2FF0E040
S1130B50612F70E00C2E02C0759567950A94E2F738
S1130B606170ED58FF4F80810E947D06CF5FC430D5
S1130B7068F361E083E00E947D0689EF90E00197CD
S1130B80F1F700C0000060E083E00E947D0692E47B
S1130B909A95F1F700C0DF70C0E011C0EC2FF0E0CF
S1130BA06D2F70E00C2E02C0759567950A94E2F7DC
S1130BB06170ED58FF4F80810E947D06CF5FC43085
S1130BC068F361E083E00E947D0689EF90E001977D
S1130BD0F1F700C0000060E083E00E947D0683EF2F
S1130BE091E00197F1F700C00000DF91CF911F91D0
S1130BF0089581E00E94E20487EE93E00197F1F703
S1130C0000C0000082E00E94E20487EE93E00197B6
S1130C10F1F700C000000895811108C0603130F47C
S1130C20862F8F7080680E94E2040895813039F421
S1130C30603128F4862F8F70806C0E94E20408953E
S1130C400F931F93CF93DF938C01FC018081C0E04D
S1130C50D0E007C00E9495052196F801EC0FFD1F16
S1130C6080818111F7CFDF91CF911F910F9108956A
S1130C700E9452000E946B00FDCF8032C0F56230AA
S1130C80C0F5E82FE695E695E6958770611117C0E3
S1130C90F0E0EE0FFF1FE158FF4F0190F081E02DCF
S1130CA0408121E030E0B90102C0660F771F8A95C8
S1130CB0E2F7CB0180958423808380E0089561303E
S1130CC0D1F4F0E0EE0FFF1FE158FF4F0190F081E7
S1130CD0E02D408121E030E0B90102C0660F771FAA
S1130CE08A95E2F7CB01842B808380E008958FEF0F
S1130CF008958FEF089580E008958032C0F5623042
S1130D00C0F5E82FE695E695E6958770611117C062
S1130D10F0E0EE0FFF1FE957FF4F0190F081E02D47
S1130D20408121E030E0B90102C0660F771F8A9547
S1130D30E2F7CB0180958423808380E008956130BD
S1130D40D1F4F0E0EE0FFF1FE957FF4F0190F0815F
S1130D50E02D408121E030E0B90102C0660F771F29
S1130D608A95E2F7CB01842B808380E008958FEF8E
S1130D7008958FEF089580E008958032D8F4E82F25
S1130D80E695E695E6958770F0E0EE0FFF1FE958CB
S1130D90FF4F0190F081E02D208130E0A90102C0D5
S1130DA0559547958A95E2F7CA018170FB018083C6
S1130DB080E008958FEF0895813019F4789480E0ED
S1130DC00895811102C0F894089581E00895CF93A5
S1130DD0DF93C82FD62F81E00E94DC06C13099F141
S1130DE020F0C23009F45DC072C0D11107C085B7CC
S1130DF08E7F85BF85B78D7F85BF20C0D13039F404
S1130E0085B78E7F85BF85B7826085BF17C0D23016
S1130E1039F485B7816085BF85B7826085BF0EC010
S1130E20D33039F485B7816085BF85B78D7F85BFA1
S1130E3005C080E00E94DC0681E04DC08BB7806471
S1130E408BBF80E048C0D11107C085B78B7F85BFB9
S1130E5085B7877F85BF20C0D13039F485B78B7FB4
S1130E6085BF85B7886085BF17C0D23039F485B790
S1130E70846085BF85B7886085BF0EC0D33039F4E0
S1130E8085B7846085BF85B7877F85BF05C080E04F
S1130E900E94DC0681E01FC08BB780688BBF80E0B6
S1130EA01AC0D13021F484B78F7B84BF0BC0D230F9
S1130EB021F484B7806484BF05C080E00E94DC060E
S1130EC081E009C08BB780628BBF80E004C080E002
S1130ED00E94DC0681E0DF91CF910895811105C065
S1130EE070930B0160930A010895813031F470937B
S1130EF009016093080180E00895823031F4709311
S1130F0007016093060180E0089581E008951F922F
S1130F100F920FB60F9211242F933F934F935F9329
S1130F206F937F938F939F93AF93BF93EF93FF93AD
S1130F30E0910A01F0910B01309709F00995FF91B6
S1130F40EF91BF91AF919F918F917F916F915F913D
S1130F504F913F912F910F900FBE0F901F901895B6
S1130F601F920F920FB60F9211242F933F934F931A
S1130F705F936F937F938F939F93AF93BF93EF93FD
S1130F80FF93E0910801F0910901309709F0099568
S1130F90FF91EF91BF91AF919F918F917F916F914D
S1130FA05F914F913F912F910F900FBE0F901F9023
S1130FB018951F920F920FB60F9211242F933F93FF
S1130FC04F935F936F937F938F939F93AF93BF934D
S1130FD0EF93FF93E0910601F0910701309709F038
S1130FE00995FF91EF91BF91AF919F918F917F915F
S1130FF06F915F914F913F912F910F900FBE0F9082
S11310001F9018958DB180618DB98DB19EB18E7F81
S11310109C7F9EB98DB98DB19EB193609EB98DB9F7
S11310208DB1877F8DB98DB18B7F8DB98DB1806482
S11310308DB9089561157105F9F08FB980E090E0DC
S1131040DC0103C00196A11DB11D779907C0803A48
S113105026E8920721E0A207B105A0F3803A96485A
S1131060A140B10559F08FB1FB018083F1E2FA95FB
S1131070F1F7000080E0089581E0089581E008958B
S11310801F920F920FB60F9211242F933F938F93B9
S11310909F93EF93FF938FB18093690190911D010A
S11310A09F3011F410921D01833259F090911D016B
S11310B0E92FF0E0E45FFE4F80839F5F90931D0172
S11310C004C080911D0180936A0180911E0190915A
S11310D06B01891788F420911B0130911C012115A3
S11310E0310551F091E0980F90931E01F901E80F3A
S11310F0F11D80818FB904C0891710F083E28FB984
S1131100FF91EF919F918F913F912F910F900FBE7F
S11311100F901F901895813061F028F0823029F0EB
S1131120833029F00FC020E005C028E003C028E484
S113113001C020E493B7977B93BF83B7822B83BF0F
S113114080E0089581E008959FEF980F973040F470
S113115093B7987F93BF93B7892B83BF80E008959B
S113116081E0089583B7887F83BF12BE88B78E7FDE
S113117088BF10922101089582BF0895FC01892B34
S113118029F098B79170908380E0089581E00895E4
S113119088B7816088BF0895009761F003B600FEA8
S11311A005C021E0FC01208380E00895FC01108249
S11311B080E0089581E008951F920F920FB60F9278
S11311C011242F933F934F935F936F937F938F9348
S11311D09F93AF93BF93EF93FF9380911F019091DF
S11311E02001892BB1F08091210190912201891372
S11311F00DC00E94B2081092210189B78E7F89BF69
S1131200E0911F01F0912001099503C08F5F809345
S11312102101FF91EF91BF91AF919F918F917F91A8
S11312206F915F914F913F912F910F900FBE0F904F
S11312301F9018958EB5887F8EBD8EB585608EBD46
S113124080E008958EB5887F8EBD1DBC1CBC0895BA
S11312508CB59DB508956FE672E183E09EE3089531
S1131260843040F5813071F028F0823099F0833079
S1131270C9F022C085B5877F85BD85B58F7B85BDC7
S113128080E0089585B5877F85BD85B5806485BD7B
S113129080E0089585B5886085BD85B58F7B85BD63
S11312A080E0089585B5886085BD85B5806485BD79
S11312B080E0089581E0089581E00895883070F415
S11312C080932A0190912901913051F495B5987F2A
S11312D0892B95B5892B85BD80E0089581E008951B
S11312E080E0089589B7806489BF8FB780688FBF15
S11312F080E00895009721F09093250180932401C4
S113130008951F920F920FB60F9211242F933F93BB
S11313104F935F936F937F938F939F93AF93BF93F9
S1131320EF93FF93809123018F5F8093230190912A
S1131330280189130CC0E0912401F0912501309714
S113134031F01092230109958091260184BDFF910B
S1131350EF91BF91AF919F918F917F916F915F9129
S11313604F913F912F910F900FBE0F901F901895A2
S11313700E94CC090C94AD0A0E94A60A58F00E945F
S11313809F0A40F029F45F3F29F00C94960A51110A
S11313900C94E10A0C949C0A0E94BE0A68F39923F7
S11313A0B1F3552391F3951B550BBB27AA2762175D
S11313B07307840738F09F5F5F4F220F331F441F6A
S11313C0AA1FA9F335D00E2E3AF0E0E832D091509E
S11313D05040E695001CCAF72BD0FE2F29D0660F8B
S11313E0771F881FBB1F261737074807AB07B0E8CE
S11313F009F0BB0B802DBF01FF2793585F4F3AF0D4
S11314009E3F510578F00C94960A0C94E10A5F3FD4
S1131410E4F3983ED4F3869577956795B795F79559
S11314209F5FC9F7880F911D9695879597F9089541
S1131430E1E0660F771F881FBB1F621773078407DD
S1131440BA0720F0621B730B840BBA0BEE1F88F7EC
S1131450E09508950E94C60A88F09F5798F0B92F26
S11314609927B751B0F0E1F0660F771F881F991FD5
S11314701AF0BA95C9F714C0B13091F00E94E00A8D
S1131480B1E008950C94E00A672F782F8827B85F9D
S113149039F0B93FCCF3869577956795B395D9F72D
S11314A03EF490958095709561957F4F8F4F9F4F37
S11314B00895E89409C097FB3EF490958095709543
S11314C061957F4F8F4F9F4F9923A9F0F92F96E98C
S11314D0BB279395F695879577956795B795F11101
S11314E0F8CFFAF4BB0F11F460FF1BC06F5F7F4F9E
S11314F08F4F9F4F16C0882311F096E911C07723B0
S113150021F09EE8872F762F05C0662371F096E8B8
S1131510862F70E060E02AF09A95660F771F881F87
S1131520DAF7880F9695879597F9089597F99F6745
S113153080E870E060E008959FEF80EC0895002457
S11315400A941616170618060906089500240A9424
S113155012161306140605060895092E0394000CAA
S113156011F4882352F0BB0F40F4BF2B11F460FF39
S113157004C06F5F7F4F8F4F9F4F089557FD905862
S1131580440F551F59F05F3F71F04795880F97FB43
S1131590991F61F09F3F79F08795089512161306FD
S11315A01406551FF2CF4695F1DF08C0161617062C
S11315B01806991FF1CF8695710561050894089561
S11315C0E894BB2766277727CB0197F908950E94F3
S11315D0FA0A0C94AD0A0E949F0A38F00E94A60AE7
S11315E020F0952311F00C94960A0C949C0A112473
S11315F00C94E10A0E94BE0A70F3959FC1F3950F03
S113160050E0551F629FF001729FBB27F00DB11D82
S1131610639FAA27F00DB11DAA1F649F6627B00D12
S1131620A11D661F829F2227B00DA11D621F739FFB
S1131630B00DA11D621F839FA00D611D221F749F09
S11316403327A00D611D231F849F600D211D822F50
S1131650762F6A2F11249F5750409AF0F1F0882377
S11316604AF0EE0FFF1FBB1F661F771F881F9150A4
S11316705040A9F79E3F510580F00C94960A0C94B3
S1131680E10A5F3FE4F3983ED4F386957795679536
S1131690B795F795E7959F5FC1F7FE2B880F911DCE
S11316A09695879597F90895DB018F939F930E94F0
S11316B0640BBF91AF91A29F800D911DA39F900DCC
S11316C0B29F900D112408950E946F0BA59F900D59
S11316D0B49F900DA49F800D911D11240895A29F85
S11316E0B001B39FC001A39F700D811D1124911DF2
S11316F0B29F700D811D1124911D0895FB01DC0121
S11317008D91019080190110D9F3990B0895F894E3
S1051710FFCF05
S113171201303030302E3030000B31323334353634
S11317223738390405060739003600330030003AE9
S1131732003700340031003B003800350032004CE1
S11317424F434B45440057656C636F6D6520546F7E
S11317522041746D00496E7365727420596F7572FD
S1131762204361726400456E74657220596F75720C
S11317722070696E004552524F520050494E5F4DDF
S11317824154434845440050494E5F4E4F545F4DC7
S113179241544348454400454E54455220616D6FBF
S11117A2756E74000100080040000901000487
S9030000FC
