:100000000C9448000C94A40A0C94CD0A0C94F60AA3
:100010000C9465000C942C0D0C9465000C946500F8
:100020000C9465000C9465000C9465000C94F90B1D
:100030000C945D0B0C9465000C9465000C946500A9
:100040000C9465000C9465000C9465000C9465009C
:100050000C9465004E414E494E495459494E46CD87
:10006000CCCC3D0AD7233C17B7D13877CC2B32956F
:1000700095E6241FB14F0A000020410000C842004D
:10008000401C4620BCBE4CCA1B0E5AAEC59D740017
:1000900011241FBECFE5D8E0DEBFCDBF12E0A0E641
:1000A000B0E0E2E3F3E202C005900D92A839B10797
:1000B000D9F722E0A8E9B2E001C01D92A33FB20740
:1000C000E1F70E9455090C9497110C9400001092CE
:1000D0006000089580919A028F5F80939A0208953C
:1000E0000E9411060E947D058AE690E00E948F051D
:1000F0000E94CB070E946E0447E650E063E080E078
:100100000E9497050E94BB0584E691E00E94560478
:100110008AE00E944F0442E751E061E082E00E94E1
:100120009705089580916000813079F118F0823050
:10013000B1F10895109299028CE992E00E941402A4
:10014000843009F4CEC00E944903811104C082E0CA
:10015000809360000895809198028F5F8093980249
:10016000833009F0BEC00E947E0864E080E00E94F7
:1001700091088AE891E00E94A50884E691E00E9437
:10018000450383E080936000089580919902811176
:10019000A8C00E94A60181E080939902089581E69B
:1001A00090E00E94A9020E947E0846EC52E061E6BF
:1001B00070E084ED92E00E942A048093CA028230AB
:1001C000D1F128F4882351F08130B1F008958330C3
:1001D00009F450C0843009F46AC008956091C602E1
:1001E0007091C7028091C8029091C9020E94C20119
:1001F00081E080936000089584E691E00E944503C9
:1002000064E080E00E94910881E991E00E94A508E5
:1002100062E081E00E9491088BE991E00E94A508CC
:1002200042E061E070E080E090E00E94D70483E06B
:1002300080936000089584E691E00E94450364E0A5
:1002400080E00E94910886EA91E00E94A50862E0A1
:1002500081E00E94910881EB91E00E94A50842E0B4
:1002600061E070E080E090E00E94D70483E080933A
:100270006000089564E080E00E9491088BEB91E0BB
:100280000E94A50862E081E00E94910886EC91E05E
:100290000E94A50842E061E070E080E090E00E94EA
:1002A000D7040E947E0882E080936000089564E095
:1002B00080E00E94910882ED91E00E94A50862E032
:1002C00081E00E94910880EE91E00E94A50842E042
:1002D00061E070E080E090E00E94D70482E08093CB
:1002E0006000089580919B02811110C064E670E067
:1002F00080E090E00E94870542E751E062E082E002
:100300000E94970581E080939B0208958130E9F473
:100310000E948C0580919A029FEF980F933118F4F8
:100320001092690005C0843118F081E08093690063
:1003300010929A0242E751E061E082E00E94970544
:100340008AE00E944F0410929B0208950E947E084A
:1003500060E080E00E94910885EE91E00E94A5088F
:1003600042E061E070E080E090E00E94D7040E94EB
:100370007E0860E080E00E94910884EF91E00E9496
:10038000A5080895CF92DF92EF92FF926B017C0156
:1003900064E080E00E94910885E092E00E94A50858
:1003A00062E081E00E9491088EE092E00E94A50840
:1003B00042E061E070E080E090E00E94D7040E949B
:1003C0007E0864E080E00E9491088AE192E00E9449
:1003D000A50860E081E00E94910884E292E00E941A
:1003E000A508C701B6010E94BD0842E061E070E0C7
:1003F00080E090E00E94D7040E947E0861E080E0E7
:100400000E9491088EE292E00E94A50842E061E01D
:1004100070E080E090E00E94D7040E947E08FF9088
:10042000EF90DF90CF900895EF92FF920F931F937C
:10043000CF93DF938C010E947E0860E080E00E94F1
:1004400091088CE392E00E94A508D0E0F12C33C023
:100450000E945C07C82F811118C08091690081112A
:100460002AC082E080936900F801ED0FF11D80E35E
:100470008083C1E0CF0D6F2D81E00E94910880E361
:100480000E941A08DF5FFC2E16C08823A1F0EE241C
:10049000E394EF0C6F2D81E00E949108D801AD0F1D
:1004A000B11DEC2FF0E0EC59FE4F80818C930E943F
:1004B0001A08DF5FFE2CD43020F48091690081306F
:1004C00039F6D43078F482E0809369000E947E0887
:1004D00060E081E00E9491088BE492E00E94A50810
:1004E00084E001C083E0DF91CF911F910F91FF90D5
:1004F000EF900895009749F16115710541F10E944F
:10050000E50F892B89F40E947E0881E592E00E9424
:10051000A5082FE382E49FE0215080409040E1F75E
:1005200000C0000080E008950E947E088DE592E002
:100530000E94A5082FE382E49FE021508040904074
:10054000E1F700C0000081E0089582E0089582E0B4
:100550000895DF92EF92FF920F931F93CF93DF9353
:100560007C010E947E0860E080E00E9491088DE698
:1005700092E00E94A50860E081E00E949108C70116
:100580000E94A508D12C71C00E945C07D82F811150
:1005900059C080916900811168C082E08093690030
:1005A000C0E020C0C33079F487010C0F111DF801A1
:1005B000828180836C2F81E00E949108F801808104
:1005C0000E941A08C5E087010C0F111DF8018181F6
:1005D00080836C2F81E00E949108F80180810E9445
:1005E0001A08CF5FC630F0F280E3F701868366E039
:1005F00081E00E949108F70186810E941A08D39435
:1006000034C0C33079F487010C0F111DF8018281C9
:1006100080836C2F81E00E949108F80180810E9404
:100620001A08C5E087010C0F111DF8018181808334
:100630006C2F81E00E949108F80180810E941A08C5
:10064000CF5F01C0C0E0C630E0F2ED2FF0E0EC5922
:10065000FE4F8081F701868366E081E00E94910869
:10066000F70186810E941A08D394F5E0FD1528F061
:1006700080916900813009F087CFDF91CF911F9180
:100680000F91FF90EF90DF90089561E00E94640465
:10069000089580E50E94890481EE94E00197F1F7C6
:1006A00000C0000065E08BEC92E00E94A30487E4A8
:1006B0000E94890481EE94E00197F1F700C00000E8
:1006C00064E184ED92E00E94A3046CE972E08BEC9B
:1006D00092E00E947A0208956AE772E00E94E50FB4
:1006E000181614F080E0089583E008950F931F9387
:1006F000CF938C01C0E00CC089E1C89FB0011124E8
:1007000061597F4FC8010E94E50F882329F0CF5F10
:10071000CA3090F381E001C080E0CF911F910F912A
:100720000895EF92FF920F931F93CF937C01C0E047
:100730001DC00C2F10E089E1809FB001819F700DDA
:10074000112461597F4FC7010E94E50F81110DC02F
:1007500089E1809FF001819FF00D1124E659FF4F40
:100760008481882339F082E006C0CF5FCA3008F365
:1007700082E001C080E0CF911F910F91FF90EF9038
:1007800008954F925F926F927F928F929F92AF9255
:10079000BF92CF92DF92EF92FF920F931F93CF936E
:1007A0007C01CB016A010E94E10F4B015C01C0E0BA
:1007B0003DC00C2F10E089E1809FB001819F700D3A
:1007C000112461597F4FC7010E94E50F81112DC08F
:1007D00089E1809FF001819FF00D1124E659FF4FC0
:1007E0004080518062807380A3019201C501B401F1
:1007F0000E94D00D1816CCF0A5019401C301B201DE
:100800000E94630D29E1209FF001219FF00D11242A
:10081000E659FF4F6083718382839383F60160837F
:1008200071838283938380E005C0CF5FCA3008F470
:10083000C0CF84E0CF911F910F91FF90EF90DF9098
:10084000CF90BF90AF909F908F907F906F905F9070
:100850004F900895EF92FF920F931F93CF93DF93E2
:10086000EC018B017A010E947603813089F0CE0180
:100870000E949103823061F0C8010E946C038330B2
:1008800039F0A701B801CE010E94C103843001F004
:10089000DF91CF911F910F91FF90EF9008958032DB
:1008A00018F461E00E949A0981E00895CF93DF93E4
:1008B000EC0161E088810E945A0960E088810E9411
:1008C0009A09DF91CF910895009731F0FC01808162
:1008D0000E949A0980E0089581E0089561E08DE02A
:1008E0000E945A0961E08FE00E945A0961E08CE0A1
:1008F0000E945A0961E08CE00E949A0960E08EE053
:100900000E945A0963E08AE00E94040A0E941F0BB9
:1009100008951F93CF93DF931F92CDB7DEB7182FA3
:1009200060E08CE00E949A09BE016F5F7F4F812FCB
:100930000E94370B61E08CE00E949A090F90DF91D2
:10094000CF911F910895CF92DF92EF92FF920F9374
:100950001F93CF93DF931F92CDB7DEB76C01062FA5
:1009600060E08CE00E949A09BE016F5F7F4F83E2D6
:100970000E94370B10E07601E10EF11CB70183E213
:100980000E94370B1F5FF7018081833211F010172F
:1009900090F361E08CE00E949A090F90DF91CF9173
:1009A0001F910F91FF90EF90DF90CF9008958F925D
:1009B0009F92AF92BF92CF92DF92EF92FF920F93EE
:1009C0001F93CF93DF9300D0CDB7DEB76B017C01CF
:1009D000423059F49B01AC0160E472E48FE090E096
:1009E0000E94950F6B017C010DC0413049F4A8EEC7
:1009F000B3E09B01AC010E94C70F6B017C0102C0F8
:100A000041116BC088E8C81683E1D806E104F104FF
:100A1000C8F088EAC81681E6D806E104F104A0F01F
:100A200088E4C81688EED80681E0E806F10470F084
:100A300080E2C81681EAD80687E0E806F10440F4AF
:100A400014E007C011E005C012E003C013E001C0CC
:100A500015E0E12FF0E03197EE0FFF1FEE57FD4F4D
:100A6000608171817695679576956795769567959E
:100A700080E090E00E94760E4B015C01C701B60158
:100A80000E94760EA50194010E94D50D0E94470E8A
:100A9000F62E072F80E00E94A80B8F2D81950E94D3
:100AA000D90B812F0E94C10B10E011C0CE0101961D
:100AB0000E94DB0BCE0102960E94E90B8981811115
:100AC00003C08A818111F2CF0E94E50B1F5F0117DD
:100AD00068F70E94CF0B80E001C081E00F900F907B
:100AE000DF91CF911F910F91FF90EF90DF90CF900A
:100AF000BF90AF909F908F90089580E00E944D0C22
:100B000084E00E947B0C0E948F0C80E008950E947C
:100B1000A80C0E94970C08950E94A10C08950097BC
:100B200021F00E94250D80E0089581E008950F9343
:100B30001F93CF93C82F8A010E94040A811107C016
:100B4000B8018C2F0E948B0A811103C003C081E081
:100B500001C081E0CF911F910F91089585E00E941F
:100B6000370C61E082E00E94040A67EE75E082E0E3
:100B70000E948B0A089560E08AE00E945A0962E0B0
:100B800082E00E94040A6EEA75E082E00E948B0A0D
:100B90000895CF92DF92EF92FF92CF93DF93EC0113
:100BA0000E94480C6B017C01BE0180E090E00E9435
:100BB000760EA70196010E94280F0E94470ECB01D6
:100BC000DF91CF91FF90EF90DF90CF9008950E943A
:100BD000450C9093EC028093EB020E943F0C8091B5
:100BE000EB029091EC020E94C9059093EA02809377
:100BF000E90262E082E00E94040A6EEA75E082E0A7
:100C00000E948B0A8091E9029091EA02803D974010
:100C100020F081E08093E802089581E08093ED0266
:100C2000089561E082E10E945A0961E083E10E9437
:100C30005A0961E084E10E945A0960E085E10E945E
:100C40005A0960E086E10E945A0960E087E10E944B
:100C50005A090895CF93DF931F92CDB7DEB761E0B5
:100C600085E10E949A0961E086E10E949A0961E0AB
:100C700087E10E949A0961E083E10E949A0961E09C
:100C800084E10E949A0960E082E10E949A0981E071
:100C90008983BE016F5F7F4F85E10E94DA098981F8
:100CA000882339F00BC0BE016F5F7F4F85E10E9442
:100CB000DA0989818823B9F381E02EC081E0898334
:100CC000BE016F5F7F4F86E10E94DA098981882328
:100CD00039F00BC0BE016F5F7F4F86E10E94DA09D9
:100CE00089818823B9F382E017C081E08983BE013E
:100CF0006F5F7F4F87E10E94DA098981882341F085
:100D000080E00AC0BE016F5F7F4F87E10E94DA0971
:100D100089818823B9F383E00F90DF91CF91089503
:100D2000CF93DF931F92CDB7DEB761E085E10E94DC
:100D30009A0961E086E10E949A0961E087E10E94D8
:100D40009A0961E082E10E949A0961E084E10E94CF
:100D50009A0960E083E10E949A0981E08983BE01DB
:100D60006F5F7F4F85E10E94DA098981882339F01E
:100D70000BC0BE016F5F7F4F85E10E94DA09898158
:100D80008823B9F384E02EC081E08983BE016F5FC0
:100D90007F4F86E10E94DA098981882339F00BC0F0
:100DA000BE016F5F7F4F86E10E94DA098981882347
:100DB000B9F385E017C081E08983BE016F5F7F4F83
:100DC00087E10E94DA098981882341F080E00AC026
:100DD000BE016F5F7F4F87E10E94DA098981882316
:100DE000B9F386E00F90DF91CF910895CF93DF9311
:100DF0001F92CDB7DEB761E085E10E949A0961E0FC
:100E000086E10E949A0961E087E10E949A0961E007
:100E100082E10E949A0961E083E10E949A0960E000
:100E200084E10E949A0981E08983BE016F5F7F4F50
:100E300085E10E94DA098981882339F00BC0BE015F
:100E40006F5F7F4F85E10E94DA0989818823B9F3BA
:100E500087E02EC081E08983BE016F5F7F4F86E10E
:100E60000E94DA098981882339F00BC0BE016F5FC7
:100E70007F4F86E10E94DA0989818823B9F388E0EF
:100E800017C081E08983BE016F5F7F4F87E10E94B9
:100E9000DA098981882341F080E00AC0BE016F5FD2
:100EA0007F4F87E10E94DA0989818823B9F389E0BD
:100EB0000F90DF91CF9108950E942A06811106C0FC
:100EC0000E949006811102C00E94F60608951F93A9
:100ED000CF93DF93D82F60E082E00E949A0960E010
:100EE00081E00E949A091D2F12951F70C0E011C069
:100EF000EC2FF0E0612F70E00C2E02C07595679525
:100F00000A94E2F76170E259FE4F80810E949A09CB
:100F1000CF5FC43068F361E083E00E949A0989EFF3
:100F200090E00197F1F700C0000060E083E00E94CC
:100F30009A0992E49A95F1F700C0DF70C0E011C001
:100F4000EC2FF0E06D2F70E00C2E02C075956795C8
:100F50000A94E2F76170E259FE4F80810E949A097B
:100F6000CF5FC43068F361E083E00E949A0989EFA3
:100F700090E00197F1F700C0000060E083E00E947C
:100F80009A0983EF91E00197F1F700C00000DF912B
:100F9000CF911F910895CF93C0E009C0EC2FF0E0EE
:100FA000E259FE4F61E080810E945A09CF5FC43050
:100FB000A8F361E081E00E945A0961E082E00E94AA
:100FC0005A0961E083E00E945A098FE097E2019795
:100FD000F1F700C0000082E00E94670789EF90E00F
:100FE0000197F1F700C0000088E20E94670789EFCF
:100FF00090E00197F1F700C0000081E00E946707D0
:1010000087EE93E00197F1F700C0000086E00E94B0
:10101000670789EF90E00197F1F700C000008EE0CC
:101020000E94670789EF90E00197F1F700C0000088
:10103000CF9108951F93CF93DF93D82F60E082E084
:101040000E949A0961E081E00E949A091D2F129581
:101050001F70C0E011C0EC2FF0E0612F70E00C2E8B
:1010600002C0759567950A94E2F76170E259FE4FE8
:1010700080810E949A09CF5FC43068F361E083E009
:101080000E949A0989EF90E00197F1F700C00000F3
:1010900060E083E00E949A0992E49A95F1F700C01B
:1010A000DF70C0E011C0EC2FF0E06D2F70E00C2E6F
:1010B00002C0759567950A94E2F76170E259FE4F98
:1010C00080810E949A09CF5FC43068F361E083E0B9
:1010D0000E949A0989EF90E00197F1F700C00000A3
:1010E00060E083E00E949A0983EF91E00197F1F7B5
:1010F00000C00000DF91CF911F91089581E00E9410
:10110000670787EE93E00197F1F700C0000082E0E7
:101110000E94670787EE93E00197F1F700C0000097
:101120000895811108C0603130F4862F8F70806877
:101130000E9467070895813039F4603128F4862FC2
:101140008F70806C0E94670708950F931F93CF9351
:10115000DF938C01FC018081C0E0D0E007C00E94D9
:101160001A082196F801EC0FFD1F80818111F7CF3D
:10117000DF91CF911F910F9108958F929F92AF921F
:10118000BF92CF92DF92EF92FF921F93CF93DF93A4
:10119000CDB7DEB72C970FB6F894DEBF0FBECDBF2C
:1011A0004B015C010E94470E6B01E12CF12CC70141
:1011B000B6010E94760E9B01AC01C501B4010E94EC
:1011C000630D20E030E048EC52E40E94280F0E94BA
:1011D000470E8DEC689F812D112486958695869506
:1011E000282F220F922F990F990F920F691B605D84
:1011F0006983805D8A838EE28B8313E015C0C7010B
:10120000B6012AE030E040E050E00E94A50FE1E0A6
:10121000F0E0EC0FFD1FE10FF11D605D6083C22E59
:10122000D32EE42EF52E1F5FC114D104E104F10486
:1012300031F7412F50E0E1E0F0E0EC0FFD1FE40F4B
:10124000F51F108280E017C0282F30E0A1E0B0E049
:10125000AC0FBD1FA20FB31F9C91FA01E21BF30B51
:10126000319721E030E02C0F3D1FE20FF31F20816A
:101270002C9390838F5F912F9695891728F3CE0139
:1012800001960E94A5082C960FB6F894DEBF0FBEFB
:10129000CDBFDF91CF911F91FF90EF90DF90CF9066
:1012A000BF90AF909F908F9008950E9470000E9411
:1012B0009200FDCF8032C0F56230C0F5E82FE69590
:1012C000E695E6958770611117C0F0E0EE0FFF1FFD
:1012D000E658FE4F0190F081E02D408121E030E0A2
:1012E000B90102C0660F771F8A95E2F7CB0180959E
:1012F0008423808380E008956130D1F4F0E0EE0F24
:10130000FF1FE658FE4F0190F081E02D408121E063
:1013100030E0B90102C0660F771F8A95E2F7CB0172
:10132000842B808380E008958FEF08958FEF0895D8
:1013300080E008958032C0F56230C0F5E82FE69570
:10134000E695E6958770611117C0F0E0EE0FFF1F7C
:10135000EE57FE4F0190F081E02D408121E030E01A
:10136000B90102C0660F771F8A95E2F7CB0180951D
:101370008423808380E008956130D1F4F0E0EE0FA3
:10138000FF1FEE57FE4F0190F081E02D408121E0DC
:1013900030E0B90102C0660F771F8A95E2F7CB01F2
:1013A000842B808380E008958FEF08958FEF089558
:1013B00080E008958032D8F4E82FE695E695E6952A
:1013C0008770F0E0EE0FFF1FEE58FE4F0190F081A6
:1013D000E02D208130E0A90102C0559547958A95FE
:1013E000E2F7CA018170FB01808380E008958FEFEE
:1013F0000895813019F4789480E00895811102C035
:10140000F894089581E00895CF93DF93C82FD62FE5
:1014100081E00E94F909C13099F120F0C23009F44D
:101420005DC072C0D11107C085B78E7F85BF85B7FB
:101430008D7F85BF20C0D13039F485B78E7F85BFC1
:1014400085B7826085BF17C0D23039F485B7816017
:1014500085BF85B7826085BF0EC0D33039F485B7AC
:10146000816085BF85B78D7F85BF05C080E00E9404
:10147000F90981E04DC08BB780648BBF80E048C024
:10148000D11107C085B78B7F85BF85B7877F85BFA3
:1014900020C0D13039F485B78B7F85BF85B7886090
:1014A00085BF17C0D23039F485B7846085BF85B752
:1014B000886085BF0EC0D33039F485B7846085BF9E
:1014C00085B7877F85BF05C080E00E94F90981E06C
:1014D0001FC08BB780688BBF80E01AC0D13021F469
:1014E00084B78F7B84BF0BC0D23021F484B7806473
:1014F00084BF05C080E00E94F90981E009C08BB774
:1015000080628BBF80E004C080E00E94F90981E026
:10151000DF91CF910895811105C07093A602609369
:10152000A5020895813031F47093A4026093A30260
:1015300080E00895823031F47093A2026093A1029A
:1015400080E0089581E008951F920F920FB60F92E8
:1015500011242F933F934F935F936F937F938F93B8
:101560009F93AF93BF93EF93FF93E091A502F09108
:10157000A602309709F00995FF91EF91BF91AF91C5
:101580009F918F917F916F915F914F913F912F919B
:101590000F900FBE0F901F9018951F920F920FB6CD
:1015A0000F9211242F933F934F935F936F937F93E9
:1015B0008F939F93AF93BF93EF93FF93E091A30219
:1015C000F091A402309709F00995FF91EF91BF9136
:1015D000AF919F918F917F916F915F914F913F91CB
:1015E0002F910F900FBE0F901F9018951F920F9282
:1015F0000FB60F9211242F933F934F935F936F93E6
:101600007F938F939F93AF93BF93EF93FF93E0915B
:10161000A102F091A202309709F00995FF91EF9194
:10162000BF91AF919F918F917F916F915F914F91FA
:101630003F912F910F900FBE0F901F9018958DB175
:1016400080618DB98DB19EB18E7F9C7F9EB98DB921
:101650008DB19EB193609EB98DB98DB1877F8DB9E3
:101660008DB18B7F8DB98DB180648DB90895611571
:101670007105F9F08FB980E090E0DC0103C00196BC
:10168000A11DB11D779907C0803A26E8920721E095
:10169000A207B105A0F3803A9648A140B10559F0E0
:1016A0008FB1FB018083F1E2FA95F1F7000080E051
:1016B000089581E0089581E008951F920F920FB67A
:1016C0000F9211242F933F938F939F93EF93FF9348
:1016D0008FB18093EE029091B8029F3011F4109276
:1016E000B802833259F09091B802E92FF0E0E95541
:1016F000FD4F80839F5F9093B80204C08091B80231
:101700008093EF028091B9029091F002891788F4DA
:101710002091B6023091B7022115310551F091E0C8
:10172000980F9093B902F901E80FF11D80818FB9EC
:1017300004C0891710F083E28FB9FF91EF919F9158
:101740008F913F912F910F900FBE0F901F90189582
:10175000813061F028F0823029F0833029F00FC009
:1017600020E005C028E003C028E401C020E493B7CE
:10177000977B93BF83B7822B83BF80E0089581E07E
:1017800008959FEF980F973040F493B7987F93BFD9
:1017900093B7892B83BF80E0089581E0089583B7D4
:1017A000887F83BF12BE88B78E7F88BF1092BC022D
:1017B000089582BF0895FC01892B29F098B7917094
:1017C000908380E0089581E0089588B7816088BFA4
:1017D0000895009761F003B600FE05C021E0FC010A
:1017E000208380E00895FC01108280E0089581E06C
:1017F00008951F920F920FB60F9211242F933F93CB
:101800004F935F936F937F938F939F93AF93BF9308
:10181000EF93FF938091BA029091BB02892BB1F0B4
:101820008091BC029091BD0289130DC00E94CF0B24
:101830001092BC0289B78E7F89BFE091BA02F09105
:10184000BB02099503C08F5F8093BC02FF91EF91AB
:10185000BF91AF919F918F917F916F915F914F91C8
:101860003F912F910F900FBE0F901F9018958EB53E
:10187000887F8EBD8EB585608EBD80E008958EB563
:10188000887F8EBD1DBC1CBC08958CB59DB5089588
:101890006FE672E183E09EE30895843040F5813085
:1018A00071F028F0823099F08330C9F022C085B5FC
:1018B000877F85BD85B58F7B85BD80E0089585B523
:1018C000877F85BD85B5806485BD80E0089585B539
:1018D000886085BD85B58F7B85BD80E0089585B521
:1018E000886085BD85B5806485BD80E0089581E010
:1018F000089581E00895883070F48093C502909136
:10190000C402913051F495B5987F892B95B5892BF8
:1019100085BD80E0089581E0089580E0089589B74D
:10192000806489BF8FB780688FBF80E0089595B5C8
:101930008091C502892B85BD81E08093C40280E03F
:10194000089585B5887F85BD1092C40280E0089512
:101950008F929F92AF92BF92CF92DF92EF92FF92BF
:10196000683823E172078105910508F060C06B01BA
:101970007C01E091C502F0E0EE0FFF1FE457FD4F40
:101980006081718180E090E00E94760E20E030E07E
:101990004AEF55E40E94D50D4B015C01C701B60129
:1019A0000E94760EA50194010E94D50D0E94470E5B
:1019B000611521E072078105910529F481E080938A
:1019C000C30280E039C06F3F71058105910509F0C0
:1019D00078F420E031E0C901861B970B9093C20296
:1019E0008093C10284BD81E08093C30280E024C063
:1019F000613021E0720781059105D8F07093C30230
:101A0000772780E091E0861B970B9093C20280932A
:101A1000C10284BD8091C1029091C202892B59F00C
:101A20008091C3028F5F8093C30280E005C081E094
:101A300003C080E001C080E0FF90EF90DF90CF9086
:101A4000BF90AF909F908F900895009721F0909352
:101A5000C0028093BF0208951F920F920FB60F929B
:101A600011242F933F934F935F936F937F938F93A3
:101A70009F93AF93BF93EF93FF938091BE028F5FCD
:101A80008093BE029091C30289130CC0E091BF0203
:101A9000F091C002309731F01092BE02099580910A
:101AA000C10284BDFF91EF91BF91AF919F918F9142
:101AB0007F916F915F914F913F912F910F900FBE4A
:101AC0000F901F9018955058BB27AA270E947B0D96
:101AD0000C94EE0E0E94E00E38F00E94E70E20F00B
:101AE00039F49F3F19F426F40C94DD0E0EF4E095C2
:101AF000E7FB0C94D70EE92F0E94FF0E58F3BA179C
:101B0000620773078407950720F079F4A6F50C9413
:101B1000210F0EF4E0950B2EBA2FA02D0B01B90169
:101B200090010C01CA01A0011124FF27591B99F053
:101B3000593F50F4503E68F11A16F040A22F232F5F
:101B4000342F4427585FF3CF469537952795A795AF
:101B5000F0405395C9F77EF41F16BA0B620B730B56
:101B6000840BBAF09150A1F0FF0FBB1F661F771FC7
:101B7000881FC2F70EC0BA0F621F731F841F48F47C
:101B8000879577956795B795F7959E3F08F0B0CF05
:101B90009395880F08F09927EE0F979587950895EC
:101BA0000E94B30E08F481E008950E94E90D0C94A0
:101BB000EE0E0E94E70E58F00E94E00E40F029F46D
:101BC0005F3F29F00C94D70E51110C94220F0C9406
:101BD000DD0E0E94FF0E68F39923B1F3552391F3B4
:101BE000951B550BBB27AA2762177307840738F08C
:101BF0009F5F5F4F220F331F441FAA1FA9F335D0E9
:101C00000E2E3AF0E0E832D091505040E695001C9C
:101C1000CAF72BD0FE2F29D0660F771F881FBB1F56
:101C2000261737074807AB07B0E809F0BB0B802D34
:101C3000BF01FF2793585F4F3AF09E3F510578F060
:101C40000C94D70E0C94220F5F3FE4F3983ED4F32C
:101C5000869577956795B795F7959F5FC9F7880F34
:101C6000911D9695879597F90895E1E0660F771F86
:101C7000881FBB1F621773078407BA0720F0621B17
:101C8000730B840BBA0BEE1F88F7E09508950E9442
:101C9000070F88F09F5798F0B92F9927B751B0F0E8
:101CA000E1F0660F771F881F991F1AF0BA95C9F7E0
:101CB00014C0B13091F00E94210FB1E008950C944E
:101CC000210F672F782F8827B85F39F0B93FCCF301
:101CD000869577956795B395D9F73EF4909580955D
:101CE000709561957F4F8F4F9F4F0895E89409C07D
:101CF00097FB3EF490958095709561957F4F8F4F3F
:101D00009F4F9923A9F0F92F96E9BB279395F69554
:101D1000879577956795B795F111F8CFFAF4BB0FD2
:101D200011F460FF1BC06F5F7F4F8F4F9F4F16C036
:101D3000882311F096E911C0772321F09EE8872FC0
:101D4000762F05C0662371F096E8862F70E060E07C
:101D50002AF09A95660F771F881FDAF7880F9695F5
:101D6000879597F90895990F0008550FAA0BE0E899
:101D7000FEEF16161706E807F907C0F0121613064D
:101D8000E407F50798F0621B730B840B950B39F48D
:101D90000A2661F0232B242B252B21F408950A26F3
:101DA00009F4A140A6958FEF811D811D089597F933
:101DB0009F6780E870E060E008959FEF80EC0895F1
:101DC00000240A941616170618060906089500241A
:101DD0000A9412161306140605060895092E039494
:101DE000000C11F4882352F0BB0F40F4BF2B11F408
:101DF00060FF04C06F5F7F4F8F4F9F4F089557FD67
:101E00009058440F551F59F05F3F71F04795880F68
:101E100097FB991F61F09F3F79F0879508951216FF
:101E200013061406551FF2CF4695F1DF08C01616AB
:101E300017061806991FF1CF86957105610508945C
:101E40000895E894BB2766277727CB0197F9089573
:101E50000E943B0F0C94EE0E0E94E00E38F00E94A0
:101E6000E70E20F0952311F00C94D70E0C94DD0EA4
:101E700011240C94220F0E94FF0E70F3959FC1F362
:101E8000950F50E0551F629FF001729FBB27F00D28
:101E9000B11D639FAA27F00DB11DAA1F649F66277D
:101EA000B00DA11D661F829F2227B00DA11D621FCC
:101EB000739FB00DA11D621F839FA00D611D221F86
:101EC000749F3327A00D611D231F849F600D211D6A
:101ED000822F762F6A2F11249F5750409AF0F1F0ED
:101EE00088234AF0EE0FFF1FBB1F661F771F881F56
:101EF00091505040A9F79E3F510580F00C94D70EA9
:101F00000C94220F5F3FE4F3983ED4F386957795C7
:101F10006795B795F795E7959F5FC1F7FE2B880FFB
:101F2000911D9695879597F90895DB018F939F935F
:101F30000E94C70FBF91AF91A29F800D911DA39FDB
:101F4000900DB29F900D11240895A1E21A2EAA1BA4
:101F5000BB1BFD010DC0AA1FBB1FEE1FFF1FA21759
:101F6000B307E407F50720F0A21BB30BE40BF50B56
:101F7000661F771F881F991F1A9469F760957095DF
:101F8000809590959B01AC01BD01CF0108950E9401
:101F9000D20FA59F900DB49F900DA49F800D911D11
:101FA00011240895A29FB001B39FC001A39F700D9B
:101FB000811D1124911DB29F700D811D1124911D51
:101FC0000895662777270C94EE0FFB01DC018D91B5
:101FD000019080190110D9F3990B0895A0E0B0E0A9
:101FE000E4EFFFE00C946611EC016B0161157105E3
:101FF00019F0FB01918380837E01FFEFEF1AFF0A46
:102000000881802F90E00E943C11892B11F0E7019C
:10201000F3CF0D3239F47E0182E0E80EF11C098124
:1020200011E008C00B3229F47E0192E0E90EF11CA8
:10203000098110E0E701219743E050E06CE570E092
:10204000CE010E944511892BC1F4239645E050E052
:1020500067E570E0CE010E944511892B09F42596B1
:10206000C114D10419F0F601D183C0831111F6C057
:1020700060E070E080E89FE7FAC043E050E064E58C
:1020800070E0CE010E944511892B59F4C114D1048E
:1020900009F4E9C0F2E0EF0EF11CF601F182E082F2
:1020A000E2C020E030E0A901C0E0D0E0F70180ED1F
:1020B000A82EA00E89E08A1530F1912F9260B92EDA
:1020C000812F887012FF04C0811124C0219622C084
:1020D00081112197A5E0B0E00E94C70FDC01CB0180
:1020E000880F991FAA1FBB1F9C01AD012A0D311D2E
:1020F000411D511D283989E93807480789E15807EA
:1021000048F0166006C09EEFA9120AC013FD40C039
:102110001860B12E8FEFE81AF80A00811B2DC6CF88
:10212000802F8F7D8534A1F580818D3211F410616F
:1021300006C08B3221F0319661E070E004C08181ED
:10214000329662E070E080538A3018F0E61BF70B9D
:102150001FC060E070E060389CE079075CF4DB0150
:10216000AA0FBB1FAA0FBB1F6A0F7B1F660F771F2B
:10217000680F711D3196DF0111978C9180538A3061
:1021800050F314FF03C0719561957109C60FD71FF5
:1021900011FF08C0C114D10429F0CF010197F60145
:1021A00091838083CA01B9010E94760E212F23708A
:1021B000233019F04B015C0106C04B015C01B7FAFA
:1021C000B094B7F8B09420E030E0A901C501B401A3
:1021D0000E94D00D882309F43EC0D7FF06C0D195D8
:1021E000C195D10903E710E002C00BE810E06801D7
:1021F000F8E1CF1AD10890E2E92EF12CCE15DF05D7
:1022000074F0F8012591359145915491C501B401BF
:102210000E94280F4B015C01CE19DF09EFCF04505B
:102220001109F594E7940C151D0541F78A2D880FC7
:102230008B2D881F8F3F49F020E030E0A901C501B8
:10224000B4010E94D00D811106C082E290E090930B
:10225000F2028093F102C501B40109C060E070E0B0
:1022600080E89FEF04C060E070E080EC9FE7CDB7AE
:10227000DEB7ECE00C94821191110C945D11803268
:1022800019F089508550C8F70895FB01DC014150D1
:10229000504088F08D9181341CF08B350CF4805EB9
:1022A000659161341CF06B350CF4605E861B611126
:1022B00071F3990B0895881BFCCF992788270895FF
:1022C0002F923F924F925F926F927F928F929F9246
:1022D000AF92BF92CF92DF92EF92FF920F931F9334
:1022E000CF93DF93CDB7DEB7CA1BDB0B0FB6F894E5
:1022F000DEBF0FBECDBF09942A88398848885F8425
:102300006E847D848C849B84AA84B984C884DF8095
:10231000EE80FD800C811B81AA81B981CE0FD11D79
:102320000FB6F894DEBF0FBECDBFED010895F8944F
:02233000FFCFDD
:1023320001303030302E3030000200606A46013207
:102342003232343132323431323234313232340098
:1023520000000000FE584701343331343433313445
:1023620034333134343331343400000000E0E94492
:102372000031323334353637383931323334353649
:10238200373839340000C82F4700343431373132FE
:10239200333435363738393131330000000000002C
:1023A200000000000000000000000000000000002B
:1023B200000000000000000000000000000000001B
:1023C200000000000000000000000000000000000B
:1023D20000000000000000000000000000000000FB
:1023E20000000000000000000000000000000000EB
:1023F20000000000000000000000000000000000DB
:1024020000000000000000000000000000000000CA
:1024120000000000000000000000000000000000BA
:1024220000000000000000000000000000000000AA
:10243200000000000B3132333435363738390405A9
:10244200060739003600330030003A003700340006
:1024520031003B003800350032004C4F434B4544BD
:102462000054686973206973206100467261756463
:10247200204361726400546869732043617264206E
:102482000069732053746F6C656E004D6178204C47
:10249200696D6974200069732045786365656465B8
:1024A2006400494E53554646494349454E5420001F
:1024B20046554E440057656C636F6D6520546F201E
:1024C20041746D00496E7365727420596F75722084
:1024D2004361726400417070726F76656400547279
:1024E200616E73616374696F6E0052656D61696ECE
:1024F200696E670042616C616E6365202000456A07
:10250200656374696E67204361726400456E746529
:102512007220596F75722070696E004552524F5287
:102522000050494E5F4D4154434845440050494E86
:102532005F4E4F545F4D41544348454400454E540D
:10254200455220616D6F756E7400353030302E301B
:1025520030000100080040000901000400000100F1
:08256200080040000001000424
:00000001FF
