:100000000C9448000C946F0A0C94980A0C94C10A42
:100010000C9465000C94E10C0C9465000C94650044
:100020000C9465000C9465000C9465000C94C40B52
:100030000C94280B0C9465000C9465000C946500DE
:100040000C9465000C9465000C9465000C9465009C
:100050000C9465004E414E494E495459494E46CD87
:10006000CCCC3D0AD7233C17B7D13877CC2B32956F
:1000700095E6241FB14F0A000020410000C842004D
:10008000401C4620BCBE4CCA1B0E5AAEC59D740017
:1000900011241FBECFE5D8E0DEBFCDBF12E0A0E641
:1000A000B0E0EAEAF2E202C005900D92AE3AB10782
:1000B000D9F723E0AEEAB2E001C01D92A330B20747
:1000C000E1F70E9420090C9453110C940000109247
:1000D000600008958091B0028F5F8093B002089510
:1000E0000E94DC050E94AB058AE690E00E94BD05F7
:1000F0000E9496070E949C0447E650E062E080E080
:100100000E94C5058CE691E00E9484048AE00E946A
:100110007D0446E851E062E082E00E94C505089552
:1001200080916000813079F118F08230B1F108954A
:100130001092AF0282EB92E00E942802843009F410
:10014000E4C00E946403811104C082E080936000D7
:1001500008958091AE028F5F8093AE02833009F0E4
:10016000D4C00E94490864E080E00E945C0882E9F3
:1001700091E00E9470088CE691E00E94600383E0A9
:100180008093600008958091AF028111BEC00E94EB
:10019000BA0181E08093AF02089589E690E00E9461
:1001A000C4020E9449084CED52E069E670E08AEE14
:1001B00092E00E9458048093E002823009F443C028
:1001C00028F4882351F08130F9F00895833009F440
:1001D00059C0843009F479C008956091DC027091AF
:1001E000DD028091DE029091DF020E94D60185E45B
:1001F0000E94B70461E670E089E690E00E94A30FD8
:1002000081E08093600008958CE691E00E94600395
:1002100064E080E00E945C0889E991E00E94700837
:1002200062E081E00E945C0883EA91E00E9470082D
:1002300042E061E070E080E090E00E94050583E02C
:100240008093600008958CE691E00E94600364E072
:1002500080E00E945C088EEA91E00E94700862E0F3
:1002600081E00E945C0889EB91E00E94700842E006
:1002700061E070E080E090E00E94050583E08093FB
:100280006000089564E080E00E945C0883EC91E0E7
:100290000E94700862E081E00E945C088EEC91E0B0
:1002A0000E94700842E061E070E080E090E00E940F
:1002B00005050E94490861E670E089E690E00E9429
:1002C000A30F82E080936000089564E080E00E94C4
:1002D0005C088AED91E00E94700862E081E00E9473
:1002E0005C0888EE91E00E94700842E061E070E0F6
:1002F00080E090E00E94050561E670E089E690E00C
:100300000E94A30F82E08093600008958091B10263
:10031000811110C064E670E080E090E00E94B505B5
:1003200046E851E061E082E00E94C50581E08093EB
:10033000B10208958130E9F40E94BA058091B002BB
:100340009FEF980F933118F41092710005C084311B
:1003500018F081E0809371001092B00246E851E0FD
:1003600062E082E00E94C5058AE00E947D0410924E
:10037000B10208950E94490860E080E00E945C0894
:100380008DEE91E00E94700842E061E070E080E054
:1003900090E00E9405050E94490860E080E00E940C
:1003A0005C088CEF91E00E9470080895CF92DF9274
:1003B000EF92FF926B017C0164E080E00E945C0898
:1003C0008DE092E00E94700862E081E00E945C088B
:1003D00086E192E00E94700842E061E070E080E017
:1003E00090E00E9405050E94490864E080E00E94B8
:1003F0005C0882E292E00E94700860E081E00E9466
:100400005C088CE292E00E947008C701B6010E946D
:10041000880842E061E070E080E090E00E9405051D
:100420000E94490861E080E00E945C0886E392E057
:100430000E94700842E061E070E080E090E00E947D
:1004400005050E944908FF90EF90DF90CF90089536
:10045000EF92FF920F931F93CF93DF938C010E9433
:10046000490860E080E00E945C0884E492E00E9419
:100470007008D0E0F12C33C00E942707C82F8111EB
:1004800018C08091710081112AC082E080937100B0
:10049000F801ED0FF11D80E38083C1E0CF0D6F2DDA
:1004A00081E00E945C0880E30E94E507DF5FFC2E8C
:1004B00016C08823A1F0EE24E394EF0C6F2D81E0A9
:1004C0000E945C08D801AD0FB11DEC2FF0E0E4599B
:1004D000FE4F80818C930E94E507DF5FFE2CD430B5
:1004E00020F480917100813039F6D430B0F482E08C
:1004F000809371000E94490860E080E00E945C08DF
:1005000083E592E00E94700842E061E070E080E0E4
:1005100090E00E94050584E001C083E0DF91CF9167
:100520001F910F91FF90EF900895009749F1611589
:10053000710541F10E949A0F892B89F40E944908A4
:100540008DE592E00E9470082FE382E49FE0215045
:1005500080409040E1F700C0000080E008950E94D4
:10056000490889E692E00E9470082FE382E49FE048
:10057000215080409040E1F700C0000081E00895E4
:1005800082E0089582E00895DF92EF92FF920F9348
:100590001F93CF93DF937C010E94490860E080E0C5
:1005A0000E945C0889E792E00E94700860E081E0A8
:1005B0000E945C08C7010E947008D12C71C00E9483
:1005C0002707D82F811159C080917100811168C00F
:1005D00082E080937100C0E020C0C33079F48701CD
:1005E0000C0F111DF801828180836C2F81E00E9425
:1005F0005C08F80180810E94E507C5E087010C0FC7
:10060000111DF801818180836C2F81E00E945C08BC
:10061000F80180810E94E507CF5FC630F0F280E3E9
:10062000F701868366E081E00E945C08F70186811D
:100630000E94E507D39434C0C33079F487010C0FCE
:10064000111DF801828180836C2F81E00E945C087B
:10065000F80180810E94E507C5E087010C0F111D9C
:10066000F801818180836C2F81E00E945C08F80191
:1006700080810E94E507CF5F01C0C0E0C630E0F294
:10068000ED2FF0E0E459FE4F8081F701868366E0AC
:1006900081E00E945C08F70186810E94E507D394FF
:1006A000F5E0FD1528F080917100813009F087CFC9
:1006B000DF91CF911F910F91FF90EF90DF90089500
:1006C00061E00E949204089580E50E94B70481EEE3
:1006D00094E00197F1F700C0000065E081EE92E040
:1006E0000E94D1040E94490886E892E00E947008A6
:1006F00081EE92E00E9470089FEB27E289E0915022
:1007000020408040E1F700C0000087E40E94B70469
:1007100081EE94E00197F1F700C0000064E18AEEF9
:1007200092E00E94D10462EB72E081EE92E00E94BE
:100730009502089560E972E00E949A0F181614F06D
:1007400080E0089583E008950F931F93CF938C0169
:10075000C0E00CC089E1C89FB001112469587F4FE7
:10076000C8010E949A0F882329F0CF5FCA3090F306
:1007700081E001C080E0CF911F910F910895EF9229
:10078000FF920F931F93CF937C01C0E01DC00C2FED
:1007900010E089E1809FB001819F700D112469589C
:1007A0007F4FC7010E949A0F81110DC089E1809F80
:1007B000F001819FF00D1124EE58FF4F84818823B2
:1007C00039F082E006C0CF5FCA3008F382E001C092
:1007D00080E0CF911F910F91FF90EF9008954F927D
:1007E0005F926F927F928F929F92AF92BF92CF92C1
:1007F000DF92EF92FF920F931F93CF937C01CB0177
:100800006A010E94960F4B015C01C0E03DC00C2FB5
:1008100010E089E1809FB001819F700D112469581B
:100820007F4FC7010E949A0F81112DC089E1809FDF
:10083000F001819FF00D1124EE58FF4F4080518050
:1008400062807380A3019201C501B4010E94850DED
:100850001816CCF0A5019401C301B2010E94180D35
:1008600029E1209FF001219FF00D1124EE58FF4F48
:100870006083718382839383F601608371838283B3
:10088000938380E005C0CF5FCA3008F4C0CF84E016
:10089000CF911F910F91FF90EF90DF90CF90BF907D
:1008A000AF909F908F907F906F905F904F90089542
:1008B000EF92FF920F931F93CF93DF93EC018B0185
:1008C0007A010E94A403813089F0CE010E94BF0307
:1008D000823061F0C8010E949A03833039F0A70189
:1008E000B801CE010E94EF03843001F0DF91CF9177
:1008F0001F910F91FF90EF900895803218F461E0FE
:100900000E94650981E00895CF93DF93EC0161E0D7
:1009100088810E94250960E088810E946509DF9135
:10092000CF910895009731F0FC0180810E94650904
:1009300080E0089581E0089561E08DE00E9425093E
:1009400061E08FE00E94250961E08CE00E942509AA
:1009500061E08CE00E94650960E08EE00E9425095C
:1009600062E08AE00E94CF090E94EA0A08951F937C
:10097000CF93DF931F92CDB7DEB7182F60E08CE0E6
:100980000E946509BE016F5F7F4F812F0E94020B9D
:1009900061E08CE00E9465090F90DF91CF911F917B
:1009A0000895CF92DF92EF92FF920F931F93CF9310
:1009B000DF931F92CDB7DEB76C01062F60E08CE0AD
:1009C0000E946509BE016F5F7F4F83E20E94020BA8
:1009D00010E07601E10EF11CB70183E20E94020BE8
:1009E0001F5FF7018081833211F0101790F361E0EF
:1009F0008CE00E9465090F90DF91CF911F910F91BC
:100A0000FF90EF90DF90CF9008958F929F92AF92DA
:100A1000BF92CF92DF92EF92FF920F931F93CF93EB
:100A2000DF9300D0CDB7DEB76B017C01423059F4C3
:100A30009B01AC0160E472E48FE090E00E944A0FF9
:100A40006B017C010DC0413049F4A8EEB3E09B017D
:100A5000AC010E947C0F6B017C0102C041116BC094
:100A600088E8C81683E1D806E104F104C8F088EAF2
:100A7000C81681E6D806E104F104A0F088E4C8169F
:100A800088EED80681E0E806F10470F080E2C8162E
:100A900081EAD80687E0E806F10440F414E007C0D4
:100AA00011E005C012E003C013E001C015E0E12F22
:100AB000F0E03197EE0FFF1FE856FD4F6081718126
:100AC00076956795769567957695679580E090E041
:100AD0000E942B0E4B015C01C701B6010E942B0E38
:100AE000A50194010E948A0D0E94FC0DF62E072F8D
:100AF00080E00E94730B8F2D81950E94A40B812FA3
:100B00000E948C0B10E011C0CE0101960E94A60B32
:100B1000CE0102960E94B40B8981811103C08A81A3
:100B20008111F2CF0E94B00B1F5F011768F70E947E
:100B30009A0B80E001C081E00F900F90DF91CF9180
:100B40001F910F91FF90EF90DF90CF90BF90AF90EB
:100B50009F908F90089580E00E94020C84E00E9494
:100B6000300C0E94440C80E008950E945D0C0E94AD
:100B70004C0C08950E94560C0895009721F00E9495
:100B8000DA0C80E0089581E008950F931F93CF93CE
:100B9000C82F8A010E94CF09811107C0B8018C2F8C
:100BA0000E94560A811103C003C081E001C081E0A8
:100BB000CF911F910F91089561E082E10E94250974
:100BC00061E083E10E94250961E084E10E9425093A
:100BD00060E085E10E94250960E086E10E94250928
:100BE00060E087E10E9425090895CF93DF931F926B
:100BF000CDB7DEB761E085E10E94650961E086E17D
:100C00000E94650961E087E10E94650961E083E176
:100C10000E94650961E084E10E94650960E082E16B
:100C20000E94650981E08983BE016F5F7F4F85E186
:100C30000E94A5098981882339F00BC0BE016F5F2E
:100C40007F4F85E10E94A50989818823B9F381E05E
:100C50002EC081E08983BE016F5F7F4F86E10E94D5
:100C6000A5098981882339F00BC0BE016F5F7F4FD2
:100C700086E10E94A50989818823B9F382E017C023
:100C800081E08983BE016F5F7F4F87E10E94A509E4
:100C90008981882341F080E00AC0BE016F5F7F4FE9
:100CA00087E10E94A50989818823B9F383E00F9029
:100CB000DF91CF910895CF93DF931F92CDB7DEB729
:100CC00061E085E10E94650961E086E10E946509B5
:100CD00061E087E10E94650961E082E10E946509A7
:100CE00061E084E10E94650960E083E10E9465099A
:100CF00081E08983BE016F5F7F4F85E10E94A50976
:100D00008981882339F00BC0BE016F5F7F4F85E179
:100D10000E94A50989818823B9F384E02EC081E06F
:100D20008983BE016F5F7F4F86E10E94A50989819B
:100D3000882339F00BC0BE016F5F7F4F86E10E94B0
:100D4000A50989818823B9F385E017C081E08983EB
:100D5000BE016F5F7F4F87E10E94A50989818823CB
:100D600041F080E00AC0BE016F5F7F4F87E10E94C3
:100D7000A50989818823B9F386E00F90DF91CF918F
:100D80000895CF93DF931F92CDB7DEB761E085E181
:100D90000E94650961E086E10E94650961E087E1E2
:100DA0000E94650961E082E10E94650961E083E1DA
:100DB0000E94650960E084E10E94650981E0898301
:100DC000BE016F5F7F4F85E10E94A509898188235D
:100DD00039F00BC0BE016F5F7F4F85E10E94A5090E
:100DE00089818823B9F387E02EC081E08983BE0121
:100DF0006F5F7F4F86E10E94A5098981882339F0C2
:100E00000BC0BE016F5F7F4F86E10E94A5098981FB
:100E10008823B9F388E017C081E08983BE016F5F42
:100E20007F4F87E10E94A5098981882341F080E0F6
:100E30000AC0BE016F5F7F4F87E10E94A5098981CB
:100E40008823B9F389E00F90DF91CF9108950E9434
:100E5000F505811106C00E945B06811102C00E9447
:100E6000C10608951F93CF93DF93D82F60E082E0EF
:100E70000E94650960E081E00E9465091D2F1295BE
:100E80001F70C0E011C0EC2FF0E0612F70E00C2E5D
:100E900002C0759567950A94E2F76170EA58FE4FB3
:100EA00080810E946509CF5FC43068F361E083E010
:100EB0000E94650989EF90E00197F1F700C00000FA
:100EC00060E083E00E94650992E49A95F1F700C022
:100ED000DF70C0E011C0EC2FF0E06D2F70E00C2E41
:100EE00002C0759567950A94E2F76170EA58FE4F63
:100EF00080810E946509CF5FC43068F361E083E0C0
:100F00000E94650989EF90E00197F1F700C00000A9
:100F100060E083E00E94650983EF91E00197F1F7BB
:100F200000C00000DF91CF911F910895CF93C0E0E2
:100F300009C0EC2FF0E0EA58FE4F61E080810E948A
:100F40002509CF5FC430A8F361E081E00E94250944
:100F500061E082E00E94250961E083E00E942509AA
:100F60008FE097E20197F1F700C0000082E00E9455
:100F7000320789EF90E00197F1F700C0000088E2A6
:100F80000E94320789EF90E00197F1F700C000005E
:100F900081E00E94320787EE93E00197F1F700C0ED
:100FA000000086E00E94320789EF90E00197F1F798
:100FB00000C000008EE00E94320789EF90E00197A8
:100FC000F1F700C00000CF9108951F93CF93DF93F6
:100FD000D82F60E082E00E94650961E081E00E9414
:100FE00065091D2F12951F70C0E011C0EC2FF0E0B5
:100FF000612F70E00C2E02C0759567950A94E2F798
:101000006170EA58FE4F80810E946509CF5FC4304D
:1010100068F361E083E00E94650989EF90E0019741
:10102000F1F700C0000060E083E00E94650992E4EF
:101030009A95F1F700C0DF70C0E011C0EC2FF0E02E
:101040006D2F70E00C2E02C0759567950A94E2F73B
:101050006170EA58FE4F80810E946509CF5FC430FD
:1010600068F361E083E00E94650989EF90E00197F1
:10107000F1F700C0000060E083E00E94650983EFA3
:1010800091E00197F1F700C00000DF91CF911F912F
:10109000089581E00E94320787EE93E00197F1F70F
:1010A00000C0000082E00E94320787EE93E00197C3
:1010B000F1F700C000000895811108C0603130F4DC
:1010C000862F8F7080680E9432070895813039F42E
:1010D000603128F4862F8F70806C0E94320708954B
:1010E0000F931F93CF93DF938C01FC018081C0E0AD
:1010F000D0E007C00E94E5072196F801EC0FFD1F24
:1011000080818111F7CFDF91CF911F910F910895C9
:101110008F929F92AF92BF92CF92DF92EF92FF9207
:101120001F93CF93DF93CDB7DEB72C970FB6F8940C
:10113000DEBF0FBECDBF4B015C010E94FC0D6B01F9
:10114000E12CF12CC701B6010E942B0E9B01AC01D2
:10115000C501B4010E94180D20E030E048EC52E4D3
:101160000E94DD0E0E94FC0D8DEC689F812D1124E4
:10117000869586958695282F220F922F990F990F85
:10118000920F691B605D6983805D8A838EE28B8329
:1011900013E015C0C701B6012AE030E040E050E09E
:1011A0000E945A0FE1E0F0E0EC0FFD1FE10FF11D8E
:1011B000605D6083C22ED32EE42EF52E1F5FC11416
:1011C000D104E104F10431F7412F50E0E1E0F0E017
:1011D000EC0FFD1FE40FF51F108280E017C0282FD1
:1011E00030E0A1E0B0E0AC0FBD1FA20FB31F9C9197
:1011F000FA01E21BF30B319721E030E02C0F3D1F89
:10120000E20FF31F20812C9390838F5F912F96958F
:10121000891728F3CE0101960E9470082C960FB60C
:10122000F894DEBF0FBECDBFDF91CF911F91FF902D
:10123000EF90DF90CF90BF90AF909F908F900895E8
:101240000E9470000E949000FDCF8032C0F5623095
:10125000C0F5E82FE695E695E6958770611117C011
:10126000F0E0EE0FFF1FEE57FE4F0190F081E02DF2
:10127000408121E030E0B90102C0660F771F8A95F6
:10128000E2F7CB0180958423808380E0089561306C
:10129000D1F4F0E0EE0FFF1FEE57FE4F0190F0810A
:1012A000E02D408121E030E0B90102C0660F771FD8
:1012B0008A95E2F7CB01842B808380E008958FEF3D
:1012C00008958FEF089580E008958032C0F5623070
:1012D000C0F5E82FE695E695E6958770611117C091
:1012E000F0E0EE0FFF1FE657FE4F0190F081E02D7A
:1012F000408121E030E0B90102C0660F771F8A9576
:10130000E2F7CB0180958423808380E008956130EB
:10131000D1F4F0E0EE0FFF1FE657FE4F0190F08191
:10132000E02D408121E030E0B90102C0660F771F57
:101330008A95E2F7CB01842B808380E008958FEFBC
:1013400008958FEF089580E008958032D8F4E82F53
:10135000E695E695E6958770F0E0EE0FFF1FE658FC
:10136000FE4F0190F081E02D208130E0A90102C004
:10137000559547958A95E2F7CA018170FB018083F4
:1013800080E008958FEF0895813019F4789480E01B
:101390000895811102C0F894089581E00895CF93D3
:1013A000DF93C82FD62F81E00E94C409C13099F184
:1013B00020F0C23009F45DC072C0D11107C085B7FA
:1013C0008E7F85BF85B78D7F85BF20C0D13039F432
:1013D00085B78E7F85BF85B7826085BF17C0D23045
:1013E00039F485B7816085BF85B7826085BF0EC03F
:1013F000D33039F485B7816085BF85B78D7F85BFD0
:1014000005C080E00E94C40981E04DC08BB78064B4
:101410008BBF80E048C0D11107C085B78B7F85BFE7
:1014200085B7877F85BF20C0D13039F485B78B7FE2
:1014300085BF85B7886085BF17C0D23039F485B7BE
:10144000846085BF85B7886085BF0EC0D33039F40E
:1014500085B7846085BF85B7877F85BF05C080E07D
:101460000E94C40981E01FC08BB780688BBF80E0F9
:101470001AC0D13021F484B78F7B84BF0BC0D23027
:1014800021F484B7806484BF05C080E00E94C40951
:1014900081E009C08BB780628BBF80E004C080E030
:1014A0000E94C40981E0DF91CF910895811105C0A8
:1014B0007093BC026093BB020895813031F4709345
:1014C000BA026093B90280E00895823031F47093DB
:1014D000B8026093B70280E0089581E008951F92FA
:1014E0000F920FB60F9211242F933F934F935F9358
:1014F0006F937F938F939F93AF93BF93EF93FF93DC
:10150000E091BB02F091BC02309709F00995FF9180
:10151000EF91BF91AF919F918F917F916F915F916B
:101520004F913F912F910F900FBE0F901F901895E4
:101530001F920F920FB60F9211242F933F934F9348
:101540005F936F937F938F939F93AF93BF93EF932B
:10155000FF93E091B902F091BA02309709F0099532
:10156000FF91EF91BF91AF919F918F917F916F917B
:101570005F914F913F912F910F900FBE0F901F9051
:1015800018951F920F920FB60F9211242F933F932D
:101590004F935F936F937F938F939F93AF93BF937B
:1015A000EF93FF93E091B702F091B802309709F002
:1015B0000995FF91EF91BF91AF919F918F917F918D
:1015C0006F915F914F913F912F910F900FBE0F90B0
:1015D0001F9018958DB180618DB98DB19EB18E7FB0
:1015E0009C7F9EB98DB98DB19EB193609EB98DB926
:1015F0008DB1877F8DB98DB18B7F8DB98DB18064B1
:101600008DB9089561157105F9F08FB980E090E00A
:10161000DC0103C00196A11DB11D779907C0803A76
:1016200026E8920721E0A207B105A0F3803A964888
:10163000A140B10559F08FB1FB018083F1E2FA9529
:10164000F1F7000080E0089581E0089581E00895B9
:101650001F920F920FB60F9211242F933F938F93E7
:101660009F93EF93FF938FB18093FE029091CE02F0
:101670009F3011F41092CE02833259F09091CE0235
:10168000E92FF0E0E354FD4F80839F5F9093CE02FB
:1016900004C08091CE028093FF028091CF0290918E
:1016A0000003891788F42091CC023091CD022115D6
:1016B000310551F091E0980F9093CF02F901E80FB6
:1016C000F11D80818FB904C0891710F083E28FB9B2
:1016D000FF91EF919F918F913F912F910F900FBEAE
:1016E0000F901F901895813061F028F0823029F01A
:1016F000833029F00FC020E005C028E003C028E4B3
:1017000001C020E493B7977B93BF83B7822B83BF3D
:1017100080E0089581E008959FEF980F973040F49E
:1017200093B7987F93BF93B7892B83BF80E00895C9
:1017300081E0089583B7887F83BF12BE88B78E7F0C
:1017400088BF1092D202089582BF0895FC01892BB0
:1017500029F098B79170908380E0089581E0089512
:1017600088B7816088BF0895009761F003B600FED6
:1017700005C021E0FC01208380E00895FC01108277
:1017800080E0089581E008951F920F920FB60F92A6
:1017900011242F933F934F935F936F937F938F9376
:1017A0009F93AF93BF93EF93FF938091D00290915B
:1017B000D102892BB1F08091D2029091D30289138A
:1017C0000DC00E949A0B1092D20289B78E7F89BFFA
:1017D000E091D002F091D102099503C08F5F809310
:1017E000D202FF91EF91BF91AF919F918F917F9125
:1017F0006F915F914F913F912F910F900FBE0F907E
:101800001F901895843040F5813071F028F08230B7
:1018100099F08330C9F022C085B5877F85BD85B535
:101820008F7B85BD80E0089585B5877F85BD85B5B3
:10183000806485BD80E0089585B5886085BD85B5E7
:101840008F7B85BD80E0089585B5886085BD85B5B1
:10185000806485BD80E0089581E0089581E0089569
:10186000883070F48093DB029091DA02913051F469
:1018700095B5987F892B95B5892B85BD80E0089516
:1018800081E0089580E0089589B7806489BF8FB7AB
:1018900080688FBF80E0089595B58091DB02892B29
:1018A00085BD81E08093DA0280E0089585B5887F68
:1018B00085BD1092DA0280E008958F929F92AF92D8
:1018C000BF92CF92DF92EF92FF92683823E17207C6
:1018D0008105910508F060C06B017C01E091DB029D
:1018E000F0E0EE0FFF1FEE55FD4F6081718180E04B
:1018F00090E00E942B0E20E030E04AEF55E40E9479
:101900008A0D4B015C01C701B6010E942B0EA50197
:1019100094010E948A0D0E94FC0D611521E072075E
:101920008105910529F481E08093D90280E039C0D6
:101930006F3F71058105910509F078F420E031E0F1
:10194000C901861B970B9093D8028093D70284BD60
:1019500081E08093D90280E024C0613021E07207E9
:1019600081059105D8F07093D902772780E091E046
:10197000861B970B9093D8028093D70284BD8091E9
:10198000D7029091D802892B59F08091D9028F5FAC
:101990008093D90280E005C081E003C080E001C0EF
:1019A00080E0FF90EF90DF90CF90BF90AF909F903E
:1019B0008F900895009721F09093D6028093D502DE
:1019C00008951F920F920FB60F9211242F933F93F9
:1019D0004F935F936F937F938F939F93AF93BF9337
:1019E000EF93FF938091D4028F5F8093D402909104
:1019F000D90289130CC0E091D502F091D60230973C
:101A000031F01092D40209958091D70284BDFF91E4
:101A1000EF91BF91AF919F918F917F916F915F9166
:101A20004F913F912F910F900FBE0F901F901895DF
:101A30005058BB27AA270E94300D0C94A30E0E9479
:101A4000950E38F00E949C0E20F039F49F3F19F457
:101A500026F40C94920E0EF4E095E7FB0C948C0E99
:101A6000E92F0E94B40E58F3BA1762077307840770
:101A7000950720F079F4A6F50C94D60E0EF4E095B7
:101A80000B2EBA2FA02D0B01B90190010C01CA0138
:101A9000A0011124FF27591B99F0593F50F4503EE3
:101AA00068F11A16F040A22F232F342F4427585FD5
:101AB000F3CF469537952795A795F0405395C9F7ED
:101AC0007EF41F16BA0B620B730B840BBAF09150A5
:101AD000A1F0FF0FBB1F661F771F881FC2F70EC044
:101AE000BA0F621F731F841F48F487957795679517
:101AF000B795F7959E3F08F0B0CF9395880F08F003
:101B00009927EE0F9795879508950E94680E08F41F
:101B100081E008950E949E0D0C94A30E0E949C0EDD
:101B200058F00E94950E40F029F45F3F29F00C9484
:101B30008C0E51110C94D70E0C94920E0E94B40E80
:101B400068F39923B1F3552391F3951B550BBB27EC
:101B5000AA2762177307840738F09F5F5F4F220F31
:101B6000331F441FAA1FA9F335D00E2E3AF0E0E828
:101B700032D091505040E695001CCAF72BD0FE2F72
:101B800029D0660F771F881FBB1F26173707480706
:101B9000AB07B0E809F0BB0B802DBF01FF279358BE
:101BA0005F4F3AF09E3F510578F00C948C0E0C94E8
:101BB000D70E5F3FE4F3983ED4F38695779567950B
:101BC000B795F7959F5FC9F7880F911D96958795F3
:101BD00097F90895E1E0660F771F881FBB1F621712
:101BE00073078407BA0720F0621B730B840BBA0BD0
:101BF000EE1F88F7E09508950E94BC0E88F09F576D
:101C000098F0B92F9927B751B0F0E1F0660F771F20
:101C1000881F991F1AF0BA95C9F714C0B13091F016
:101C20000E94D60EB1E008950C94D60E672F782F3F
:101C30008827B85F39F0B93FCCF3869577956795DB
:101C4000B395D9F73EF490958095709561957F4F47
:101C50008F4F9F4F0895E89409C097FB3EF49095ED
:101C60008095709561957F4F8F4F9F4F9923A9F075
:101C7000F92F96E9BB279395F69587957795679504
:101C8000B795F111F8CFFAF4BB0F11F460FF1BC048
:101C90006F5F7F4F8F4F9F4F16C0882311F096E9DB
:101CA00011C0772321F09EE8872F762F05C0662389
:101CB00071F096E8862F70E060E02AF09A95660F42
:101CC000771F881FDAF7880F9695879597F90895FB
:101CD000990F0008550FAA0BE0E8FEEF161617063D
:101CE000E807F907C0F012161306E407F50798F0A5
:101CF000621B730B840B950B39F40A2661F0232BBE
:101D0000242B252B21F408950A2609F4A140A69539
:101D10008FEF811D811D089597F99F6780E870E01E
:101D200060E008959FEF80EC089500240A94161651
:101D3000170618060906089500240A9412161306B9
:101D4000140605060895092E0394000C11F4882347
:101D500052F0BB0F40F4BF2B11F460FF04C06F5F63
:101D60007F4F8F4F9F4F089557FD9058440F551F39
:101D700059F05F3F71F04795880F97FB991F61F00D
:101D80009F3F79F087950895121613061406551F84
:101D9000F2CF4695F1DF08C0161617061806991FF0
:101DA000F1CF86957105610508940895E894BB27E5
:101DB00066277727CB0197F908950E94F00E0C94BF
:101DC000A30E0E94950E38F00E949C0E20F09523E1
:101DD00011F00C948C0E0C94920E11240C94D70ECE
:101DE0000E94B40E70F3959FC1F3950F50E0551FFC
:101DF000629FF001729FBB27F00DB11D639FAA2760
:101E0000F00DB11DAA1F649F6627B00DA11D661FAE
:101E1000829F2227B00DA11D621F739FB00DA11DCF
:101E2000621F839FA00D611D221F749F3327A00D89
:101E3000611D231F849F600D211D822F762F6A2F25
:101E400011249F5750409AF0F1F088234AF0EE0F8A
:101E5000FF1FBB1F661F771F881F91505040A9F7B7
:101E60009E3F510580F00C948C0E0C94D70E5F3F72
:101E7000E4F3983ED4F3869577956795B795F795F3
:101E8000E7959F5FC1F7FE2B880F911D969587956B
:101E900097F90895DB018F939F930E947C0FBF9168
:101EA000AF91A29F800D911DA39F900DB29F900DA9
:101EB00011240895A1E21A2EAA1BBB1BFD010DC01F
:101EC000AA1FBB1FEE1FFF1FA217B307E407F507EA
:101ED00020F0A21BB30BE40BF50B661F771F881FC6
:101EE000991F1A9469F760957095809590959B015C
:101EF000AC01BD01CF0108950E94870FA59F900DF1
:101F0000B49F900DA49F800D911D11240895A29F50
:101F1000B001B39FC001A39F700D811D1124911DBD
:101F2000B29F700D811D1124911D0895662777279A
:101F30000C94AA0FFB01DC018D9101908019011016
:101F4000D9F3990B0895FB01DC0101900D9200205B
:101F5000E1F70895A0E0B0E0E0EBFFE00C9422117F
:101F6000EC016B016115710519F0FB019183808310
:101F70007E01FFEFEF1AFF0A0881802F90E00E9498
:101F8000F810892B11F0E701F3CF0D3239F47E01FF
:101F900082E0E80EF11C098111E008C00B3229F43F
:101FA0007E0192E0E90EF11C098110E0E701219722
:101FB00043E050E06CE570E0CE010E940111892BF6
:101FC000C1F4239645E050E067E570E0CE010E9441
:101FD0000111892B09F42596C114D10419F0F601D9
:101FE000D183C0831111F6C060E070E080E89FE704
:101FF000FAC043E050E064E570E0CE010E940111B8
:10200000892B59F4C114D10409F4E9C0F2E0EF0EB0
:10201000F11CF601F182E082E2C020E030E0A9018B
:10202000C0E0D0E0F70180EDA82EA00E89E08A156F
:1020300030F1912F9260B92E812F887012FF04C069
:10204000811124C0219622C081112197A5E0B0E022
:102050000E947C0FDC01CB01880F991FAA1FBB1FB8
:102060009C01AD012A0D311D411D511D283989E901
:102070003807480789E1580748F0166006C09EEF08
:10208000A9120AC013FD40C01860B12E8FEFE81AE4
:10209000F80A00811B2DC6CF802F8F7D8534A1F5D6
:1020A00080818D3211F4106106C08B3221F031969F
:1020B00061E070E004C08181329662E070E080539C
:1020C0008A3018F0E61BF70B1FC060E070E0603844
:1020D0009CE079075CF4DB01AA0FBB1FAA0FBB1FB2
:1020E0006A0F7B1F660F771F680F711D3196DF0126
:1020F00011978C9180538A3050F314FF03C071956F
:1021000061957109C60FD71F11FF08C0C114D10412
:1021100029F0CF010197F60191838083CA01B901AB
:102120000E942B0E212F2370233019F04B015C01EC
:1021300006C04B015C01B7FAB094B7F8B09420E048
:1021400030E0A901C501B4010E94850D882309F47E
:102150003EC0D7FF06C0D195C195D10903E710E075
:1021600002C00BE810E06801F8E1CF1AD10890E254
:10217000E92EF12CCE15DF0574F0F801259135918B
:1021800045915491C501B4010E94DD0E4B015C01E3
:10219000CE19DF09EFCF04501109F594E7940C151F
:1021A0001D0541F78A2D880F8B2D881F8F3F49F021
:1021B00020E030E0A901C501B4010E94850D811124
:1021C00006C082E290E09093020380930103C50170
:1021D000B40109C060E070E080E89FEF04C060E0F7
:1021E00070E080EC9FE7CDB7DEB7ECE00C943E11D9
:1021F00091110C941911803219F089508550C8F74B
:102200000895FB01DC014150504088F08D918134EC
:102210001CF08B350CF4805E659161341CF06B35DD
:102220000CF4605E861B611171F3990B0895881B95
:10223000FCCF9927882708952F923F924F925F9263
:102240006F927F928F929F92AF92BF92CF92DF92C6
:10225000EF92FF920F931F93CF93DF93CDB7DEB72B
:10226000CA1BDB0B0FB6F894DEBF0FBECDBF0994BF
:102270002A88398848885F846E847D848C849B8416
:10228000AA84B984C884DF80EE80FD800C811B8124
:10229000AA81B981CE0FD11D0FB6F894DEBF0FBE53
:0A22A000CDBFED010895F894FFCFC3
:1022AA0001303030302E303000303030302E303087
:1022BA00000200606A46013232323431323234313D
:1022CA00323234313232340000000000FE58470105
:1022DA0034333134343331343433313434333134C4
:1022EA003400000000E0E944003132333435363737
:1022FA003839313233343536373839340000C82F5B
:10230A00470034343137313233343536373839319E
:10231A00313300000000000000000000000000004F
:10232A0000000000000000000000000000000000A3
:10233A000000000000000000000000000000000093
:10234A000000000000000000000000000000000083
:10235A000000000000000000000000000000000073
:10236A000000000000000000000000000000000063
:10237A000000000000000000000000000000000053
:10238A000000000000000000000000000000000043
:10239A000000000000000000000000000000000033
:1023AA000000000000000000000000000B31323382
:1023BA003435363738390405060739003600330014
:1023CA0030003A003700340031003B003800350055
:1023DA0032004C4F434B454400546869732069737B
:1023EA00206100467261756420436172640054681A
:1023FA0069732043617264200069732053746F6C9F
:10240A00656E004D6178204C696D697420006973AE
:10241A0020457863656564656400494E53554646B0
:10242A00494349454E54200046554E440057656C71
:10243A00636F6D6520546F2041746D00496E73653A
:10244A00727420596F757220436172640041707012
:10245A00726F766564005472616E73616374696F3A
:10246A006E0052656D61696E696E670042616C61EA
:10247A006E6365202000456A656374696E67204350
:10248A0061726400456E74657220596F75722070AE
:10249A00696E0053686F72742050696E0050494E1D
:1024AA005F4D4154434845440050494E5F4E4F5496
:1024BA005F4D41544348454400454E5445522061BE
:1024CA006D6F756E74005265636569766564200088
:1024DA00353030302E30300001000800400009014C
:0E24EA00000400000100080040000001000492
:00000001FF
