S00F000041544D5F4D43552E73726563EF
S11300000C9448000C94650A0C948E0A0C94B70A5C
S11300100C9465000C94D70C0C9465000C9465004A
S11300200C9465000C9465000C9465000C94BA0B58
S11300300C941E0B0C9465000C9465000C946500E4
S11300400C9465000C9465000C9465000C94650098
S11300500C9465004E414E494E495459494E46CD83
S1130060CCCC3D0AD7233C17B7D13877CC2B32956B
S113007095E6241FB14F0A000020410000C8420049
S1130080401C4620BCBE4CCA1B0E5AAEC59D740013
S113009011241FBECFE5D8E0DEBFCDBF12E0A0E63D
S11300A0B0E0E6E9F2E202C005900D92A43AB1078D
S11300B0D9F722E0A4EAB2E001C01D92A93FB20739
S11300C0E1F70E9416090C9449110C940000109257
S11300D0600008958091A6028F5F8093A602089520
S11300E00E94D2050E94A1058AE690E00E94B30511
S11300F00E948C070E94920447E650E063E080E08F
S11301000E94BB058CE691E00E947A048AE00E947A
S113011073044FE851E062E082E00E94BB05089559
S113012080916000813079F118F08230B1F1089546
S11301301092A50288EA92E00E943102843009F408
S1130140EDC00E946D03811104C082E080936000C1
S113015008958091A4028F5F8093A402833009F0F4
S1130160DDC00E943F0864E080E00E94520882E9FA
S113017091E00E9466088CE691E00E94690383E0A6
S11301808093600008958091A5028111C7C00E94E8
S1130190C30181E08093A502089589E690E00E945E
S11301A0CA0261E670E089E690E00E94900F892B14
S11301B009F4B4C00E943F0842ED52E069E670E0E1
S11301C080EE92E00E944E048093D602823009F4BD
S11301D043C028F4882351F08130F9F00895833026
S11301E009F459C0843009F479C008956091D202A9
S11301F07091D3028091D4029091D5020E94DF01C4
S113020085E40E94AD0461E670E089E690E00E9416
S1130210990F81E08093600008958CE691E00E943C
S1130220690364E080E00E94520889E991E00E9439
S1130230660862E081E00E94520883EA91E00E942D
S1130240660842E061E070E080E090E00E94FB0418
S113025083E08093600008958CE691E00E94690336
S113026064E080E00E9452088EEA91E00E946608F1
S113027062E081E00E94520889EB91E00E946608E6
S113028042E061E070E080E090E00E94FB0483E0E3
S113029080936000089564E080E00E94520883EC3B
S11302A091E00E94660862E081E00E9452088EECB0
S11302B091E00E94660842E061E070E080E090E036
S11302C00E94FB040E943F0861E670E089E690E02A
S11302D00E94990F82E080936000089564E080E0BA
S11302E00E9452088AED91E00E94660865E081E070
S11302F00E94520888EE91E00E94660842E061E0A4
S113030070E080E090E00E94FB0461E670E089E622
S113031090E00E94990F82E080936000089580919C
S1130320A702811110C064E670E080E090E00E94B2
S1130330AB054FE851E061E082E00E94BB0581E03B
S11303408093A70208958130E9F40E94B00580915A
S1130350A6029FEF980F933118F41092710005C014
S1130360843118F081E0809371001092A6024FE866
S113037051E062E082E00E94BB058AE00E947304BF
S11303801092A70208950E943F0860E080E00E9456
S113039052088DEE91E00E94660842E061E070E050
S11303A080E090E00E94FB040E943F0860E080E04F
S11303B00E9452088CEF91E00E9466080895CF9243
S11303C0DF92EF92FF926B017C0164E080E00E9477
S11303D052088DE092E00E94660862E081E00E948B
S11303E0520886E192E00E94660842E061E070E013
S11303F080E090E00E94FB040E943F0864E080E0FB
S11304000E94520882E292E00E94660860E081E065
S11304100E9452088CE292E00E946608C701B6016D
S11304200E947E0842E061E070E080E090E00E947B
S1130430FB040E943F0861E080E00E94520886E3CA
S113044092E00E94660842E061E070E080E090E0A3
S11304500E94FB040E943F08FF90EF90DF90CF9032
S113046008950F931F93CF93DF938C010E943F084D
S113047060E080E00E94520884E492E00E946608F2
S113048060E081E00E94520882E080937100C0E045
S11304902EC00E941D07811117C080917100811127
S11304A026C082E080937100F801EC0FF11D80E317
S11304B08083D1E0DC0F6C2F81E00E9452088AE235
S11304C00E94DB07CD2F13C0D801AC0FB11DE82F5C
S11304D0F0E0E459FE4F80818C93D1E0DC0F6C2F67
S11304E081E00E9452088AE20E94DB07CD2FC430CB
S11304F020F480917100813061F6C430B0F482E060
S1130500809371000E943F0860E080E00E945208DE
S113051083E592E00E94660842E061E070E080E0DA
S113052090E00E94FB0484E001C083E0DF91CF915E
S11305301F910F910895009749F16115710541F1DB
S11305400E94900F892B89F40E943F088DE592E068
S11305500E9466082FE382E49FE02150804090408F
S1130560E1F700C0000080E008950E943F0889E69A
S113057092E00E9466082FE382E49FE021508040CD
S11305809040E1F700C0000081E0089582E0089502
S113059082E00895DF92EF92FF920F931F93CF931F
S11305A0DF937C010E943F0860E080E00E945208D3
S11305B089E792E00E94660860E081E00E945208A8
S11305C0C7010E94660882E080937100D12C71C03B
S11305D00E941D07D82F811159C08091710081118B
S11305E068C082E080937100C0E020C0C33079F419
S11305F087010C0F111DF801828180836C2F81E02B
S11306000E945208F80180810E94DB07C5E087013F
S11306100C0F111DF801818180836C2F81E00E94F1
S11306205208F80180810E94DB07CF5FC630F0F2E8
S113063080E3F701868366E081E00E945208F701B7
S113064086810E94DB07D39434C0C33079F48701D8
S11306500C0F111DF801828180836C2F81E00E94B0
S11306605208F80180810E94DB07C5E087010C0F66
S1130670111DF801818180836C2F81E00E94520852
S1130680F80180810E94DB07CF5F01C0C0E0C63063
S1130690E0F2ED2FF0E0E459FE4F8081F70186830C
S11306A066E081E00E945208F70186810E94DB0720
S11306B0D394F5E0FD1528F080917100813009F0A4
S11306C087CFDF91CF911F910F91FF90EF90DF9033
S11306D0089561E00E948804089580E50E94AD04B5
S11306E081EE94E00197F1F700C0000065E087ED2A
S11306F092E00E94C70487E40E94AD0481EE94E076
S11307000197F1F700C0000064E180EE92E00E94DE
S1130710C70468EA72E087ED92E00E949B020895A4
S113072066E872E00E94900F181614F080E00895B5
S113073083E008950F931F93CF938C01C0E00CC006
S113074089E1C89FB001112469587F4FC8010E94F4
S1130750900F882329F0CF5FCA3090F381E001C065
S113076080E0CF911F910F910895EF92FF920F9324
S11307701F93CF937C01C0E01DC00C2F10E089E1D2
S1130780809FB001819F700D112469587F4FC7016C
S11307900E94900F81110DC089E1809FF001819F1B
S11307A0F00D1124EE58FF4F8481882339F082E044
S11307B006C0CF5FCA3008F382E001C080E0CF9169
S11307C01F910F91FF90EF9008954F925F926F9257
S11307D07F928F929F92AF92BF92CF92DF92EF92CD
S11307E0FF920F931F93CF937C01CB016A010E9468
S11307F08C0F4B015C01C0E03DC00C2F10E089E17F
S1130800809FB001819F700D112469587F4FC701EB
S11308100E94900F81112DC089E1809FF001819F7A
S1130820F00D1124EE58FF4F408051806280738098
S1130830A3019201C501B4010E947B0D1816CCF0EE
S1130840A5019401C301B2010E940E0D29E1209F6C
S1130850F001219FF00D1124EE58FF4F6083718346
S113086082839383F601608371838283938380E020
S113087005C0CF5FCA3008F4C0CF84E0CF911F9188
S11308800F91FF90EF90DF90CF90BF90AF909F902B
S11308908F907F906F905F904F900895EF92FF92AA
S11308A00F931F93CF93DF93EC018B017A010E9486
S11308B09A03813089F0CE010E94B503823061F041
S11308C0C8010E949003833039F0A701B801CE011A
S11308D00E94E503843001F0DF91CF911F910F91C5
S11308E0FF90EF900895803218F461E00E945B0954
S11308F081E00895CF93DF93EC0161E088810E9449
S11309001B0960E088810E945B09DF91CF91089503
S1130910009731F0FC0180810E945B0980E008951A
S113092081E0089561E08DE00E941B0961E08FE0A1
S11309300E941B0961E08CE00E941B0961E08CE0CD
S11309400E945B0960E08EE00E941B0962E08AE07D
S11309500E94C5090E94E00A08951F93CF93DF9374
S11309601F92CDB7DEB7182F60E08CE00E945B09C0
S1130970BE016F5F7F4F812F0E94F80A61E08CE017
S11309800E945B090F90DF91CF911F910895CF9240
S1130990DF92EF92FF920F931F93CF93DF931F92F7
S11309A0CDB7DEB76C01062F60E08CE00E945B09D6
S11309B0BE016F5F7F4F83E20E94F80A10E0760168
S11309C0E10EF11CB70183E20E94F80A1F5FF701F0
S11309D08081833211F0101790F361E08CE00E9463
S11309E05B090F90DF91CF911F910F91FF90EF90D2
S11309F0DF90CF9008958F929F92AF92BF92CF9243
S1130A00DF92EF92FF920F931F93CF93DF9300D067
S1130A10CDB7DEB76B017C01423059F49B01AC01C8
S1130A2060E472E48FE090E00E94400F6B017C016F
S1130A300DC0413049F4A8EEB3E09B01AC010E9423
S1130A40720F6B017C0102C041116BC088E8C816AB
S1130A5083E1D806E104F104C8F088EAC81681E607
S1130A60D806E104F104A0F088E4C81688EED8069C
S1130A7081E0E806F10470F080E2C81681EAD80645
S1130A8087E0E806F10440F414E007C011E005C073
S1130A9012E003C013E001C015E0E12FF0E031974C
S1130AA0EE0FFF1FE257FD4F6081718176956795C8
S1130AB0769567957695679580E090E00E94210E83
S1130AC04B015C01C701B6010E94210EA5019401EE
S1130AD00E94800D0E94F20DF62E072F80E00E94E6
S1130AE0690B8F2D81950E949A0B812F0E94820B96
S1130AF010E011C0CE0101960E949C0BCE0102961B
S1130B000E94AA0B8981811103C08A818111F2CFCD
S1130B100E94A60B1F5F011768F70E94900B80E0EC
S1130B2001C081E00F900F90DF91CF911F910F9141
S1130B30FF90EF90DF90CF90BF90AF909F908F90F9
S1130B40089580E00E94F80B84E00E94260C0E9425
S1130B503A0C80E008950E94530C0E94420C0895C0
S1130B600E944C0C0895009721F00E94D00C80E064
S1130B70089581E008950F931F93CF93C82F8A019E
S1130B800E94C509811107C0B8018C2F0E944C0A2C
S1130B90811103C003C081E001C081E0CF911F91A6
S1130BA00F91089561E082E10E941B0961E083E1F5
S1130BB00E941B0961E084E10E941B0960E085E159
S1130BC00E941B0960E086E10E941B0960E087E146
S1130BD00E941B090895CF93DF931F92CDB7DEB710
S1130BE061E085E10E945B0961E086E10E945B09A6
S1130BF061E087E10E945B0961E083E10E945B0997
S1130C0061E084E10E945B0960E082E10E945B098B
S1130C1081E08983BE016F5F7F4F85E10E949B095C
S1130C208981882339F00BC0BE016F5F7F4F85E156
S1130C300E949B0989818823B9F381E02EC081E059
S1130C408983BE016F5F7F4F86E10E949B09898182
S1130C50882339F00BC0BE016F5F7F4F86E10E948D
S1130C609B0989818823B9F382E017C081E08983D5
S1130C70BE016F5F7F4F87E10E949B0989818823B2
S1130C8041F080E00AC0BE016F5F7F4F87E10E94A0
S1130C909B0989818823B9F383E00F90DF91CF9179
S1130CA00895CF93DF931F92CDB7DEB761E085E15E
S1130CB00E945B0961E086E10E945B0961E087E1D3
S1130CC00E945B0961E082E10E945B0961E084E1CA
S1130CD00E945B0960E083E10E945B0981E08983F3
S1130CE0BE016F5F7F4F85E10E949B098981882344
S1130CF039F00BC0BE016F5F7F4F85E10E949B09F5
S1130D0089818823B9F384E02EC081E08983BE0100
S1130D106F5F7F4F86E10E949B098981882339F0A8
S1130D200BC0BE016F5F7F4F86E10E949B098981E2
S1130D308823B9F385E017C081E08983BE016F5F22
S1130D407F4F87E10E949B098981882341F080E0DD
S1130D500AC0BE016F5F7F4F87E10E949B098981B2
S1130D608823B9F386E00F90DF91CF910895CF9354
S1130D70DF931F92CDB7DEB761E085E10E945B0986
S1130D8061E086E10E945B0961E087E10E945B0902
S1130D9061E082E10E945B0961E083E10E945B09FA
S1130DA060E084E10E945B0981E08983BE016F5F9A
S1130DB07F4F85E10E949B098981882339F00BC00C
S1130DC0BE016F5F7F4F85E10E949B098981882363
S1130DD0B9F387E02EC081E08983BE016F5F7F4F46
S1130DE086E10E949B098981882339F00BC0BE01EA
S1130DF06F5F7F4F86E10E949B0989818823B9F345
S1130E0088E017C081E08983BE016F5F7F4F87E16F
S1130E100E949B098981882341F080E00AC0BE01B9
S1130E206F5F7F4F87E10E949B0989818823B9F313
S1130E3089E00F90DF91CF9108950E94EB05811115
S1130E4006C00E945106811102C00E94B70608958F
S1130E501F93CF93DF93D82F60E082E00E945B0959
S1130E6060E081E00E945B091D2F12951F70C0E0B5
S1130E7011C0EC2FF0E0612F70E00C2E02C07595CC
S1130E8067950A94E2F76170EA58FE4F80810E94E8
S1130E905B09CF5FC43068F361E083E00E945B09C3
S1130EA089EF90E00197F1F700C0000060E083E073
S1130EB00E945B0992E49A95F1F700C0DF70C0E0EC
S1130EC011C0EC2FF0E06D2F70E00C2E02C0759570
S1130ED067950A94E2F76170EA58FE4F80810E9498
S1130EE05B09CF5FC43068F361E083E00E945B0973
S1130EF089EF90E00197F1F700C0000060E083E023
S1130F000E945B0983EF91E00197F1F700C00000B4
S1130F10DF91CF911F910895CF93C0E009C0EC2FCA
S1130F20F0E0EA58FE4F61E080810E941B09CF5F28
S1130F30C430A8F361E081E00E941B0961E082E013
S1130F400E941B0961E083E00E941B098FE097E285
S1130F500197F1F700C0000082E00E94280789EFA2
S1130F6090E00197F1F700C0000088E20E94280792
S1130F7089EF90E00197F1F700C0000081E00E9442
S1130F80280787EE93E00197F1F700C0000086E0A0
S1130F900E94280789EF90E00197F1F700C0000054
S1130FA08EE00E94280789EF90E00197F1F700C0D6
S1130FB00000CF9108951F93CF93DF93D82F60E063
S1130FC082E00E945B0961E081E00E945B091D2FC1
S1130FD012951F70C0E011C0EC2FF0E0612F70E09B
S1130FE00C2E02C0759567950A94E2F76170EA5871
S1130FF0FE4F80810E945B09CF5FC43068F361E0DB
S113100083E00E945B0989EF90E00197F1F700C04B
S1131010000060E083E00E945B0992E49A95F1F796
S113102000C0DF70C0E011C0EC2FF0E06D2F70E065
S11310300C2E02C0759567950A94E2F76170EA5820
S1131040FE4F80810E945B09CF5FC43068F361E08A
S113105083E00E945B0989EF90E00197F1F700C0FB
S1131060000060E083E00E945B0983EF91E0019758
S1131070F1F700C00000DF91CF911F91089581E046
S11310800E94280787EE93E00197F1F700C0000063
S113109082E00E94280787EE93E00197F1F700C0F1
S11310A000000895811108C0603130F4862F8F70DC
S11310B080680E9428070895813039F4603128F44B
S11310C0862F8F70806C0E94280708950F931F93BA
S11310D0CF93DF938C01FC018081C0E0D0E007C096
S11310E00E94DB072196F801EC0FFD1F808181111E
S11310F0F7CFDF91CF911F910F9108958F929F9217
S1131100AF92BF92CF92DF92EF92FF921F93CF9351
S1131110DF93CDB7DEB72C970FB6F894DEBF0FBEC2
S1131120CDBF4B015C010E94F20D6B01E12CF12C4F
S1131130C701B6010E94210E9B01AC01C501B40197
S11311400E940E0D20E030E048EC52E40E94D30EE1
S11311500E94F20D8DEC689F812D11248695869551
S11311608695282F220F922F990F990F920F691BA2
S1131170605D6983805D8A838EE28B8313E015C092
S1131180C701B6012AE030E040E050E00E94500F71
S1131190E1E0F0E0EC0FFD1FE10FF11D605D608305
S11311A0C22ED32EE42EF52E1F5FC114D104E10408
S11311B0F10431F7412F50E0E1E0F0E0EC0FFD1FC6
S11311C0E40FF51F108280E017C0282F30E0A1E063
S11311D0B0E0AC0FBD1FA20FB31F9C91FA01E21B3C
S11311E0F30B319721E030E02C0F3D1FE20FF31F8A
S11311F020812C9390838F5F912F9695891728F3E4
S1131200CE0101960E9466082C960FB6F894DEBFB4
S11312100FBECDBFDF91CF911F91FF90EF90DF9074
S1131220CF90BF90AF909F908F9008950E947000D0
S11312300E949000FDCF8032C0F56230C0F5E82FE7
S1131240E695E695E6958770611117C0F0E0EE0F1C
S1131250FF1FEE57FE4F0190F081E02D408121E009
S113126030E0B90102C0660F771F8A95E2F7CB011F
S113127080958423808380E008956130D1F4F0E088
S1131280EE0FFF1FEE57FE4F0190F081E02D4081DD
S113129021E030E0B90102C0660F771F8A95E2F7BA
S11312A0CB01842B808380E008958FEF08958FEF26
S11312B0089580E008958032C0F56230C0F5E82FCB
S11312C0E695E695E6958770611117C0F0E0EE0F9C
S11312D0FF1FE657FE4F0190F081E02D408121E091
S11312E030E0B90102C0660F771F8A95E2F7CB019F
S11312F080958423808380E008956130D1F4F0E008
S1131300EE0FFF1FE657FE4F0190F081E02D408164
S113131021E030E0B90102C0660F771F8A95E2F739
S1131320CB01842B808380E008958FEF08958FEFA5
S1131330089580E008958032D8F4E82FE695E69584
S1131340E6958770F0E0EE0FFF1FE658FE4F019020
S1131350F081E02D208130E0A90102C05595479528
S11313608A95E2F7CA018170FB01808380E00895C9
S11313708FEF0895813019F4789480E008958111F5
S113138002C0F894089581E00895CF93DF93C82FA5
S1131390D62F81E00E94BA09C13099F120F0C23001
S11313A009F45DC072C0D11107C085B78E7F85BFB7
S11313B085B78D7F85BF20C0D13039F485B78E7F46
S11313C085BF85B7826085BF17C0D23039F485B731
S11313D0816085BF85B7826085BF0EC0D33039F484
S11313E085B7816085BF85B78D7F85BF05C080E0E7
S11313F00E94BA0981E04DC08BB780648BBF80E046
S113140048C0D11107C085B78B7F85BF85B7877F5B
S113141085BF20C0D13039F485B78B7F85BF85B7B0
S1131420886085BF17C0D23039F485B7846085BF22
S113143085B7886085BF0EC0D33039F485B7846022
S113144085BF85B7877F85BF05C080E00E94BA0944
S113145081E01FC08BB780688BBF80E01AC0D13099
S113146021F484B78F7B84BF0BC0D23021F484B7BE
S1131470806484BF05C080E00E94BA0981E009C08D
S11314808BB780628BBF80E004C080E00E94BA0901
S113149081E0DF91CF910895811105C07093B2026C
S11314A06093B1020895813031F47093B002609377
S11314B0AF0280E00895823031F47093AE026093FD
S11314C0AD0280E0089581E008951F920F920FB657
S11314D00F9211242F933F934F935F936F937F93B6
S11314E08F939F93AF93BF93EF93FF93E091B102D8
S11314F0F091B202309709F00995FF91EF91BF91F5
S1131500AF919F918F917F916F915F914F913F9197
S11315102F910F900FBE0F901F9018951F920F924E
S11315200FB60F9211242F933F934F935F936F93B2
S11315307F938F939F93AF93BF93EF93FF93E09128
S1131540AF02F091B002309709F00995FF91EF9145
S1131550BF91AF919F918F917F916F915F914F91C7
S11315603F912F910F900FBE0F901F9018951F92CF
S11315700F920FB60F9211242F933F934F935F93C3
S11315806F937F938F939F93AF93BF93EF93FF9347
S1131590E091AD02F091AE02309709F00995FF9108
S11315A0EF91BF91AF919F918F917F916F915F91D7
S11315B04F913F912F910F900FBE0F901F90189550
S11315C08DB180618DB98DB19EB18E7F9C7F9EB9A6
S11315D08DB98DB19EB193609EB98DB98DB1877F60
S11315E08DB98DB18B7F8DB98DB180648DB908951E
S11315F061157105F9F08FB980E090E0DC0103C05A
S11316000196A11DB11D779907C0803A26E892077B
S113161021E0A207B105A0F3803A9648A140B105A4
S113162059F08FB1FB018083F1E2FA95F1F70000E4
S113163080E0089581E0089581E008951F920F925B
S11316400FB60F9211242F933F938F939F93EF9391
S1131650FF938FB18093F4029091C4029F3011F4F0
S11316601092C402833259F09091C402E92FF0E041
S1131670ED54FD4F80839F5F9093C40204C080911A
S1131680C4028093F5028091C5029091F6028917F5
S113169088F42091C2023091C3022115310551F022
S11316A091E0980F9093C502F901E80FF11D808134
S11316B08FB904C0891710F083E28FB9FF91EF91BD
S11316C09F918F913F912F910F900FBE0F901F907C
S11316D01895813061F028F0823029F0833029F0A8
S11316E00FC020E005C028E003C028E401C020E4C6
S11316F093B7977B93BF83B7822B83BF80E0089512
S113170081E008959FEF980F973040F493B7987F46
S113171093BF93B7892B83BF80E0089581E0089538
S113172083B7887F83BF12BE88B78E7F88BF10922D
S1131730C802089582BF0895FC01892B29F098B747
S11317409170908380E0089581E0089588B7816066
S113175088BF0895009761F003B600FE05C021E03C
S1131760FC01208380E00895FC01108280E008954C
S113177081E008951F920F920FB60F9211242F93B8
S11317803F934F935F936F937F938F939F93AF9305
S1131790BF93EF93FF938091C6029091C702892B68
S11317A0B1F08091C8029091C90289130DC00E94C2
S11317B0900B1092C80289B78E7F89BFE091C60250
S11317C0F091C702099503C08F5F8093C802FF910F
S11317D0EF91BF91AF919F918F917F916F915F91A5
S11317E04F913F912F910F900FBE0F901F9018951E
S11317F0843040F5813071F028F0823099F08330E4
S1131800C9F022C085B5877F85BD85B58F7B85BD31
S113181080E0089585B5877F85BD85B5806485BDE5
S113182080E0089585B5886085BD85B58F7B85BDCD
S113183080E0089585B5886085BD85B5806485BDE3
S113184080E0089581E0089581E00895883070F47F
S11318508093D1029091D002913051F495B5987F44
S1131860892B95B5892B85BD80E0089581E0089585
S113187080E0089589B7806489BF8FB780688FBF7F
S113188080E0089595B58091D102892B85BD81E0D2
S11318908093D00280E0089585B5887F85BD10923D
S11318A0D00280E008958F929F92AF92BF92CF9220
S11318B0DF92EF92FF92683823E172078105910568
S11318C008F060C06B017C01E091D102F0E0EE0F02
S11318D0FF1FE856FD4F6081718180E090E00E9417
S11318E0210E20E030E04AEF55E40E94800D4B01C8
S11318F05C01C701B6010E94210EA50194010E945A
S1131900800D0E94F20D611521E072078105910599
S113191029F481E08093CF0280E039C06F3F7105E4
S11319208105910509F078F420E031E0C901861BB6
S1131930970B9093CE028093CD0284BD81E0809377
S1131940CF0280E024C0613021E072078105910557
S1131950D8F07093CF02772780E091E0861B970B35
S11319609093CE028093CD0284BD8091CD0290915C
S1131970CE02892B59F08091CF028F5F8093CF02E2
S113198080E005C081E003C080E001C080E0FF90FA
S1131990EF90DF90CF90BF90AF909F908F9008957D
S11319A0009721F09093CC028093CB0208951F926C
S11319B00F920FB60F9211242F933F934F935F937F
S11319C06F937F938F939F93AF93BF93EF93FF9303
S11319D08091CA028F5F8093CA029091CF028913CB
S11319E00CC0E091CB02F091CC02309731F0109210
S11319F0CA0209958091CD0284BDFF91EF91BF91F8
S1131A00AF919F918F917F916F915F914F913F9192
S1131A102F910F900FBE0F901F9018955058BB2711
S1131A20AA270E94260D0C94990E0E948B0E38F062
S1131A300E94920E20F039F49F3F19F426F40C947E
S1131A40880E0EF4E095E7FB0C94820EE92F0E94B9
S1131A50AA0E58F3BA17620773078407950720F094
S1131A6079F4A6F50C94CC0E0EF4E0950B2EBA2F57
S1131A70A02D0B01B90190010C01CA01A001112490
S1131A80FF27591B99F0593F50F4503E68F11A163C
S1131A90F040A22F232F342F4427585FF3CF4695CD
S1131AA037952795A795F0405395C9F77EF41F16EF
S1131AB0BA0B620B730B840BBAF09150A1F0FF0FB9
S1131AC0BB1F661F771F881FC2F70EC0BA0F621FA5
S1131AD0731F841F48F4879577956795B795F79595
S1131AE09E3F08F0B0CF9395880F08F09927EE0F2A
S1131AF09795879508950E945E0E08F481E00895F5
S1131B000E94940D0C94990E0E94920E58F00E941B
S1131B108B0E40F029F45F3F29F00C94820E511192
S1131B200C94CD0E0C94880E0E94AA0E68F399238F
S1131B30B1F3552391F3951B550BBB27AA276217C5
S1131B407307840738F09F5F5F4F220F331F441FD2
S1131B50AA1FA9F335D00E2E3AF0E0E832D0915006
S1131B605040E695001CCAF72BD0FE2F29D0660FF3
S1131B70771F881FBB1F261737074807AB07B0E836
S1131B8009F0BB0B802DBF01FF2793585F4F3AF03C
S1131B909E3F510578F00C94820E0C94CD0E5F3F5D
S1131BA0E4F3983ED4F3869577956795B795F795C2
S1131BB09F5FC9F7880F911D9695879597F90895AA
S1131BC0E1E0660F771F881FBB1F62177307840746
S1131BD0BA0720F0621B730B840BBA0BEE1F88F755
S1131BE0E09508950E94B20E88F09F5798F0B92F9F
S1131BF09927B751B0F0E1F0660F771F881F991F3E
S1131C001AF0BA95C9F714C0B13091F00E94CC0E05
S1131C10B1E008950C94CC0E672F782F8827B85F15
S1131C2039F0B93FCCF3869577956795B395D9F795
S1131C303EF490958095709561957F4F8F4F9F4F9F
S1131C400895E89409C097FB3EF4909580957095AB
S1131C5061957F4F8F4F9F4F9923A9F0F92F96E9F4
S1131C60BB279395F695879577956795B795F11169
S1131C70F8CFFAF4BB0F11F460FF1BC06F5F7F4F06
S1131C808F4F9F4F16C0882311F096E911C0772318
S1131C9021F09EE8872F762F05C0662371F096E821
S1131CA0862F70E060E02AF09A95660F771F881FF0
S1131CB0DAF7880F9695879597F90895990F000894
S1131CC0550FAA0BE0E8FEEF16161706E807F9070A
S1131CD0C0F012161306E407F50798F0621B730BA5
S1131CE0840B950B39F40A2661F0232B242B252B26
S1131CF021F408950A2609F4A140A6958FEF811DC9
S1131D00811D089597F99F6780E870E060E0089569
S1131D109FEF80EC089500240A94161617061806FF
S1131D200906089500240A941216130614060506DB
S1131D300895092E0394000C11F4882352F0BB0F6C
S1131D4040F4BF2B11F460FF04C06F5F7F4F8F4FCF
S1131D509F4F089557FD9058440F551F59F05F3F0A
S1131D6071F04795880F97FB991F61F09F3F79F0B9
S1131D7087950895121613061406551FF2CF46953B
S1131D80F1DF08C0161617061806991FF1CF8695BD
S1131D907105610508940895E894BB2766277727A1
S1131DA0CB0197F908950E94E60E0C94990E0E94B7
S1131DB08B0E38F00E94920E20F0952311F00C94B3
S1131DC0820E0C94880E11240C94CD0E0E94AA0E3F
S1131DD070F3959FC1F3950F50E0551F629FF0017A
S1131DE0729FBB27F00DB11D639FAA27F00DB11D93
S1131DF0AA1F649F6627B00DA11D661F829F22271C
S1131E00B00DA11D621F739FB00DA11D621F839FA2
S1131E10A00D611D221F749F3327A00D611D231F78
S1131E20849F600D211D822F762F6A2F11249F57C6
S1131E3050409AF0F1F088234AF0EE0FFF1FBB1FC9
S1131E40661F771F881F91505040A9F79E3F510588
S1131E5080F00C94820E0C94CD0E5F3FE4F3983E18
S1131E60D4F3869577956795B795F795E7959F5F32
S1131E70C1F7FE2B880F911D9695879597F90895C4
S1131E80DB018F939F930E94720FBF91AF91A29F2A
S1131E90800D911DA39F900DB29F900D1124089564
S1131EA0A1E21A2EAA1BBB1BFD010DC0AA1FBB1F5A
S1131EB0EE1FFF1FA217B307E407F50720F0A21BCC
S1131EC0B30BE40BF50B661F771F881F991F1A9439
S1131ED069F760957095809590959B01AC01BD0163
S1131EE0CF0108950E947D0FA59F900DB49F900D82
S1131EF0A49F800D911D11240895A29FB001B39F4A
S1131F00C001A39F700D811D1124911DB29F700DFE
S1131F10811D1124911D0895662777270C94A00F25
S1131F20FB01DC018D91019080190110D9F3990B0B
S1131F300895FB01DC0101900D920020E1F7089562
S1131F40A0E0B0E0E6EAFFE00C941811EC016B01AC
S1131F506115710519F0FB01918380837E01FFEF08
S1131F60EF1AFF0A0881802F90E00E94EE10892B5F
S1131F7011F0E701F3CF0D3239F47E0182E0E80E6F
S1131F80F11C098111E008C00B3229F47E0192E0B2
S1131F90E90EF11C098110E0E701219743E050E0CC
S1131FA06CE570E0CE010E94F710892BC1F42396F2
S1131FB045E050E067E570E0CE010E94F710892B00
S1131FC009F42596C114D10419F0F601D183C08314
S1131FD01111F6C060E070E080E89FE7FAC043E0CA
S1131FE050E064E570E0CE010E94F710892B59F4AB
S1131FF0C114D10409F4E9C0F2E0EF0EF11CF601BA
S1132000F182E082E2C020E030E0A901C0E0D0E04B
S1132010F70180EDA82EA00E89E08A1530F1912FEA
S11320209260B92E812F887012FF04C0811124C0E0
S1132030219622C081112197A5E0B0E00E94720F81
S1132040DC01CB01880F991FAA1FBB1F9C01AD01A6
S11320502A0D311D411D511D283989E938074807CA
S113206089E1580748F0166006C09EEFA9120AC01D
S113207013FD40C01860B12E8FEFE81AF80A0081F2
S11320801B2DC6CF802F8F7D8534A1F580818D32A5
S113209011F4106106C08B3221F0319661E070E0DA
S11320A004C08181329662E070E080538A3018F077
S11320B0E61BF70B1FC060E070E060389CE0790716
S11320C05CF4DB01AA0FBB1FAA0FBB1F6A0F7B1FA7
S11320D0660F771F680F711D3196DF0111978C9180
S11320E080538A3050F314FF03C0719561957109D0
S11320F0C60FD71F11FF08C0C114D10429F0CF01A6
S11321000197F60191838083CA01B9010E94210ECF
S1132110212F2370233019F04B015C0106C04B01C1
S11321205C01B7FAB094B7F8B09420E030E0A901AC
S1132130C501B4010E947B0D882309F43EC0D7FF7A
S113214006C0D195C195D10903E710E002C00BE8A0
S113215010E06801F8E1CF1AD10890E2E92EF12CE1
S1132160CE15DF0574F0F801259135914591549110
S1132170C501B4010E94D30E4B015C01CE19DF09E5
S1132180EFCF04501109F594E7940C151D0541F7A0
S11321908A2D880F8B2D881F8F3F49F020E030E077
S11321A0A901C501B4010E947B0D811106C082E220
S11321B090E09093F8028093F702C501B40109C03E
S11321C060E070E080E89FEF04C060E070E080ECC5
S11321D09FE7CDB7DEB7ECE00C94341191110C9469
S11321E00F11803219F089508550C8F70895FB010A
S11321F0DC014150504088F08D9181341CF08B35C6
S11322000CF4805E659161341CF06B350CF4605EF7
S1132210861B611171F3990B0895881BFCCF9927D4
S1132220882708952F923F924F925F926F927F92E8
S11322308F929F92AF92BF92CF92DF92EF92FF92D2
S11322400F931F93CF93DF93CDB7DEB7CA1BDB0B7E
S11322500FB6F894DEBF0FBECDBF09942A88398823
S113226048885F846E847D848C849B84AA84B9842A
S1132270C884DF80EE80FD800C811B81AA81B98136
S1132280CE0FD11D0FB6F894DEBF0FBECDBFED014A
S10922900895F894FFCF4D
S113229601303030302E303000303030302E303097
S11322A6000200606A46013232323431323234314D
S11322B6323234313232340000000000FE58470115
S11322C634333134343331343433313434333134D4
S11322D63400000000E0E944003132333435363747
S11322E63839313233343536373839340000C82F6B
S11322F647003434313731323334353637383931AF
S1132306313300000000000000000000000000005F
S113231600000000000000000000000000000000B3
S113232600000000000000000000000000000000A3
S11323360000000000000000000000000000000093
S11323460000000000000000000000000000000083
S11323560000000000000000000000000000000073
S11323660000000000000000000000000000000063
S11323760000000000000000000000000000000053
S11323860000000000000000000000000000000043
S11323960000000000000000000000000B31323392
S11323A63435363738390405060739003600330024
S11323B630003A003700340031003B003800350065
S11323C632004C4F434B454400546869732069738B
S11323D6206100467261756420436172640054682A
S11323E669732043617264200069732053746F6CAF
S11323F6656E004D6178204C696D697420006973BF
S113240620457863656564656400494E53554646C0
S1132416494349454E54200046554E440057656C81
S1132426636F6D6520546F2041746D00496E73654A
S1132436727420596F757220436172640041707022
S1132446726F766564005472616E73616374696F4A
S11324566E0052656D61696E696E670042616C61FA
S11324666E6365202000456A656374696E67204360
S113247661726400456E74657220596F75722070BE
S1132486696E0053686F72742050696E0050494E2D
S11324965F4D4154434845440050494E5F4E4F54A6
S11324A65F4D41544348454400454E5445522061CE
S11324B66D6F756E7400353030302E30300001008B
S11324C60800400009010004000001000800400063
S10724D600010004F9
S9030000FC
